{
	"data": {
		"bytecode": {
			"linkReferences": {},
			"object": "60806040523480156200001157600080fd5b506040518060400160405280600881526020017f444944546f6b656e0000000000000000000000000000000000000000000000008152506040518060400160405280600481526020017f4b4e46540000000000000000000000000000000000000000000000000000000081525081600090816200008f919062000412565b508060019081620000a1919062000412565b505050620000c4620000b8620000ca60201b60201c565b620000d260201b60201c565b620004f9565b600033905090565b6000600760009054906101000a900473ffffffffffffffffffffffffffffffffffffffff16905081600760006101000a81548173ffffffffffffffffffffffffffffffffffffffff021916908373ffffffffffffffffffffffffffffffffffffffff1602179055508173ffffffffffffffffffffffffffffffffffffffff168173ffffffffffffffffffffffffffffffffffffffff167f8be0079c531659141344cd1fd0a4f28419497f9722a3daafe3b4186f6b6457e060405160405180910390a35050565b600081519050919050565b7f4e487b7100000000000000000000000000000000000000000000000000000000600052604160045260246000fd5b7f4e487b7100000000000000000000000000000000000000000000000000000000600052602260045260246000fd5b600060028204905060018216806200021a57607f821691505b60208210810362000230576200022f620001d2565b5b50919050565b60008190508160005260206000209050919050565b60006020601f8301049050919050565b600082821b905092915050565b6000600883026200029a7fffffffffffffffffffffffffffffffffffffffffffffffffffffffffffffffff826200025b565b620002a686836200025b565b95508019841693508086168417925050509392505050565b6000819050919050565b6000819050919050565b6000620002f3620002ed620002e784620002be565b620002c8565b620002be565b9050919050565b6000819050919050565b6200030f83620002d2565b620003276200031e82620002fa565b84845462000268565b825550505050565b600090565b6200033e6200032f565b6200034b81848462000304565b505050565b5b8181101562000373576200036760008262000334565b60018101905062000351565b5050565b601f821115620003c2576200038c8162000236565b62000397846200024b565b81016020851015620003a7578190505b620003bf620003b6856200024b565b83018262000350565b50505b505050565b600082821c905092915050565b6000620003e760001984600802620003c7565b1980831691505092915050565b6000620004028383620003d4565b9150826002028217905092915050565b6200041d8262000198565b67ffffffffffffffff811115620004395762000438620001a3565b5b62000445825462000201565b6200045282828562000377565b600060209050601f8311600181146200048a576000841562000475578287015190505b620004818582620003f4565b865550620004f1565b601f1984166200049a8662000236565b60005b82811015620004c4578489015182556001820191506020850194506020810190506200049d565b86831015620004e45784890151620004e0601f891682620003d4565b8355505b6001600288020188555050505b505050505050565b6153f080620005096000396000f3fe608060405234801561001057600080fd5b50600436106101375760003560e01c80636352211e116100b857806395d89b411161007c57806395d89b411461034c578063a22cb4651461036a578063b88d4fde14610386578063c87b56dd146103a2578063e985e9c5146103d2578063f2fde38b1461040257610137565b80636352211e146102a857806370a08231146102d8578063715018a614610308578063732c3bc4146103125780638da5cb5b1461032e57610137565b806323b872dd116100ff57806323b872dd146101f4578063298801431461021057806342842e0e146102405780634f9f6fe61461025c5780635f60f8c61461028c57610137565b80630102a47b1461013c57806301ffc9a71461015a57806306fdde031461018a578063081812fc146101a8578063095ea7b3146101d8575b600080fd5b61014461041e565b6040516101519190612fa0565b60405180910390f35b610174600480360381019061016f919061302e565b610bc8565b604051610181919061306a565b60405180910390f35b610192610caa565b60405161019f91906130cf565b60405180910390f35b6101c260048036038101906101bd919061311d565b610d3c565b6040516101cf919061318b565b60405180910390f35b6101f260048036038101906101ed91906131d2565b610d82565b005b61020e60048036038101906102099190613212565b610e99565b005b61022a6004803603810190610225919061380e565b610ef9565b604051610237919061388c565b60405180910390f35b61025a60048036038101906102559190613212565b611390565b005b6102766004803603810190610271919061311d565b6113b0565b6040516102839190612fa0565b60405180910390f35b6102a660048036038101906102a191906138cc565b6113bd565b005b6102c260048036038101906102bd919061311d565b611447565b6040516102cf919061318b565b60405180910390f35b6102f260048036038101906102ed9190613928565b6114cd565b6040516102ff919061388c565b60405180910390f35b610310611584565b005b61032c600480360381019061032791906138cc565b611598565b005b610336611622565b604051610343919061318b565b60405180910390f35b61035461164c565b60405161036191906130cf565b60405180910390f35b610384600480360381019061037f9190613955565b6116de565b005b6103a0600480360381019061039b9190613a36565b6116f4565b005b6103bc60048036038101906103b7919061311d565b611756565b6040516103c991906130cf565b60405180910390f35b6103ec60048036038101906103e79190613ab9565b611768565b6040516103f9919061306a565b60405180910390f35b61041c60048036038101906104179190613928565b6117fc565b005b610426612a72565b600960003373ffffffffffffffffffffffffffffffffffffffff1673ffffffffffffffffffffffffffffffffffffffff1681526020019081526020016000206040518061040001604052908160008201805461048190613b28565b80601f01602080910402602001604051908101604052809291908181526020018280546104ad90613b28565b80156104fa5780601f106104cf576101008083540402835291602001916104fa565b820191906000526020600020905b8154815290600101906020018083116104dd57829003601f168201915b5050505050815260200160018201805461051390613b28565b80601f016020809104026020016040519081016040528092919081815260200182805461053f90613b28565b801561058c5780601f106105615761010080835404028352916020019161058c565b820191906000526020600020905b81548152906001019060200180831161056f57829003601f168201915b505050505081526020016002820160009054906101000a900461ffff1661ffff1661ffff1681526020016002820160029054906101000a900460ff1660ff1660ff1681526020016002820160039054906101000a900460ff1660ff1660ff1681526020016002820160049054906101000a900461ffff1661ffff1661ffff1681526020016002820160069054906101000a900460ff1660ff1660ff1681526020016002820160079054906101000a900460ff1660ff1660ff16815260200160038201805461065990613b28565b80601f016020809104026020016040519081016040528092919081815260200182805461068590613b28565b80156106d25780601f106106a7576101008083540402835291602001916106d2565b820191906000526020600020905b8154815290600101906020018083116106b557829003601f168201915b505050505081526020016004820180546106eb90613b28565b80601f016020809104026020016040519081016040528092919081815260200182805461071790613b28565b80156107645780601f1061073957610100808354040283529160200191610764565b820191906000526020600020905b81548152906001019060200180831161074757829003601f168201915b505050505081526020016005820160009054906101000a900461ffff1661ffff1661ffff1681526020016005820160029054906101000a900461ffff1661ffff1661ffff1681526020016005820160049054906101000a900461ffff1661ffff1661ffff1681526020016005820160069054906101000a900461ffff1661ffff1661ffff1681526020016005820160089054906101000a900460ff1660ff1660ff16815260200160068201805461081a90613b28565b80601f016020809104026020016040519081016040528092919081815260200182805461084690613b28565b80156108935780601f1061086857610100808354040283529160200191610893565b820191906000526020600020905b81548152906001019060200180831161087657829003601f168201915b505050505081526020016007820160009054906101000a900460ff1660ff1660ff1681526020016007820160019054906101000a900463ffffffff1663ffffffff1663ffffffff1681526020016007820160059054906101000a900460ff161515151581526020016007820160069054906101000a900463ffffffff1663ffffffff1663ffffffff16815260200160078201600a9054906101000a900460ff1615151515815260200160078201600b9054906101000a900463ffffffff1663ffffffff1663ffffffff16815260200160078201600f9054906101000a900460ff1615151515815260200160088201805461098c90613b28565b80601f01602080910402602001604051908101604052809291908181526020018280546109b890613b28565b8015610a055780601f106109da57610100808354040283529160200191610a05565b820191906000526020600020905b8154815290600101906020018083116109e857829003601f168201915b505050505081526020016009820160009054906101000a900460ff161515151581526020016009820160019054906101000a900460ff161515151581526020016009820160029054906101000a900460ff161515151581526020016009820160039054906101000a900460ff161515151581526020016009820160049054906101000a900460ff16151515158152602001600a8201548152602001600b82018054610aaf90613b28565b80601f0160208091040260200160405190810160405280929190818152602001828054610adb90613b28565b8015610b285780601f10610afd57610100808354040283529160200191610b28565b820191906000526020600020905b815481529060010190602001808311610b0b57829003601f168201915b50505050508152602001600c82018054610b4190613b28565b80601f0160208091040260200160405190810160405280929190818152602001828054610b6d90613b28565b8015610bba5780601f10610b8f57610100808354040283529160200191610bba565b820191906000526020600020905b815481529060010190602001808311610b9d57829003601f168201915b505050505081525050905090565b60007f80ac58cd000000000000000000000000000000000000000000000000000000007bffffffffffffffffffffffffffffffffffffffffffffffffffffffff1916827bffffffffffffffffffffffffffffffffffffffffffffffffffffffff19161480610c9357507f5b5e139f000000000000000000000000000000000000000000000000000000007bffffffffffffffffffffffffffffffffffffffffffffffffffffffff1916827bffffffffffffffffffffffffffffffffffffffffffffffffffffffff1916145b80610ca35750610ca28261187f565b5b9050919050565b606060008054610cb990613b28565b80601f0160208091040260200160405190810160405280929190818152602001828054610ce590613b28565b8015610d325780601f10610d0757610100808354040283529160200191610d32565b820191906000526020600020905b815481529060010190602001808311610d1557829003601f168201915b5050505050905090565b6000610d47826118e0565b6004600083815260200190815260200160002060009054906101000a900473ffffffffffffffffffffffffffffffffffffffff169050919050565b6000610d8d82611447565b90508073ffffffffffffffffffffffffffffffffffffffff168373ffffffffffffffffffffffffffffffffffffffff1603610dfd576040517f08c379a0000000000000000000000000000000000000000000000000000000008152600401610df490613bcb565b60405180910390fd5b8073ffffffffffffffffffffffffffffffffffffffff16610e1c61192b565b73ffffffffffffffffffffffffffffffffffffffff161480610e4b5750610e4a81610e4561192b565b611768565b5b610e8a576040517f08c379a0000000000000000000000000000000000000000000000000000000008152600401610e8190613c5d565b60405180910390fd5b610e948383611933565b505050565b610eaa610ea461192b565b826119ec565b610ee9576040517f08c379a0000000000000000000000000000000000000000000000000000000008152600401610ee090613cef565b60405180910390fd5b610ef4838383611a81565b505050565b6000610f056008611d7a565b6000610f116008611d90565b9050610f1d8582611d9e565b82600b60008381526020019081526020016000206000820151816000019081610f469190613ebb565b506020820151816001019081610f5c9190613ebb565b5060408201518160020160006101000a81548161ffff021916908361ffff16021790555060608201518160020160026101000a81548160ff021916908360ff16021790555060808201518160020160036101000a81548160ff021916908360ff16021790555060a08201518160020160046101000a81548161ffff021916908361ffff16021790555060c08201518160020160066101000a81548160ff021916908360ff16021790555060e08201518160020160076101000a81548160ff021916908360ff16021790555061010082015181600301908161103d9190613ebb565b506101208201518160040190816110549190613ebb565b506101408201518160050160006101000a81548161ffff021916908361ffff1602179055506101608201518160050160026101000a81548161ffff021916908361ffff1602179055506101808201518160050160046101000a81548161ffff021916908361ffff1602179055506101a08201518160050160066101000a81548161ffff021916908361ffff1602179055506101c08201518160050160086101000a81548160ff021916908360ff1602179055506101e082015181600601908161111d9190613ebb565b506102008201518160070160006101000a81548160ff021916908360ff1602179055506102208201518160070160016101000a81548163ffffffff021916908363ffffffff1602179055506102408201518160070160056101000a81548160ff0219169083151502179055506102608201518160070160066101000a81548163ffffffff021916908363ffffffff16021790555061028082015181600701600a6101000a81548160ff0219169083151502179055506102a082015181600701600b6101000a81548163ffffffff021916908363ffffffff1602179055506102c082015181600701600f6101000a81548160ff0219169083151502179055506102e08201518160080190816112319190613ebb565b506103008201518160090160006101000a81548160ff0219169083151502179055506103208201518160090160016101000a81548160ff0219169083151502179055506103408201518160090160026101000a81548160ff0219169083151502179055506103608201518160090160036101000a81548160ff0219169083151502179055506103808201518160090160046101000a81548160ff0219169083151502179055506103a082015181600a01556103c082015181600b0190816112f89190613ebb565b506103e082015181600c01908161130f9190613ebb565b509050507ff520568ce28f611790242e97e8a2e24b45dd6788d8b224ae7b205858d612b7208585604051611344929190613f8d565b60405180910390a17f7b4f6a37d173389066e37b530c8bbf1d2b7487c7745cfd286b33bed990f86422338260405161137d929190613fb6565b60405180910390a1809150509392505050565b6113ab838383604051806020016040528060008152506116f4565b505050565b6113b8612a72565b919050565b80600960008473ffffffffffffffffffffffffffffffffffffffff1673ffffffffffffffffffffffffffffffffffffffff16815260200190815260200160002081816114099190614d44565b9050507f18ecb209b3e35a9960a3f6c83360dcc37c1c015a37807f8efbd9ce6e011a32778260405161143b919061318b565b60405180910390a15050565b60008061145383611dbc565b9050600073ffffffffffffffffffffffffffffffffffffffff168173ffffffffffffffffffffffffffffffffffffffff16036114c4576040517f08c379a00000000000000000000000000000000000000000000000000000000081526004016114bb90614d9e565b60405180910390fd5b80915050919050565b60008073ffffffffffffffffffffffffffffffffffffffff168273ffffffffffffffffffffffffffffffffffffffff160361153d576040517f08c379a000000000000000000000000000000000000000000000000000000000815260040161153490614e30565b60405180910390fd5b600360008373ffffffffffffffffffffffffffffffffffffffff1673ffffffffffffffffffffffffffffffffffffffff168152602001908152602001600020549050919050565b61158c611df9565b6115966000611e77565b565b80600960008473ffffffffffffffffffffffffffffffffffffffff1673ffffffffffffffffffffffffffffffffffffffff16815260200190815260200160002081816115e49190614d44565b9050507fb392260fcc2875210b67f751621606bc7c7b45da5226d71b5d45335aae92273c82604051611616919061318b565b60405180910390a15050565b6000600760009054906101000a900473ffffffffffffffffffffffffffffffffffffffff16905090565b60606001805461165b90613b28565b80601f016020809104026020016040519081016040528092919081815260200182805461168790613b28565b80156116d45780601f106116a9576101008083540402835291602001916116d4565b820191906000526020600020905b8154815290600101906020018083116116b757829003601f168201915b5050505050905090565b6116f06116e961192b565b8383611f3d565b5050565b6117056116ff61192b565b836119ec565b611744576040517f08c379a000000000000000000000000000000000000000000000000000000000815260040161173b90613cef565b60405180910390fd5b611750848484846120a9565b50505050565b606061176182612105565b9050919050565b6000600560008473ffffffffffffffffffffffffffffffffffffffff1673ffffffffffffffffffffffffffffffffffffffff16815260200190815260200160002060008373ffffffffffffffffffffffffffffffffffffffff1673ffffffffffffffffffffffffffffffffffffffff16815260200190815260200160002060009054906101000a900460ff16905092915050565b611804611df9565b600073ffffffffffffffffffffffffffffffffffffffff168173ffffffffffffffffffffffffffffffffffffffff1603611873576040517f08c379a000000000000000000000000000000000000000000000000000000000815260040161186a90614ec2565b60405180910390fd5b61187c81611e77565b50565b6000634906490660e01b7bffffffffffffffffffffffffffffffffffffffffffffffffffffffff1916827bffffffffffffffffffffffffffffffffffffffffffffffffffffffff191614806118d957506118d882612217565b5b9050919050565b6118e9816122f9565b611928576040517f08c379a000000000000000000000000000000000000000000000000000000000815260040161191f90614d9e565b60405180910390fd5b50565b600033905090565b816004600083815260200190815260200160002060006101000a81548173ffffffffffffffffffffffffffffffffffffffff021916908373ffffffffffffffffffffffffffffffffffffffff160217905550808273ffffffffffffffffffffffffffffffffffffffff166119a683611447565b73ffffffffffffffffffffffffffffffffffffffff167f8c5be1e5ebec7d5bd14f71427d1e84f3dd0314c0f7b2291e5b200ac8c7c3b92560405160405180910390a45050565b6000806119f883611447565b90508073ffffffffffffffffffffffffffffffffffffffff168473ffffffffffffffffffffffffffffffffffffffff161480611a3a5750611a398185611768565b5b80611a7857508373ffffffffffffffffffffffffffffffffffffffff16611a6084610d3c565b73ffffffffffffffffffffffffffffffffffffffff16145b91505092915050565b8273ffffffffffffffffffffffffffffffffffffffff16611aa182611447565b73ffffffffffffffffffffffffffffffffffffffff1614611af7576040517f08c379a0000000000000000000000000000000000000000000000000000000008152600401611aee90614f54565b60405180910390fd5b600073ffffffffffffffffffffffffffffffffffffffff168273ffffffffffffffffffffffffffffffffffffffff1603611b66576040517f08c379a0000000000000000000000000000000000000000000000000000000008152600401611b5d90614fe6565b60405180910390fd5b611b73838383600161233a565b8273ffffffffffffffffffffffffffffffffffffffff16611b9382611447565b73ffffffffffffffffffffffffffffffffffffffff1614611be9576040517f08c379a0000000000000000000000000000000000000000000000000000000008152600401611be090614f54565b60405180910390fd5b6004600082815260200190815260200160002060006101000a81549073ffffffffffffffffffffffffffffffffffffffff02191690556001600360008573ffffffffffffffffffffffffffffffffffffffff1673ffffffffffffffffffffffffffffffffffffffff168152602001908152602001600020600082825403925050819055506001600360008473ffffffffffffffffffffffffffffffffffffffff1673ffffffffffffffffffffffffffffffffffffffff16815260200190815260200160002060008282540192505081905550816002600083815260200190815260200160002060006101000a81548173ffffffffffffffffffffffffffffffffffffffff021916908373ffffffffffffffffffffffffffffffffffffffff160217905550808273ffffffffffffffffffffffffffffffffffffffff168473ffffffffffffffffffffffffffffffffffffffff167fddf252ad1be2c89b69c2b068fc378daa952ba7f163c4a11628f55a4df523b3ef60405160405180910390a4611d758383836001612340565b505050565b6001816000016000828254019250508190555050565b600081600001549050919050565b611db8828260405180602001604052806000815250612346565b5050565b60006002600083815260200190815260200160002060009054906101000a900473ffffffffffffffffffffffffffffffffffffffff169050919050565b611e0161192b565b73ffffffffffffffffffffffffffffffffffffffff16611e1f611622565b73ffffffffffffffffffffffffffffffffffffffff1614611e75576040517f08c379a0000000000000000000000000000000000000000000000000000000008152600401611e6c90615052565b60405180910390fd5b565b6000600760009054906101000a900473ffffffffffffffffffffffffffffffffffffffff16905081600760006101000a81548173ffffffffffffffffffffffffffffffffffffffff021916908373ffffffffffffffffffffffffffffffffffffffff1602179055508173ffffffffffffffffffffffffffffffffffffffff168173ffffffffffffffffffffffffffffffffffffffff167f8be0079c531659141344cd1fd0a4f28419497f9722a3daafe3b4186f6b6457e060405160405180910390a35050565b8173ffffffffffffffffffffffffffffffffffffffff168373ffffffffffffffffffffffffffffffffffffffff1603611fab576040517f08c379a0000000000000000000000000000000000000000000000000000000008152600401611fa2906150be565b60405180910390fd5b80600560008573ffffffffffffffffffffffffffffffffffffffff1673ffffffffffffffffffffffffffffffffffffffff16815260200190815260200160002060008473ffffffffffffffffffffffffffffffffffffffff1673ffffffffffffffffffffffffffffffffffffffff16815260200190815260200160002060006101000a81548160ff0219169083151502179055508173ffffffffffffffffffffffffffffffffffffffff168373ffffffffffffffffffffffffffffffffffffffff167f17307eab39ab6107e8899845ad3d59bd9653f200f220920489ca2b5937696c318360405161209c919061306a565b60405180910390a3505050565b6120b4848484611a81565b6120c0848484846123a1565b6120ff576040517f08c379a00000000000000000000000000000000000000000000000000000000081526004016120f690615150565b60405180910390fd5b50505050565b6060612110826118e0565b600060066000848152602001908152602001600020805461213090613b28565b80601f016020809104026020016040519081016040528092919081815260200182805461215c90613b28565b80156121a95780601f1061217e576101008083540402835291602001916121a9565b820191906000526020600020905b81548152906001019060200180831161218c57829003601f168201915b5050505050905060006121ba612528565b905060008151036121cf578192505050612212565b6000825111156122045780826040516020016121ec9291906151ac565b60405160208183030381529060405292505050612212565b61220d8461253f565b925050505b919050565b60007f80ac58cd000000000000000000000000000000000000000000000000000000007bffffffffffffffffffffffffffffffffffffffffffffffffffffffff1916827bffffffffffffffffffffffffffffffffffffffffffffffffffffffff191614806122e257507f5b5e139f000000000000000000000000000000000000000000000000000000007bffffffffffffffffffffffffffffffffffffffffffffffffffffffff1916827bffffffffffffffffffffffffffffffffffffffffffffffffffffffff1916145b806122f257506122f1826125a7565b5b9050919050565b60008073ffffffffffffffffffffffffffffffffffffffff1661231b83611dbc565b73ffffffffffffffffffffffffffffffffffffffff1614159050919050565b50505050565b50505050565b6123508383612611565b61235d60008484846123a1565b61239c576040517f08c379a000000000000000000000000000000000000000000000000000000000815260040161239390615150565b60405180910390fd5b505050565b60006123c28473ffffffffffffffffffffffffffffffffffffffff1661282e565b1561251b578373ffffffffffffffffffffffffffffffffffffffff1663150b7a026123eb61192b565b8786866040518563ffffffff1660e01b815260040161240d9493929190615225565b6020604051808303816000875af192505050801561244957506040513d601f19601f820116820180604052508101906124469190615286565b60015b6124cb573d8060008114612479576040519150601f19603f3d011682016040523d82523d6000602084013e61247e565b606091505b5060008151036124c3576040517f08c379a00000000000000000000000000000000000000000000000000000000081526004016124ba90615150565b60405180910390fd5b805181602001fd5b63150b7a0260e01b7bffffffffffffffffffffffffffffffffffffffffffffffffffffffff1916817bffffffffffffffffffffffffffffffffffffffffffffffffffffffff191614915050612520565b600190505b949350505050565b606060405180602001604052806000815250905090565b606061254a826118e0565b6000612554612528565b90506000815111612574576040518060200160405280600081525061259f565b8061257e84612851565b60405160200161258f9291906151ac565b6040516020818303038152906040525b915050919050565b60007f01ffc9a7000000000000000000000000000000000000000000000000000000007bffffffffffffffffffffffffffffffffffffffffffffffffffffffff1916827bffffffffffffffffffffffffffffffffffffffffffffffffffffffff1916149050919050565b600073ffffffffffffffffffffffffffffffffffffffff168273ffffffffffffffffffffffffffffffffffffffff1603612680576040517f08c379a0000000000000000000000000000000000000000000000000000000008152600401612677906152ff565b60405180910390fd5b612689816122f9565b156126c9576040517f08c379a00000000000000000000000000000000000000000000000000000000081526004016126c09061536b565b60405180910390fd5b6126d760008383600161233a565b6126e0816122f9565b15612720576040517f08c379a00000000000000000000000000000000000000000000000000000000081526004016127179061536b565b60405180910390fd5b6001600360008473ffffffffffffffffffffffffffffffffffffffff1673ffffffffffffffffffffffffffffffffffffffff16815260200190815260200160002060008282540192505081905550816002600083815260200190815260200160002060006101000a81548173ffffffffffffffffffffffffffffffffffffffff021916908373ffffffffffffffffffffffffffffffffffffffff160217905550808273ffffffffffffffffffffffffffffffffffffffff16600073ffffffffffffffffffffffffffffffffffffffff167fddf252ad1be2c89b69c2b068fc378daa952ba7f163c4a11628f55a4df523b3ef60405160405180910390a461282a600083836001612340565b5050565b6000808273ffffffffffffffffffffffffffffffffffffffff163b119050919050565b6060600060016128608461291f565b01905060008167ffffffffffffffff81111561287f5761287e61326a565b5b6040519080825280601f01601f1916602001820160405280156128b15781602001600182028036833780820191505090505b509050600082602001820190505b600115612914578080600190039150507f3031323334353637383961626364656600000000000000000000000000000000600a86061a8153600a85816129085761290761538b565b5b049450600085036128bf575b819350505050919050565b600080600090507a184f03e93ff9f4daa797ed6e38ed64bf6a1f010000000000000000831061297d577a184f03e93ff9f4daa797ed6e38ed64bf6a1f01000000000000000083816129735761297261538b565b5b0492506040810190505b6d04ee2d6d415b85acef810000000083106129ba576d04ee2d6d415b85acef810000000083816129b0576129af61538b565b5b0492506020810190505b662386f26fc1000083106129e957662386f26fc1000083816129df576129de61538b565b5b0492506010810190505b6305f5e1008310612a12576305f5e1008381612a0857612a0761538b565b5b0492506008810190505b6127108310612a37576127108381612a2d57612a2c61538b565b5b0492506004810190505b60648310612a5a5760648381612a5057612a4f61538b565b5b0492506002810190505b600a8310612a69576001810190505b80915050919050565b6040518061040001604052806060815260200160608152602001600061ffff168152602001600060ff168152602001600060ff168152602001600061ffff168152602001600060ff168152602001600060ff1681526020016060815260200160608152602001600061ffff168152602001600061ffff168152602001600061ffff168152602001600061ffff168152602001600060ff16815260200160608152602001600060ff168152602001600063ffffffff168152602001600015158152602001600063ffffffff168152602001600015158152602001600063ffffffff168152602001600015158152602001606081526020016000151581526020016000151581526020016000151581526020016000151581526020016000151581526020016000815260200160608152602001606081525090565b600081519050919050565b600082825260208201905092915050565b60005b83811015612be5578082015181840152602081019050612bca565b60008484015250505050565b6000601f19601f8301169050919050565b6000612c0d82612bab565b612c178185612bb6565b9350612c27818560208601612bc7565b612c3081612bf1565b840191505092915050565b600061ffff82169050919050565b612c5281612c3b565b82525050565b600060ff82169050919050565b612c6e81612c58565b82525050565b600063ffffffff82169050919050565b612c8d81612c74565b82525050565b60008115159050919050565b612ca881612c93565b82525050565b6000819050919050565b612cc181612cae565b82525050565b6000610400830160008301518482036000860152612ce58282612c02565b91505060208301518482036020860152612cff8282612c02565b9150506040830151612d146040860182612c49565b506060830151612d276060860182612c65565b506080830151612d3a6080860182612c65565b5060a0830151612d4d60a0860182612c49565b5060c0830151612d6060c0860182612c65565b5060e0830151612d7360e0860182612c65565b50610100830151848203610100860152612d8d8282612c02565b915050610120830151848203610120860152612da98282612c02565b915050610140830151612dc0610140860182612c49565b50610160830151612dd5610160860182612c49565b50610180830151612dea610180860182612c49565b506101a0830151612dff6101a0860182612c49565b506101c0830151612e146101c0860182612c65565b506101e08301518482036101e0860152612e2e8282612c02565b915050610200830151612e45610200860182612c65565b50610220830151612e5a610220860182612c84565b50610240830151612e6f610240860182612c9f565b50610260830151612e84610260860182612c84565b50610280830151612e99610280860182612c9f565b506102a0830151612eae6102a0860182612c84565b506102c0830151612ec36102c0860182612c9f565b506102e08301518482036102e0860152612edd8282612c02565b915050610300830151612ef4610300860182612c9f565b50610320830151612f09610320860182612c9f565b50610340830151612f1e610340860182612c9f565b50610360830151612f33610360860182612c9f565b50610380830151612f48610380860182612c9f565b506103a0830151612f5d6103a0860182612cb8565b506103c08301518482036103c0860152612f778282612c02565b9150506103e08301518482036103e0860152612f938282612c02565b9150508091505092915050565b60006020820190508181036000830152612fba8184612cc7565b905092915050565b6000604051905090565b600080fd5b600080fd5b60007fffffffff0000000000000000000000000000000000000000000000000000000082169050919050565b61300b81612fd6565b811461301657600080fd5b50565b60008135905061302881613002565b92915050565b60006020828403121561304457613043612fcc565b5b600061305284828501613019565b91505092915050565b61306481612c93565b82525050565b600060208201905061307f600083018461305b565b92915050565b600082825260208201905092915050565b60006130a182612bab565b6130ab8185613085565b93506130bb818560208601612bc7565b6130c481612bf1565b840191505092915050565b600060208201905081810360008301526130e98184613096565b905092915050565b6130fa81612cae565b811461310557600080fd5b50565b600081359050613117816130f1565b92915050565b60006020828403121561313357613132612fcc565b5b600061314184828501613108565b91505092915050565b600073ffffffffffffffffffffffffffffffffffffffff82169050919050565b60006131758261314a565b9050919050565b6131858161316a565b82525050565b60006020820190506131a0600083018461317c565b92915050565b6131af8161316a565b81146131ba57600080fd5b50565b6000813590506131cc816131a6565b92915050565b600080604083850312156131e9576131e8612fcc565b5b60006131f7858286016131bd565b925050602061320885828601613108565b9150509250929050565b60008060006060848603121561322b5761322a612fcc565b5b6000613239868287016131bd565b935050602061324a868287016131bd565b925050604061325b86828701613108565b9150509250925092565b600080fd5b7f4e487b7100000000000000000000000000000000000000000000000000000000600052604160045260246000fd5b6132a282612bf1565b810181811067ffffffffffffffff821117156132c1576132c061326a565b5b80604052505050565b60006132d4612fc2565b90506132e08282613299565b919050565b600080fd5b600080fd5b600080fd5b600067ffffffffffffffff82111561330f5761330e61326a565b5b61331882612bf1565b9050602081019050919050565b82818337600083830152505050565b6000613347613342846132f4565b6132ca565b905082815260208101848484011115613363576133626132ef565b5b61336e848285613325565b509392505050565b600082601f83011261338b5761338a6132ea565b5b813561339b848260208601613334565b91505092915050565b6133ad81612c3b565b81146133b857600080fd5b50565b6000813590506133ca816133a4565b92915050565b6133d981612c58565b81146133e457600080fd5b50565b6000813590506133f6816133d0565b92915050565b61340581612c74565b811461341057600080fd5b50565b600081359050613422816133fc565b92915050565b61343181612c93565b811461343c57600080fd5b50565b60008135905061344e81613428565b92915050565b6000610400828403121561346b5761346a613265565b5b6134766104006132ca565b9050600082013567ffffffffffffffff811115613496576134956132e5565b5b6134a284828501613376565b600083015250602082013567ffffffffffffffff8111156134c6576134c56132e5565b5b6134d284828501613376565b60208301525060406134e6848285016133bb565b60408301525060606134fa848285016133e7565b606083015250608061350e848285016133e7565b60808301525060a0613522848285016133bb565b60a08301525060c0613536848285016133e7565b60c08301525060e061354a848285016133e7565b60e08301525061010082013567ffffffffffffffff81111561356f5761356e6132e5565b5b61357b84828501613376565b6101008301525061012082013567ffffffffffffffff8111156135a1576135a06132e5565b5b6135ad84828501613376565b610120830152506101406135c3848285016133bb565b610140830152506101606135d9848285016133bb565b610160830152506101806135ef848285016133bb565b610180830152506101a0613605848285016133bb565b6101a0830152506101c061361b848285016133e7565b6101c0830152506101e082013567ffffffffffffffff811115613641576136406132e5565b5b61364d84828501613376565b6101e083015250610200613663848285016133e7565b6102008301525061022061367984828501613413565b6102208301525061024061368f8482850161343f565b610240830152506102606136a584828501613413565b610260830152506102806136bb8482850161343f565b610280830152506102a06136d184828501613413565b6102a0830152506102c06136e78482850161343f565b6102c0830152506102e082013567ffffffffffffffff81111561370d5761370c6132e5565b5b61371984828501613376565b6102e08301525061030061372f8482850161343f565b610300830152506103206137458482850161343f565b6103208301525061034061375b8482850161343f565b610340830152506103606137718482850161343f565b610360830152506103806137878482850161343f565b610380830152506103a061379d84828501613108565b6103a0830152506103c082013567ffffffffffffffff8111156137c3576137c26132e5565b5b6137cf84828501613376565b6103c0830152506103e082013567ffffffffffffffff8111156137f5576137f46132e5565b5b61380184828501613376565b6103e08301525092915050565b60008060006060848603121561382757613826612fcc565b5b6000613835868287016131bd565b9350506020613846868287016131bd565b925050604084013567ffffffffffffffff81111561386757613866612fd1565b5b61387386828701613454565b9150509250925092565b61388681612cae565b82525050565b60006020820190506138a1600083018461387d565b92915050565b600080fd5b600061040082840312156138c3576138c26138a7565b5b81905092915050565b600080604083850312156138e3576138e2612fcc565b5b60006138f1858286016131bd565b925050602083013567ffffffffffffffff81111561391257613911612fd1565b5b61391e858286016138ac565b9150509250929050565b60006020828403121561393e5761393d612fcc565b5b600061394c848285016131bd565b91505092915050565b6000806040838503121561396c5761396b612fcc565b5b600061397a858286016131bd565b925050602061398b8582860161343f565b9150509250929050565b600067ffffffffffffffff8211156139b0576139af61326a565b5b6139b982612bf1565b9050602081019050919050565b60006139d96139d484613995565b6132ca565b9050828152602081018484840111156139f5576139f46132ef565b5b613a00848285613325565b509392505050565b600082601f830112613a1d57613a1c6132ea565b5b8135613a2d8482602086016139c6565b91505092915050565b60008060008060808587031215613a5057613a4f612fcc565b5b6000613a5e878288016131bd565b9450506020613a6f878288016131bd565b9350506040613a8087828801613108565b925050606085013567ffffffffffffffff811115613aa157613aa0612fd1565b5b613aad87828801613a08565b91505092959194509250565b60008060408385031215613ad057613acf612fcc565b5b6000613ade858286016131bd565b9250506020613aef858286016131bd565b9150509250929050565b7f4e487b7100000000000000000000000000000000000000000000000000000000600052602260045260246000fd5b60006002820490506001821680613b4057607f821691505b602082108103613b5357613b52613af9565b5b50919050565b7f4552433732313a20617070726f76616c20746f2063757272656e74206f776e6560008201527f7200000000000000000000000000000000000000000000000000000000000000602082015250565b6000613bb5602183613085565b9150613bc082613b59565b604082019050919050565b60006020820190508181036000830152613be481613ba8565b9050919050565b7f4552433732313a20617070726f76652063616c6c6572206973206e6f7420746f60008201527f6b656e206f776e6572206f7220617070726f76656420666f7220616c6c000000602082015250565b6000613c47603d83613085565b9150613c5282613beb565b604082019050919050565b60006020820190508181036000830152613c7681613c3a565b9050919050565b7f4552433732313a2063616c6c6572206973206e6f7420746f6b656e206f776e6560008201527f72206f7220617070726f76656400000000000000000000000000000000000000602082015250565b6000613cd9602d83613085565b9150613ce482613c7d565b604082019050919050565b60006020820190508181036000830152613d0881613ccc565b9050919050565b60008190508160005260206000209050919050565b60006020601f8301049050919050565b600082821b905092915050565b600060088302613d717fffffffffffffffffffffffffffffffffffffffffffffffffffffffffffffffff82613d34565b613d7b8683613d34565b95508019841693508086168417925050509392505050565b6000819050919050565b6000613db8613db3613dae84612cae565b613d93565b612cae565b9050919050565b6000819050919050565b613dd283613d9d565b613de6613dde82613dbf565b848454613d41565b825550505050565b600090565b613dfb613dee565b613e06818484613dc9565b505050565b5b81811015613e2a57613e1f600082613df3565b600181019050613e0c565b5050565b601f821115613e6f57613e4081613d0f565b613e4984613d24565b81016020851015613e58578190505b613e6c613e6485613d24565b830182613e0b565b50505b505050565b600082821c905092915050565b6000613e9260001984600802613e74565b1980831691505092915050565b6000613eab8383613e81565b9150826002028217905092915050565b613ec482612bab565b67ffffffffffffffff811115613edd57613edc61326a565b5b613ee78254613b28565b613ef2828285613e2e565b600060209050601f831160018114613f255760008415613f13578287015190505b613f1d8582613e9f565b865550613f85565b601f198416613f3386613d0f565b60005b82811015613f5b57848901518255600182019150602085019450602081019050613f36565b86831015613f785784890151613f74601f891682613e81565b8355505b6001600288020188555050505b505050505050565b6000604082019050613fa2600083018561317c565b613faf602083018461317c565b9392505050565b6000604082019050613fcb600083018561317c565b613fd8602083018461387d565b9392505050565b600080fd5b600080fd5b600080fd5b6000808335600160200384360303811261400b5761400a613fdf565b5b80840192508235915067ffffffffffffffff82111561402d5761402c613fe4565b5b60208301925060018202360383131561404957614048613fe9565b5b509250929050565b600082905092915050565b6140668383614051565b67ffffffffffffffff81111561407f5761407e61326a565b5b6140898254613b28565b614094828285613e2e565b6000601f8311600181146140c357600084156140b1578287013590505b6140bb8582613e9f565b865550614123565b601f1984166140d186613d0f565b60005b828110156140f9578489013582556001820191506020850194506020810190506140d4565b868310156141165784890135614112601f891682613e81565b8355505b6001600288020188555050505b50505050505050565b61413783838361405c565b505050565b60008135614149816133a4565b80915050919050565b60008160001b9050919050565b600061ffff61416d84614152565b9350801983169250808416831791505092915050565b600061419e61419961419484612c3b565b613d93565b612c3b565b9050919050565b6000819050919050565b6141b882614183565b6141cb6141c4826141a5565b835461415f565b8255505050565b600081356141df816133d0565b80915050919050565b60008160101b9050919050565b600062ff0000614204846141e8565b9350801983169250808416831791505092915050565b600061423561423061422b84612c58565b613d93565b612c58565b9050919050565b6000819050919050565b61424f8261421a565b61426261425b8261423c565b83546141f5565b8255505050565b60008160181b9050919050565b600063ff00000061428684614269565b9350801983169250808416831791505092915050565b6142a58261421a565b6142b86142b18261423c565b8354614276565b8255505050565b60008160201b9050919050565b600065ffff000000006142de846142bf565b9350801983169250808416831791505092915050565b6142fd82614183565b614310614309826141a5565b83546142cc565b8255505050565b60008160301b9050919050565b600066ff00000000000061433784614317565b9350801983169250808416831791505092915050565b6143568261421a565b6143696143628261423c565b8354614324565b8255505050565b60008160381b9050919050565b600067ff0000000000000061439184614370565b9350801983169250808416831791505092915050565b6143b08261421a565b6143c36143bc8261423c565b835461437d565b8255505050565b600063ffff00006143da846141e8565b9350801983169250808416831791505092915050565b6143f982614183565b61440c614405826141a5565b83546143ca565b8255505050565b600067ffff00000000000061442784614317565b9350801983169250808416831791505092915050565b61444682614183565b614459614452826141a5565b8354614413565b8255505050565b60008160401b9050919050565b600068ff000000000000000061448284614460565b9350801983169250808416831791505092915050565b6144a18261421a565b6144b46144ad8261423c565b835461446d565b8255505050565b600060ff6144c884614152565b9350801983169250808416831791505092915050565b6144e78261421a565b6144fa6144f38261423c565b83546144bb565b8255505050565b6000813561450e816133fc565b80915050919050565b60008160081b9050919050565b600064ffffffff0061453584614517565b9350801983169250808416831791505092915050565b600061456661456161455c84612c74565b613d93565b612c74565b9050919050565b6000819050919050565b6145808261454b565b61459361458c8261456d565b8354614524565b8255505050565b600081356145a781613428565b80915050919050565b60008160281b9050919050565b600065ff00000000006145cf846145b0565b9350801983169250808416831791505092915050565b60006145f082612c93565b9050919050565b6000819050919050565b61460a826145e5565b61461d614616826145f7565b83546145bd565b8255505050565b600069ffffffff00000000000061463a84614317565b9350801983169250808416831791505092915050565b6146598261454b565b61466c6146658261456d565b8354614624565b8255505050565b60008160501b9050919050565b60006aff0000000000000000000061469784614673565b9350801983169250808416831791505092915050565b6146b6826145e5565b6146c96146c2826145f7565b8354614680565b8255505050565b60008160581b9050919050565b60006effffffff00000000000000000000006146f8846146d0565b9350801983169250808416831791505092915050565b6147178261454b565b61472a6147238261456d565b83546146dd565b8255505050565b60008160781b9050919050565b60006fff00000000000000000000000000000061475a84614731565b9350801983169250808416831791505092915050565b614779826145e5565b61478c614785826145f7565b835461473e565b8255505050565b61479c826145e5565b6147af6147a8826145f7565b83546144bb565b8255505050565b600061ff006147c484614517565b9350801983169250808416831791505092915050565b6147e3826145e5565b6147f66147ef826145f7565b83546147b6565b8255505050565b614806826145e5565b614819614812826145f7565b83546141f5565b8255505050565b614829826145e5565b61483c614835826145f7565b8354614276565b8255505050565b600064ff00000000614854846142bf565b9350801983169250808416831791505092915050565b614873826145e5565b61488661487f826145f7565b8354614843565b8255505050565b6000813561489a816130f1565b80915050919050565b60007fffffffffffffffffffffffffffffffffffffffffffffffffffffffffffffffff6148cf84614152565b9350801983169250808416831791505092915050565b6148ee82613d9d565b6149016148fa82613dbf565b83546148a3565b8255505050565b600081016000830161491a8185613fee565b61492581838661412c565b50505050600181016020830161493b8185613fee565b61494681838661412c565b5050505060028101604083018061495c8161413c565b905061496881846141af565b50505060028101606083018061497d816141d2565b90506149898184614246565b50505060028101608083018061499e816141d2565b90506149aa818461429c565b5050506002810160a08301806149bf8161413c565b90506149cb81846142f4565b5050506002810160c08301806149e0816141d2565b90506149ec818461434d565b5050506002810160e0830180614a01816141d2565b9050614a0d81846143a7565b505050600381016101008301614a238185613fee565b614a2e81838661412c565b50505050600481016101208301614a458185613fee565b614a5081838661412c565b5050505060058101610140830180614a678161413c565b9050614a7381846141af565b50505060058101610160830180614a898161413c565b9050614a9581846143f0565b50505060058101610180830180614aab8161413c565b9050614ab781846142f4565b505050600581016101a0830180614acd8161413c565b9050614ad9818461443d565b505050600581016101c0830180614aef816141d2565b9050614afb8184614498565b505050600681016101e08301614b118185613fee565b614b1c81838661412c565b5050505060078101610200830180614b33816141d2565b9050614b3f81846144de565b50505060078101610220830180614b5581614501565b9050614b618184614577565b50505060078101610240830180614b778161459a565b9050614b838184614601565b50505060078101610260830180614b9981614501565b9050614ba58184614650565b50505060078101610280830180614bbb8161459a565b9050614bc781846146ad565b505050600781016102a0830180614bdd81614501565b9050614be9818461470e565b505050600781016102c0830180614bff8161459a565b9050614c0b8184614770565b505050600881016102e08301614c218185613fee565b614c2c81838661412c565b5050505060098101610300830180614c438161459a565b9050614c4f8184614793565b50505060098101610320830180614c658161459a565b9050614c7181846147da565b50505060098101610340830180614c878161459a565b9050614c9381846147fd565b50505060098101610360830180614ca98161459a565b9050614cb58184614820565b50505060098101610380830180614ccb8161459a565b9050614cd7818461486a565b505050600a81016103a0830180614ced8161488d565b9050614cf981846148e5565b505050600b81016103c08301614d0f8185613fee565b614d1a81838661412c565b50505050600c81016103e08301614d318185613fee565b614d3c81838661412c565b505050505050565b614d4e8282614908565b5050565b7f4552433732313a20696e76616c696420746f6b656e2049440000000000000000600082015250565b6000614d88601883613085565b9150614d9382614d52565b602082019050919050565b60006020820190508181036000830152614db781614d7b565b9050919050565b7f4552433732313a2061646472657373207a65726f206973206e6f74206120766160008201527f6c6964206f776e65720000000000000000000000000000000000000000000000602082015250565b6000614e1a602983613085565b9150614e2582614dbe565b604082019050919050565b60006020820190508181036000830152614e4981614e0d565b9050919050565b7f4f776e61626c653a206e6577206f776e657220697320746865207a65726f206160008201527f6464726573730000000000000000000000000000000000000000000000000000602082015250565b6000614eac602683613085565b9150614eb782614e50565b604082019050919050565b60006020820190508181036000830152614edb81614e9f565b9050919050565b7f4552433732313a207472616e736665722066726f6d20696e636f72726563742060008201527f6f776e6572000000000000000000000000000000000000000000000000000000602082015250565b6000614f3e602583613085565b9150614f4982614ee2565b604082019050919050565b60006020820190508181036000830152614f6d81614f31565b9050919050565b7f4552433732313a207472616e7366657220746f20746865207a65726f2061646460008201527f7265737300000000000000000000000000000000000000000000000000000000602082015250565b6000614fd0602483613085565b9150614fdb82614f74565b604082019050919050565b60006020820190508181036000830152614fff81614fc3565b9050919050565b7f4f776e61626c653a2063616c6c6572206973206e6f7420746865206f776e6572600082015250565b600061503c602083613085565b915061504782615006565b602082019050919050565b6000602082019050818103600083015261506b8161502f565b9050919050565b7f4552433732313a20617070726f766520746f2063616c6c657200000000000000600082015250565b60006150a8601983613085565b91506150b382615072565b602082019050919050565b600060208201905081810360008301526150d78161509b565b9050919050565b7f4552433732313a207472616e7366657220746f206e6f6e20455243373231526560008201527f63656976657220696d706c656d656e7465720000000000000000000000000000602082015250565b600061513a603283613085565b9150615145826150de565b604082019050919050565b600060208201905081810360008301526151698161512d565b9050919050565b600081905092915050565b600061518682612bab565b6151908185615170565b93506151a0818560208601612bc7565b80840191505092915050565b60006151b8828561517b565b91506151c4828461517b565b91508190509392505050565b600081519050919050565b600082825260208201905092915050565b60006151f7826151d0565b61520181856151db565b9350615211818560208601612bc7565b61521a81612bf1565b840191505092915050565b600060808201905061523a600083018761317c565b615247602083018661317c565b615254604083018561387d565b818103606083015261526681846151ec565b905095945050505050565b60008151905061528081613002565b92915050565b60006020828403121561529c5761529b612fcc565b5b60006152aa84828501615271565b91505092915050565b7f4552433732313a206d696e7420746f20746865207a65726f2061646472657373600082015250565b60006152e9602083613085565b91506152f4826152b3565b602082019050919050565b60006020820190508181036000830152615318816152dc565b9050919050565b7f4552433732313a20746f6b656e20616c7265616479206d696e74656400000000600082015250565b6000615355601c83613085565b91506153608261531f565b602082019050919050565b6000602082019050818103600083015261538481615348565b9050919050565b7f4e487b7100000000000000000000000000000000000000000000000000000000600052601260045260246000fdfea26469706673582212205e01708437d99bb42de0c065974c8c5f3dc3877374143112aaf1892e3368148464736f6c63430008120033",
			"opcodes": "PUSH1 0x80 PUSH1 0x40 MSTORE CALLVALUE DUP1 ISZERO PUSH3 0x11 JUMPI PUSH1 0x0 DUP1 REVERT JUMPDEST POP PUSH1 0x40 MLOAD DUP1 PUSH1 0x40 ADD PUSH1 0x40 MSTORE DUP1 PUSH1 0x8 DUP2 MSTORE PUSH1 0x20 ADD PUSH32 0x444944546F6B656E000000000000000000000000000000000000000000000000 DUP2 MSTORE POP PUSH1 0x40 MLOAD DUP1 PUSH1 0x40 ADD PUSH1 0x40 MSTORE DUP1 PUSH1 0x4 DUP2 MSTORE PUSH1 0x20 ADD PUSH32 0x4B4E465400000000000000000000000000000000000000000000000000000000 DUP2 MSTORE POP DUP2 PUSH1 0x0 SWAP1 DUP2 PUSH3 0x8F SWAP2 SWAP1 PUSH3 0x412 JUMP JUMPDEST POP DUP1 PUSH1 0x1 SWAP1 DUP2 PUSH3 0xA1 SWAP2 SWAP1 PUSH3 0x412 JUMP JUMPDEST POP POP POP PUSH3 0xC4 PUSH3 0xB8 PUSH3 0xCA PUSH1 0x20 SHL PUSH1 0x20 SHR JUMP JUMPDEST PUSH3 0xD2 PUSH1 0x20 SHL PUSH1 0x20 SHR JUMP JUMPDEST PUSH3 0x4F9 JUMP JUMPDEST PUSH1 0x0 CALLER SWAP1 POP SWAP1 JUMP JUMPDEST PUSH1 0x0 PUSH1 0x7 PUSH1 0x0 SWAP1 SLOAD SWAP1 PUSH2 0x100 EXP SWAP1 DIV PUSH20 0xFFFFFFFFFFFFFFFFFFFFFFFFFFFFFFFFFFFFFFFF AND SWAP1 POP DUP2 PUSH1 0x7 PUSH1 0x0 PUSH2 0x100 EXP DUP2 SLOAD DUP2 PUSH20 0xFFFFFFFFFFFFFFFFFFFFFFFFFFFFFFFFFFFFFFFF MUL NOT AND SWAP1 DUP4 PUSH20 0xFFFFFFFFFFFFFFFFFFFFFFFFFFFFFFFFFFFFFFFF AND MUL OR SWAP1 SSTORE POP DUP2 PUSH20 0xFFFFFFFFFFFFFFFFFFFFFFFFFFFFFFFFFFFFFFFF AND DUP2 PUSH20 0xFFFFFFFFFFFFFFFFFFFFFFFFFFFFFFFFFFFFFFFF AND PUSH32 0x8BE0079C531659141344CD1FD0A4F28419497F9722A3DAAFE3B4186F6B6457E0 PUSH1 0x40 MLOAD PUSH1 0x40 MLOAD DUP1 SWAP2 SUB SWAP1 LOG3 POP POP JUMP JUMPDEST PUSH1 0x0 DUP2 MLOAD SWAP1 POP SWAP2 SWAP1 POP JUMP JUMPDEST PUSH32 0x4E487B7100000000000000000000000000000000000000000000000000000000 PUSH1 0x0 MSTORE PUSH1 0x41 PUSH1 0x4 MSTORE PUSH1 0x24 PUSH1 0x0 REVERT JUMPDEST PUSH32 0x4E487B7100000000000000000000000000000000000000000000000000000000 PUSH1 0x0 MSTORE PUSH1 0x22 PUSH1 0x4 MSTORE PUSH1 0x24 PUSH1 0x0 REVERT JUMPDEST PUSH1 0x0 PUSH1 0x2 DUP3 DIV SWAP1 POP PUSH1 0x1 DUP3 AND DUP1 PUSH3 0x21A JUMPI PUSH1 0x7F DUP3 AND SWAP2 POP JUMPDEST PUSH1 0x20 DUP3 LT DUP2 SUB PUSH3 0x230 JUMPI PUSH3 0x22F PUSH3 0x1D2 JUMP JUMPDEST JUMPDEST POP SWAP2 SWAP1 POP JUMP JUMPDEST PUSH1 0x0 DUP2 SWAP1 POP DUP2 PUSH1 0x0 MSTORE PUSH1 0x20 PUSH1 0x0 KECCAK256 SWAP1 POP SWAP2 SWAP1 POP JUMP JUMPDEST PUSH1 0x0 PUSH1 0x20 PUSH1 0x1F DUP4 ADD DIV SWAP1 POP SWAP2 SWAP1 POP JUMP JUMPDEST PUSH1 0x0 DUP3 DUP3 SHL SWAP1 POP SWAP3 SWAP2 POP POP JUMP JUMPDEST PUSH1 0x0 PUSH1 0x8 DUP4 MUL PUSH3 0x29A PUSH32 0xFFFFFFFFFFFFFFFFFFFFFFFFFFFFFFFFFFFFFFFFFFFFFFFFFFFFFFFFFFFFFFFF DUP3 PUSH3 0x25B JUMP JUMPDEST PUSH3 0x2A6 DUP7 DUP4 PUSH3 0x25B JUMP JUMPDEST SWAP6 POP DUP1 NOT DUP5 AND SWAP4 POP DUP1 DUP7 AND DUP5 OR SWAP3 POP POP POP SWAP4 SWAP3 POP POP POP JUMP JUMPDEST PUSH1 0x0 DUP2 SWAP1 POP SWAP2 SWAP1 POP JUMP JUMPDEST PUSH1 0x0 DUP2 SWAP1 POP SWAP2 SWAP1 POP JUMP JUMPDEST PUSH1 0x0 PUSH3 0x2F3 PUSH3 0x2ED PUSH3 0x2E7 DUP5 PUSH3 0x2BE JUMP JUMPDEST PUSH3 0x2C8 JUMP JUMPDEST PUSH3 0x2BE JUMP JUMPDEST SWAP1 POP SWAP2 SWAP1 POP JUMP JUMPDEST PUSH1 0x0 DUP2 SWAP1 POP SWAP2 SWAP1 POP JUMP JUMPDEST PUSH3 0x30F DUP4 PUSH3 0x2D2 JUMP JUMPDEST PUSH3 0x327 PUSH3 0x31E DUP3 PUSH3 0x2FA JUMP JUMPDEST DUP5 DUP5 SLOAD PUSH3 0x268 JUMP JUMPDEST DUP3 SSTORE POP POP POP POP JUMP JUMPDEST PUSH1 0x0 SWAP1 JUMP JUMPDEST PUSH3 0x33E PUSH3 0x32F JUMP JUMPDEST PUSH3 0x34B DUP2 DUP5 DUP5 PUSH3 0x304 JUMP JUMPDEST POP POP POP JUMP JUMPDEST JUMPDEST DUP2 DUP2 LT ISZERO PUSH3 0x373 JUMPI PUSH3 0x367 PUSH1 0x0 DUP3 PUSH3 0x334 JUMP JUMPDEST PUSH1 0x1 DUP2 ADD SWAP1 POP PUSH3 0x351 JUMP JUMPDEST POP POP JUMP JUMPDEST PUSH1 0x1F DUP3 GT ISZERO PUSH3 0x3C2 JUMPI PUSH3 0x38C DUP2 PUSH3 0x236 JUMP JUMPDEST PUSH3 0x397 DUP5 PUSH3 0x24B JUMP JUMPDEST DUP2 ADD PUSH1 0x20 DUP6 LT ISZERO PUSH3 0x3A7 JUMPI DUP2 SWAP1 POP JUMPDEST PUSH3 0x3BF PUSH3 0x3B6 DUP6 PUSH3 0x24B JUMP JUMPDEST DUP4 ADD DUP3 PUSH3 0x350 JUMP JUMPDEST POP POP JUMPDEST POP POP POP JUMP JUMPDEST PUSH1 0x0 DUP3 DUP3 SHR SWAP1 POP SWAP3 SWAP2 POP POP JUMP JUMPDEST PUSH1 0x0 PUSH3 0x3E7 PUSH1 0x0 NOT DUP5 PUSH1 0x8 MUL PUSH3 0x3C7 JUMP JUMPDEST NOT DUP1 DUP4 AND SWAP2 POP POP SWAP3 SWAP2 POP POP JUMP JUMPDEST PUSH1 0x0 PUSH3 0x402 DUP4 DUP4 PUSH3 0x3D4 JUMP JUMPDEST SWAP2 POP DUP3 PUSH1 0x2 MUL DUP3 OR SWAP1 POP SWAP3 SWAP2 POP POP JUMP JUMPDEST PUSH3 0x41D DUP3 PUSH3 0x198 JUMP JUMPDEST PUSH8 0xFFFFFFFFFFFFFFFF DUP2 GT ISZERO PUSH3 0x439 JUMPI PUSH3 0x438 PUSH3 0x1A3 JUMP JUMPDEST JUMPDEST PUSH3 0x445 DUP3 SLOAD PUSH3 0x201 JUMP JUMPDEST PUSH3 0x452 DUP3 DUP3 DUP6 PUSH3 0x377 JUMP JUMPDEST PUSH1 0x0 PUSH1 0x20 SWAP1 POP PUSH1 0x1F DUP4 GT PUSH1 0x1 DUP2 EQ PUSH3 0x48A JUMPI PUSH1 0x0 DUP5 ISZERO PUSH3 0x475 JUMPI DUP3 DUP8 ADD MLOAD SWAP1 POP JUMPDEST PUSH3 0x481 DUP6 DUP3 PUSH3 0x3F4 JUMP JUMPDEST DUP7 SSTORE POP PUSH3 0x4F1 JUMP JUMPDEST PUSH1 0x1F NOT DUP5 AND PUSH3 0x49A DUP7 PUSH3 0x236 JUMP JUMPDEST PUSH1 0x0 JUMPDEST DUP3 DUP2 LT ISZERO PUSH3 0x4C4 JUMPI DUP5 DUP10 ADD MLOAD DUP3 SSTORE PUSH1 0x1 DUP3 ADD SWAP2 POP PUSH1 0x20 DUP6 ADD SWAP5 POP PUSH1 0x20 DUP2 ADD SWAP1 POP PUSH3 0x49D JUMP JUMPDEST DUP7 DUP4 LT ISZERO PUSH3 0x4E4 JUMPI DUP5 DUP10 ADD MLOAD PUSH3 0x4E0 PUSH1 0x1F DUP10 AND DUP3 PUSH3 0x3D4 JUMP JUMPDEST DUP4 SSTORE POP JUMPDEST PUSH1 0x1 PUSH1 0x2 DUP9 MUL ADD DUP9 SSTORE POP POP POP JUMPDEST POP POP POP POP POP POP JUMP JUMPDEST PUSH2 0x53F0 DUP1 PUSH3 0x509 PUSH1 0x0 CODECOPY PUSH1 0x0 RETURN INVALID PUSH1 0x80 PUSH1 0x40 MSTORE CALLVALUE DUP1 ISZERO PUSH2 0x10 JUMPI PUSH1 0x0 DUP1 REVERT JUMPDEST POP PUSH1 0x4 CALLDATASIZE LT PUSH2 0x137 JUMPI PUSH1 0x0 CALLDATALOAD PUSH1 0xE0 SHR DUP1 PUSH4 0x6352211E GT PUSH2 0xB8 JUMPI DUP1 PUSH4 0x95D89B41 GT PUSH2 0x7C JUMPI DUP1 PUSH4 0x95D89B41 EQ PUSH2 0x34C JUMPI DUP1 PUSH4 0xA22CB465 EQ PUSH2 0x36A JUMPI DUP1 PUSH4 0xB88D4FDE EQ PUSH2 0x386 JUMPI DUP1 PUSH4 0xC87B56DD EQ PUSH2 0x3A2 JUMPI DUP1 PUSH4 0xE985E9C5 EQ PUSH2 0x3D2 JUMPI DUP1 PUSH4 0xF2FDE38B EQ PUSH2 0x402 JUMPI PUSH2 0x137 JUMP JUMPDEST DUP1 PUSH4 0x6352211E EQ PUSH2 0x2A8 JUMPI DUP1 PUSH4 0x70A08231 EQ PUSH2 0x2D8 JUMPI DUP1 PUSH4 0x715018A6 EQ PUSH2 0x308 JUMPI DUP1 PUSH4 0x732C3BC4 EQ PUSH2 0x312 JUMPI DUP1 PUSH4 0x8DA5CB5B EQ PUSH2 0x32E JUMPI PUSH2 0x137 JUMP JUMPDEST DUP1 PUSH4 0x23B872DD GT PUSH2 0xFF JUMPI DUP1 PUSH4 0x23B872DD EQ PUSH2 0x1F4 JUMPI DUP1 PUSH4 0x29880143 EQ PUSH2 0x210 JUMPI DUP1 PUSH4 0x42842E0E EQ PUSH2 0x240 JUMPI DUP1 PUSH4 0x4F9F6FE6 EQ PUSH2 0x25C JUMPI DUP1 PUSH4 0x5F60F8C6 EQ PUSH2 0x28C JUMPI PUSH2 0x137 JUMP JUMPDEST DUP1 PUSH4 0x102A47B EQ PUSH2 0x13C JUMPI DUP1 PUSH4 0x1FFC9A7 EQ PUSH2 0x15A JUMPI DUP1 PUSH4 0x6FDDE03 EQ PUSH2 0x18A JUMPI DUP1 PUSH4 0x81812FC EQ PUSH2 0x1A8 JUMPI DUP1 PUSH4 0x95EA7B3 EQ PUSH2 0x1D8 JUMPI JUMPDEST PUSH1 0x0 DUP1 REVERT JUMPDEST PUSH2 0x144 PUSH2 0x41E JUMP JUMPDEST PUSH1 0x40 MLOAD PUSH2 0x151 SWAP2 SWAP1 PUSH2 0x2FA0 JUMP JUMPDEST PUSH1 0x40 MLOAD DUP1 SWAP2 SUB SWAP1 RETURN JUMPDEST PUSH2 0x174 PUSH1 0x4 DUP1 CALLDATASIZE SUB DUP2 ADD SWAP1 PUSH2 0x16F SWAP2 SWAP1 PUSH2 0x302E JUMP JUMPDEST PUSH2 0xBC8 JUMP JUMPDEST PUSH1 0x40 MLOAD PUSH2 0x181 SWAP2 SWAP1 PUSH2 0x306A JUMP JUMPDEST PUSH1 0x40 MLOAD DUP1 SWAP2 SUB SWAP1 RETURN JUMPDEST PUSH2 0x192 PUSH2 0xCAA JUMP JUMPDEST PUSH1 0x40 MLOAD PUSH2 0x19F SWAP2 SWAP1 PUSH2 0x30CF JUMP JUMPDEST PUSH1 0x40 MLOAD DUP1 SWAP2 SUB SWAP1 RETURN JUMPDEST PUSH2 0x1C2 PUSH1 0x4 DUP1 CALLDATASIZE SUB DUP2 ADD SWAP1 PUSH2 0x1BD SWAP2 SWAP1 PUSH2 0x311D JUMP JUMPDEST PUSH2 0xD3C JUMP JUMPDEST PUSH1 0x40 MLOAD PUSH2 0x1CF SWAP2 SWAP1 PUSH2 0x318B JUMP JUMPDEST PUSH1 0x40 MLOAD DUP1 SWAP2 SUB SWAP1 RETURN JUMPDEST PUSH2 0x1F2 PUSH1 0x4 DUP1 CALLDATASIZE SUB DUP2 ADD SWAP1 PUSH2 0x1ED SWAP2 SWAP1 PUSH2 0x31D2 JUMP JUMPDEST PUSH2 0xD82 JUMP JUMPDEST STOP JUMPDEST PUSH2 0x20E PUSH1 0x4 DUP1 CALLDATASIZE SUB DUP2 ADD SWAP1 PUSH2 0x209 SWAP2 SWAP1 PUSH2 0x3212 JUMP JUMPDEST PUSH2 0xE99 JUMP JUMPDEST STOP JUMPDEST PUSH2 0x22A PUSH1 0x4 DUP1 CALLDATASIZE SUB DUP2 ADD SWAP1 PUSH2 0x225 SWAP2 SWAP1 PUSH2 0x380E JUMP JUMPDEST PUSH2 0xEF9 JUMP JUMPDEST PUSH1 0x40 MLOAD PUSH2 0x237 SWAP2 SWAP1 PUSH2 0x388C JUMP JUMPDEST PUSH1 0x40 MLOAD DUP1 SWAP2 SUB SWAP1 RETURN JUMPDEST PUSH2 0x25A PUSH1 0x4 DUP1 CALLDATASIZE SUB DUP2 ADD SWAP1 PUSH2 0x255 SWAP2 SWAP1 PUSH2 0x3212 JUMP JUMPDEST PUSH2 0x1390 JUMP JUMPDEST STOP JUMPDEST PUSH2 0x276 PUSH1 0x4 DUP1 CALLDATASIZE SUB DUP2 ADD SWAP1 PUSH2 0x271 SWAP2 SWAP1 PUSH2 0x311D JUMP JUMPDEST PUSH2 0x13B0 JUMP JUMPDEST PUSH1 0x40 MLOAD PUSH2 0x283 SWAP2 SWAP1 PUSH2 0x2FA0 JUMP JUMPDEST PUSH1 0x40 MLOAD DUP1 SWAP2 SUB SWAP1 RETURN JUMPDEST PUSH2 0x2A6 PUSH1 0x4 DUP1 CALLDATASIZE SUB DUP2 ADD SWAP1 PUSH2 0x2A1 SWAP2 SWAP1 PUSH2 0x38CC JUMP JUMPDEST PUSH2 0x13BD JUMP JUMPDEST STOP JUMPDEST PUSH2 0x2C2 PUSH1 0x4 DUP1 CALLDATASIZE SUB DUP2 ADD SWAP1 PUSH2 0x2BD SWAP2 SWAP1 PUSH2 0x311D JUMP JUMPDEST PUSH2 0x1447 JUMP JUMPDEST PUSH1 0x40 MLOAD PUSH2 0x2CF SWAP2 SWAP1 PUSH2 0x318B JUMP JUMPDEST PUSH1 0x40 MLOAD DUP1 SWAP2 SUB SWAP1 RETURN JUMPDEST PUSH2 0x2F2 PUSH1 0x4 DUP1 CALLDATASIZE SUB DUP2 ADD SWAP1 PUSH2 0x2ED SWAP2 SWAP1 PUSH2 0x3928 JUMP JUMPDEST PUSH2 0x14CD JUMP JUMPDEST PUSH1 0x40 MLOAD PUSH2 0x2FF SWAP2 SWAP1 PUSH2 0x388C JUMP JUMPDEST PUSH1 0x40 MLOAD DUP1 SWAP2 SUB SWAP1 RETURN JUMPDEST PUSH2 0x310 PUSH2 0x1584 JUMP JUMPDEST STOP JUMPDEST PUSH2 0x32C PUSH1 0x4 DUP1 CALLDATASIZE SUB DUP2 ADD SWAP1 PUSH2 0x327 SWAP2 SWAP1 PUSH2 0x38CC JUMP JUMPDEST PUSH2 0x1598 JUMP JUMPDEST STOP JUMPDEST PUSH2 0x336 PUSH2 0x1622 JUMP JUMPDEST PUSH1 0x40 MLOAD PUSH2 0x343 SWAP2 SWAP1 PUSH2 0x318B JUMP JUMPDEST PUSH1 0x40 MLOAD DUP1 SWAP2 SUB SWAP1 RETURN JUMPDEST PUSH2 0x354 PUSH2 0x164C JUMP JUMPDEST PUSH1 0x40 MLOAD PUSH2 0x361 SWAP2 SWAP1 PUSH2 0x30CF JUMP JUMPDEST PUSH1 0x40 MLOAD DUP1 SWAP2 SUB SWAP1 RETURN JUMPDEST PUSH2 0x384 PUSH1 0x4 DUP1 CALLDATASIZE SUB DUP2 ADD SWAP1 PUSH2 0x37F SWAP2 SWAP1 PUSH2 0x3955 JUMP JUMPDEST PUSH2 0x16DE JUMP JUMPDEST STOP JUMPDEST PUSH2 0x3A0 PUSH1 0x4 DUP1 CALLDATASIZE SUB DUP2 ADD SWAP1 PUSH2 0x39B SWAP2 SWAP1 PUSH2 0x3A36 JUMP JUMPDEST PUSH2 0x16F4 JUMP JUMPDEST STOP JUMPDEST PUSH2 0x3BC PUSH1 0x4 DUP1 CALLDATASIZE SUB DUP2 ADD SWAP1 PUSH2 0x3B7 SWAP2 SWAP1 PUSH2 0x311D JUMP JUMPDEST PUSH2 0x1756 JUMP JUMPDEST PUSH1 0x40 MLOAD PUSH2 0x3C9 SWAP2 SWAP1 PUSH2 0x30CF JUMP JUMPDEST PUSH1 0x40 MLOAD DUP1 SWAP2 SUB SWAP1 RETURN JUMPDEST PUSH2 0x3EC PUSH1 0x4 DUP1 CALLDATASIZE SUB DUP2 ADD SWAP1 PUSH2 0x3E7 SWAP2 SWAP1 PUSH2 0x3AB9 JUMP JUMPDEST PUSH2 0x1768 JUMP JUMPDEST PUSH1 0x40 MLOAD PUSH2 0x3F9 SWAP2 SWAP1 PUSH2 0x306A JUMP JUMPDEST PUSH1 0x40 MLOAD DUP1 SWAP2 SUB SWAP1 RETURN JUMPDEST PUSH2 0x41C PUSH1 0x4 DUP1 CALLDATASIZE SUB DUP2 ADD SWAP1 PUSH2 0x417 SWAP2 SWAP1 PUSH2 0x3928 JUMP JUMPDEST PUSH2 0x17FC JUMP JUMPDEST STOP JUMPDEST PUSH2 0x426 PUSH2 0x2A72 JUMP JUMPDEST PUSH1 0x9 PUSH1 0x0 CALLER PUSH20 0xFFFFFFFFFFFFFFFFFFFFFFFFFFFFFFFFFFFFFFFF AND PUSH20 0xFFFFFFFFFFFFFFFFFFFFFFFFFFFFFFFFFFFFFFFF AND DUP2 MSTORE PUSH1 0x20 ADD SWAP1 DUP2 MSTORE PUSH1 0x20 ADD PUSH1 0x0 KECCAK256 PUSH1 0x40 MLOAD DUP1 PUSH2 0x400 ADD PUSH1 0x40 MSTORE SWAP1 DUP2 PUSH1 0x0 DUP3 ADD DUP1 SLOAD PUSH2 0x481 SWAP1 PUSH2 0x3B28 JUMP JUMPDEST DUP1 PUSH1 0x1F ADD PUSH1 0x20 DUP1 SWAP2 DIV MUL PUSH1 0x20 ADD PUSH1 0x40 MLOAD SWAP1 DUP2 ADD PUSH1 0x40 MSTORE DUP1 SWAP3 SWAP2 SWAP1 DUP2 DUP2 MSTORE PUSH1 0x20 ADD DUP3 DUP1 SLOAD PUSH2 0x4AD SWAP1 PUSH2 0x3B28 JUMP JUMPDEST DUP1 ISZERO PUSH2 0x4FA JUMPI DUP1 PUSH1 0x1F LT PUSH2 0x4CF JUMPI PUSH2 0x100 DUP1 DUP4 SLOAD DIV MUL DUP4 MSTORE SWAP2 PUSH1 0x20 ADD SWAP2 PUSH2 0x4FA JUMP JUMPDEST DUP3 ADD SWAP2 SWAP1 PUSH1 0x0 MSTORE PUSH1 0x20 PUSH1 0x0 KECCAK256 SWAP1 JUMPDEST DUP2 SLOAD DUP2 MSTORE SWAP1 PUSH1 0x1 ADD SWAP1 PUSH1 0x20 ADD DUP1 DUP4 GT PUSH2 0x4DD JUMPI DUP3 SWAP1 SUB PUSH1 0x1F AND DUP3 ADD SWAP2 JUMPDEST POP POP POP POP POP DUP2 MSTORE PUSH1 0x20 ADD PUSH1 0x1 DUP3 ADD DUP1 SLOAD PUSH2 0x513 SWAP1 PUSH2 0x3B28 JUMP JUMPDEST DUP1 PUSH1 0x1F ADD PUSH1 0x20 DUP1 SWAP2 DIV MUL PUSH1 0x20 ADD PUSH1 0x40 MLOAD SWAP1 DUP2 ADD PUSH1 0x40 MSTORE DUP1 SWAP3 SWAP2 SWAP1 DUP2 DUP2 MSTORE PUSH1 0x20 ADD DUP3 DUP1 SLOAD PUSH2 0x53F SWAP1 PUSH2 0x3B28 JUMP JUMPDEST DUP1 ISZERO PUSH2 0x58C JUMPI DUP1 PUSH1 0x1F LT PUSH2 0x561 JUMPI PUSH2 0x100 DUP1 DUP4 SLOAD DIV MUL DUP4 MSTORE SWAP2 PUSH1 0x20 ADD SWAP2 PUSH2 0x58C JUMP JUMPDEST DUP3 ADD SWAP2 SWAP1 PUSH1 0x0 MSTORE PUSH1 0x20 PUSH1 0x0 KECCAK256 SWAP1 JUMPDEST DUP2 SLOAD DUP2 MSTORE SWAP1 PUSH1 0x1 ADD SWAP1 PUSH1 0x20 ADD DUP1 DUP4 GT PUSH2 0x56F JUMPI DUP3 SWAP1 SUB PUSH1 0x1F AND DUP3 ADD SWAP2 JUMPDEST POP POP POP POP POP DUP2 MSTORE PUSH1 0x20 ADD PUSH1 0x2 DUP3 ADD PUSH1 0x0 SWAP1 SLOAD SWAP1 PUSH2 0x100 EXP SWAP1 DIV PUSH2 0xFFFF AND PUSH2 0xFFFF AND PUSH2 0xFFFF AND DUP2 MSTORE PUSH1 0x20 ADD PUSH1 0x2 DUP3 ADD PUSH1 0x2 SWAP1 SLOAD SWAP1 PUSH2 0x100 EXP SWAP1 DIV PUSH1 0xFF AND PUSH1 0xFF AND PUSH1 0xFF AND DUP2 MSTORE PUSH1 0x20 ADD PUSH1 0x2 DUP3 ADD PUSH1 0x3 SWAP1 SLOAD SWAP1 PUSH2 0x100 EXP SWAP1 DIV PUSH1 0xFF AND PUSH1 0xFF AND PUSH1 0xFF AND DUP2 MSTORE PUSH1 0x20 ADD PUSH1 0x2 DUP3 ADD PUSH1 0x4 SWAP1 SLOAD SWAP1 PUSH2 0x100 EXP SWAP1 DIV PUSH2 0xFFFF AND PUSH2 0xFFFF AND PUSH2 0xFFFF AND DUP2 MSTORE PUSH1 0x20 ADD PUSH1 0x2 DUP3 ADD PUSH1 0x6 SWAP1 SLOAD SWAP1 PUSH2 0x100 EXP SWAP1 DIV PUSH1 0xFF AND PUSH1 0xFF AND PUSH1 0xFF AND DUP2 MSTORE PUSH1 0x20 ADD PUSH1 0x2 DUP3 ADD PUSH1 0x7 SWAP1 SLOAD SWAP1 PUSH2 0x100 EXP SWAP1 DIV PUSH1 0xFF AND PUSH1 0xFF AND PUSH1 0xFF AND DUP2 MSTORE PUSH1 0x20 ADD PUSH1 0x3 DUP3 ADD DUP1 SLOAD PUSH2 0x659 SWAP1 PUSH2 0x3B28 JUMP JUMPDEST DUP1 PUSH1 0x1F ADD PUSH1 0x20 DUP1 SWAP2 DIV MUL PUSH1 0x20 ADD PUSH1 0x40 MLOAD SWAP1 DUP2 ADD PUSH1 0x40 MSTORE DUP1 SWAP3 SWAP2 SWAP1 DUP2 DUP2 MSTORE PUSH1 0x20 ADD DUP3 DUP1 SLOAD PUSH2 0x685 SWAP1 PUSH2 0x3B28 JUMP JUMPDEST DUP1 ISZERO PUSH2 0x6D2 JUMPI DUP1 PUSH1 0x1F LT PUSH2 0x6A7 JUMPI PUSH2 0x100 DUP1 DUP4 SLOAD DIV MUL DUP4 MSTORE SWAP2 PUSH1 0x20 ADD SWAP2 PUSH2 0x6D2 JUMP JUMPDEST DUP3 ADD SWAP2 SWAP1 PUSH1 0x0 MSTORE PUSH1 0x20 PUSH1 0x0 KECCAK256 SWAP1 JUMPDEST DUP2 SLOAD DUP2 MSTORE SWAP1 PUSH1 0x1 ADD SWAP1 PUSH1 0x20 ADD DUP1 DUP4 GT PUSH2 0x6B5 JUMPI DUP3 SWAP1 SUB PUSH1 0x1F AND DUP3 ADD SWAP2 JUMPDEST POP POP POP POP POP DUP2 MSTORE PUSH1 0x20 ADD PUSH1 0x4 DUP3 ADD DUP1 SLOAD PUSH2 0x6EB SWAP1 PUSH2 0x3B28 JUMP JUMPDEST DUP1 PUSH1 0x1F ADD PUSH1 0x20 DUP1 SWAP2 DIV MUL PUSH1 0x20 ADD PUSH1 0x40 MLOAD SWAP1 DUP2 ADD PUSH1 0x40 MSTORE DUP1 SWAP3 SWAP2 SWAP1 DUP2 DUP2 MSTORE PUSH1 0x20 ADD DUP3 DUP1 SLOAD PUSH2 0x717 SWAP1 PUSH2 0x3B28 JUMP JUMPDEST DUP1 ISZERO PUSH2 0x764 JUMPI DUP1 PUSH1 0x1F LT PUSH2 0x739 JUMPI PUSH2 0x100 DUP1 DUP4 SLOAD DIV MUL DUP4 MSTORE SWAP2 PUSH1 0x20 ADD SWAP2 PUSH2 0x764 JUMP JUMPDEST DUP3 ADD SWAP2 SWAP1 PUSH1 0x0 MSTORE PUSH1 0x20 PUSH1 0x0 KECCAK256 SWAP1 JUMPDEST DUP2 SLOAD DUP2 MSTORE SWAP1 PUSH1 0x1 ADD SWAP1 PUSH1 0x20 ADD DUP1 DUP4 GT PUSH2 0x747 JUMPI DUP3 SWAP1 SUB PUSH1 0x1F AND DUP3 ADD SWAP2 JUMPDEST POP POP POP POP POP DUP2 MSTORE PUSH1 0x20 ADD PUSH1 0x5 DUP3 ADD PUSH1 0x0 SWAP1 SLOAD SWAP1 PUSH2 0x100 EXP SWAP1 DIV PUSH2 0xFFFF AND PUSH2 0xFFFF AND PUSH2 0xFFFF AND DUP2 MSTORE PUSH1 0x20 ADD PUSH1 0x5 DUP3 ADD PUSH1 0x2 SWAP1 SLOAD SWAP1 PUSH2 0x100 EXP SWAP1 DIV PUSH2 0xFFFF AND PUSH2 0xFFFF AND PUSH2 0xFFFF AND DUP2 MSTORE PUSH1 0x20 ADD PUSH1 0x5 DUP3 ADD PUSH1 0x4 SWAP1 SLOAD SWAP1 PUSH2 0x100 EXP SWAP1 DIV PUSH2 0xFFFF AND PUSH2 0xFFFF AND PUSH2 0xFFFF AND DUP2 MSTORE PUSH1 0x20 ADD PUSH1 0x5 DUP3 ADD PUSH1 0x6 SWAP1 SLOAD SWAP1 PUSH2 0x100 EXP SWAP1 DIV PUSH2 0xFFFF AND PUSH2 0xFFFF AND PUSH2 0xFFFF AND DUP2 MSTORE PUSH1 0x20 ADD PUSH1 0x5 DUP3 ADD PUSH1 0x8 SWAP1 SLOAD SWAP1 PUSH2 0x100 EXP SWAP1 DIV PUSH1 0xFF AND PUSH1 0xFF AND PUSH1 0xFF AND DUP2 MSTORE PUSH1 0x20 ADD PUSH1 0x6 DUP3 ADD DUP1 SLOAD PUSH2 0x81A SWAP1 PUSH2 0x3B28 JUMP JUMPDEST DUP1 PUSH1 0x1F ADD PUSH1 0x20 DUP1 SWAP2 DIV MUL PUSH1 0x20 ADD PUSH1 0x40 MLOAD SWAP1 DUP2 ADD PUSH1 0x40 MSTORE DUP1 SWAP3 SWAP2 SWAP1 DUP2 DUP2 MSTORE PUSH1 0x20 ADD DUP3 DUP1 SLOAD PUSH2 0x846 SWAP1 PUSH2 0x3B28 JUMP JUMPDEST DUP1 ISZERO PUSH2 0x893 JUMPI DUP1 PUSH1 0x1F LT PUSH2 0x868 JUMPI PUSH2 0x100 DUP1 DUP4 SLOAD DIV MUL DUP4 MSTORE SWAP2 PUSH1 0x20 ADD SWAP2 PUSH2 0x893 JUMP JUMPDEST DUP3 ADD SWAP2 SWAP1 PUSH1 0x0 MSTORE PUSH1 0x20 PUSH1 0x0 KECCAK256 SWAP1 JUMPDEST DUP2 SLOAD DUP2 MSTORE SWAP1 PUSH1 0x1 ADD SWAP1 PUSH1 0x20 ADD DUP1 DUP4 GT PUSH2 0x876 JUMPI DUP3 SWAP1 SUB PUSH1 0x1F AND DUP3 ADD SWAP2 JUMPDEST POP POP POP POP POP DUP2 MSTORE PUSH1 0x20 ADD PUSH1 0x7 DUP3 ADD PUSH1 0x0 SWAP1 SLOAD SWAP1 PUSH2 0x100 EXP SWAP1 DIV PUSH1 0xFF AND PUSH1 0xFF AND PUSH1 0xFF AND DUP2 MSTORE PUSH1 0x20 ADD PUSH1 0x7 DUP3 ADD PUSH1 0x1 SWAP1 SLOAD SWAP1 PUSH2 0x100 EXP SWAP1 DIV PUSH4 0xFFFFFFFF AND PUSH4 0xFFFFFFFF AND PUSH4 0xFFFFFFFF AND DUP2 MSTORE PUSH1 0x20 ADD PUSH1 0x7 DUP3 ADD PUSH1 0x5 SWAP1 SLOAD SWAP1 PUSH2 0x100 EXP SWAP1 DIV PUSH1 0xFF AND ISZERO ISZERO ISZERO ISZERO DUP2 MSTORE PUSH1 0x20 ADD PUSH1 0x7 DUP3 ADD PUSH1 0x6 SWAP1 SLOAD SWAP1 PUSH2 0x100 EXP SWAP1 DIV PUSH4 0xFFFFFFFF AND PUSH4 0xFFFFFFFF AND PUSH4 0xFFFFFFFF AND DUP2 MSTORE PUSH1 0x20 ADD PUSH1 0x7 DUP3 ADD PUSH1 0xA SWAP1 SLOAD SWAP1 PUSH2 0x100 EXP SWAP1 DIV PUSH1 0xFF AND ISZERO ISZERO ISZERO ISZERO DUP2 MSTORE PUSH1 0x20 ADD PUSH1 0x7 DUP3 ADD PUSH1 0xB SWAP1 SLOAD SWAP1 PUSH2 0x100 EXP SWAP1 DIV PUSH4 0xFFFFFFFF AND PUSH4 0xFFFFFFFF AND PUSH4 0xFFFFFFFF AND DUP2 MSTORE PUSH1 0x20 ADD PUSH1 0x7 DUP3 ADD PUSH1 0xF SWAP1 SLOAD SWAP1 PUSH2 0x100 EXP SWAP1 DIV PUSH1 0xFF AND ISZERO ISZERO ISZERO ISZERO DUP2 MSTORE PUSH1 0x20 ADD PUSH1 0x8 DUP3 ADD DUP1 SLOAD PUSH2 0x98C SWAP1 PUSH2 0x3B28 JUMP JUMPDEST DUP1 PUSH1 0x1F ADD PUSH1 0x20 DUP1 SWAP2 DIV MUL PUSH1 0x20 ADD PUSH1 0x40 MLOAD SWAP1 DUP2 ADD PUSH1 0x40 MSTORE DUP1 SWAP3 SWAP2 SWAP1 DUP2 DUP2 MSTORE PUSH1 0x20 ADD DUP3 DUP1 SLOAD PUSH2 0x9B8 SWAP1 PUSH2 0x3B28 JUMP JUMPDEST DUP1 ISZERO PUSH2 0xA05 JUMPI DUP1 PUSH1 0x1F LT PUSH2 0x9DA JUMPI PUSH2 0x100 DUP1 DUP4 SLOAD DIV MUL DUP4 MSTORE SWAP2 PUSH1 0x20 ADD SWAP2 PUSH2 0xA05 JUMP JUMPDEST DUP3 ADD SWAP2 SWAP1 PUSH1 0x0 MSTORE PUSH1 0x20 PUSH1 0x0 KECCAK256 SWAP1 JUMPDEST DUP2 SLOAD DUP2 MSTORE SWAP1 PUSH1 0x1 ADD SWAP1 PUSH1 0x20 ADD DUP1 DUP4 GT PUSH2 0x9E8 JUMPI DUP3 SWAP1 SUB PUSH1 0x1F AND DUP3 ADD SWAP2 JUMPDEST POP POP POP POP POP DUP2 MSTORE PUSH1 0x20 ADD PUSH1 0x9 DUP3 ADD PUSH1 0x0 SWAP1 SLOAD SWAP1 PUSH2 0x100 EXP SWAP1 DIV PUSH1 0xFF AND ISZERO ISZERO ISZERO ISZERO DUP2 MSTORE PUSH1 0x20 ADD PUSH1 0x9 DUP3 ADD PUSH1 0x1 SWAP1 SLOAD SWAP1 PUSH2 0x100 EXP SWAP1 DIV PUSH1 0xFF AND ISZERO ISZERO ISZERO ISZERO DUP2 MSTORE PUSH1 0x20 ADD PUSH1 0x9 DUP3 ADD PUSH1 0x2 SWAP1 SLOAD SWAP1 PUSH2 0x100 EXP SWAP1 DIV PUSH1 0xFF AND ISZERO ISZERO ISZERO ISZERO DUP2 MSTORE PUSH1 0x20 ADD PUSH1 0x9 DUP3 ADD PUSH1 0x3 SWAP1 SLOAD SWAP1 PUSH2 0x100 EXP SWAP1 DIV PUSH1 0xFF AND ISZERO ISZERO ISZERO ISZERO DUP2 MSTORE PUSH1 0x20 ADD PUSH1 0x9 DUP3 ADD PUSH1 0x4 SWAP1 SLOAD SWAP1 PUSH2 0x100 EXP SWAP1 DIV PUSH1 0xFF AND ISZERO ISZERO ISZERO ISZERO DUP2 MSTORE PUSH1 0x20 ADD PUSH1 0xA DUP3 ADD SLOAD DUP2 MSTORE PUSH1 0x20 ADD PUSH1 0xB DUP3 ADD DUP1 SLOAD PUSH2 0xAAF SWAP1 PUSH2 0x3B28 JUMP JUMPDEST DUP1 PUSH1 0x1F ADD PUSH1 0x20 DUP1 SWAP2 DIV MUL PUSH1 0x20 ADD PUSH1 0x40 MLOAD SWAP1 DUP2 ADD PUSH1 0x40 MSTORE DUP1 SWAP3 SWAP2 SWAP1 DUP2 DUP2 MSTORE PUSH1 0x20 ADD DUP3 DUP1 SLOAD PUSH2 0xADB SWAP1 PUSH2 0x3B28 JUMP JUMPDEST DUP1 ISZERO PUSH2 0xB28 JUMPI DUP1 PUSH1 0x1F LT PUSH2 0xAFD JUMPI PUSH2 0x100 DUP1 DUP4 SLOAD DIV MUL DUP4 MSTORE SWAP2 PUSH1 0x20 ADD SWAP2 PUSH2 0xB28 JUMP JUMPDEST DUP3 ADD SWAP2 SWAP1 PUSH1 0x0 MSTORE PUSH1 0x20 PUSH1 0x0 KECCAK256 SWAP1 JUMPDEST DUP2 SLOAD DUP2 MSTORE SWAP1 PUSH1 0x1 ADD SWAP1 PUSH1 0x20 ADD DUP1 DUP4 GT PUSH2 0xB0B JUMPI DUP3 SWAP1 SUB PUSH1 0x1F AND DUP3 ADD SWAP2 JUMPDEST POP POP POP POP POP DUP2 MSTORE PUSH1 0x20 ADD PUSH1 0xC DUP3 ADD DUP1 SLOAD PUSH2 0xB41 SWAP1 PUSH2 0x3B28 JUMP JUMPDEST DUP1 PUSH1 0x1F ADD PUSH1 0x20 DUP1 SWAP2 DIV MUL PUSH1 0x20 ADD PUSH1 0x40 MLOAD SWAP1 DUP2 ADD PUSH1 0x40 MSTORE DUP1 SWAP3 SWAP2 SWAP1 DUP2 DUP2 MSTORE PUSH1 0x20 ADD DUP3 DUP1 SLOAD PUSH2 0xB6D SWAP1 PUSH2 0x3B28 JUMP JUMPDEST DUP1 ISZERO PUSH2 0xBBA JUMPI DUP1 PUSH1 0x1F LT PUSH2 0xB8F JUMPI PUSH2 0x100 DUP1 DUP4 SLOAD DIV MUL DUP4 MSTORE SWAP2 PUSH1 0x20 ADD SWAP2 PUSH2 0xBBA JUMP JUMPDEST DUP3 ADD SWAP2 SWAP1 PUSH1 0x0 MSTORE PUSH1 0x20 PUSH1 0x0 KECCAK256 SWAP1 JUMPDEST DUP2 SLOAD DUP2 MSTORE SWAP1 PUSH1 0x1 ADD SWAP1 PUSH1 0x20 ADD DUP1 DUP4 GT PUSH2 0xB9D JUMPI DUP3 SWAP1 SUB PUSH1 0x1F AND DUP3 ADD SWAP2 JUMPDEST POP POP POP POP POP DUP2 MSTORE POP POP SWAP1 POP SWAP1 JUMP JUMPDEST PUSH1 0x0 PUSH32 0x80AC58CD00000000000000000000000000000000000000000000000000000000 PUSH28 0xFFFFFFFFFFFFFFFFFFFFFFFFFFFFFFFFFFFFFFFFFFFFFFFFFFFFFFFF NOT AND DUP3 PUSH28 0xFFFFFFFFFFFFFFFFFFFFFFFFFFFFFFFFFFFFFFFFFFFFFFFFFFFFFFFF NOT AND EQ DUP1 PUSH2 0xC93 JUMPI POP PUSH32 0x5B5E139F00000000000000000000000000000000000000000000000000000000 PUSH28 0xFFFFFFFFFFFFFFFFFFFFFFFFFFFFFFFFFFFFFFFFFFFFFFFFFFFFFFFF NOT AND DUP3 PUSH28 0xFFFFFFFFFFFFFFFFFFFFFFFFFFFFFFFFFFFFFFFFFFFFFFFFFFFFFFFF NOT AND EQ JUMPDEST DUP1 PUSH2 0xCA3 JUMPI POP PUSH2 0xCA2 DUP3 PUSH2 0x187F JUMP JUMPDEST JUMPDEST SWAP1 POP SWAP2 SWAP1 POP JUMP JUMPDEST PUSH1 0x60 PUSH1 0x0 DUP1 SLOAD PUSH2 0xCB9 SWAP1 PUSH2 0x3B28 JUMP JUMPDEST DUP1 PUSH1 0x1F ADD PUSH1 0x20 DUP1 SWAP2 DIV MUL PUSH1 0x20 ADD PUSH1 0x40 MLOAD SWAP1 DUP2 ADD PUSH1 0x40 MSTORE DUP1 SWAP3 SWAP2 SWAP1 DUP2 DUP2 MSTORE PUSH1 0x20 ADD DUP3 DUP1 SLOAD PUSH2 0xCE5 SWAP1 PUSH2 0x3B28 JUMP JUMPDEST DUP1 ISZERO PUSH2 0xD32 JUMPI DUP1 PUSH1 0x1F LT PUSH2 0xD07 JUMPI PUSH2 0x100 DUP1 DUP4 SLOAD DIV MUL DUP4 MSTORE SWAP2 PUSH1 0x20 ADD SWAP2 PUSH2 0xD32 JUMP JUMPDEST DUP3 ADD SWAP2 SWAP1 PUSH1 0x0 MSTORE PUSH1 0x20 PUSH1 0x0 KECCAK256 SWAP1 JUMPDEST DUP2 SLOAD DUP2 MSTORE SWAP1 PUSH1 0x1 ADD SWAP1 PUSH1 0x20 ADD DUP1 DUP4 GT PUSH2 0xD15 JUMPI DUP3 SWAP1 SUB PUSH1 0x1F AND DUP3 ADD SWAP2 JUMPDEST POP POP POP POP POP SWAP1 POP SWAP1 JUMP JUMPDEST PUSH1 0x0 PUSH2 0xD47 DUP3 PUSH2 0x18E0 JUMP JUMPDEST PUSH1 0x4 PUSH1 0x0 DUP4 DUP2 MSTORE PUSH1 0x20 ADD SWAP1 DUP2 MSTORE PUSH1 0x20 ADD PUSH1 0x0 KECCAK256 PUSH1 0x0 SWAP1 SLOAD SWAP1 PUSH2 0x100 EXP SWAP1 DIV PUSH20 0xFFFFFFFFFFFFFFFFFFFFFFFFFFFFFFFFFFFFFFFF AND SWAP1 POP SWAP2 SWAP1 POP JUMP JUMPDEST PUSH1 0x0 PUSH2 0xD8D DUP3 PUSH2 0x1447 JUMP JUMPDEST SWAP1 POP DUP1 PUSH20 0xFFFFFFFFFFFFFFFFFFFFFFFFFFFFFFFFFFFFFFFF AND DUP4 PUSH20 0xFFFFFFFFFFFFFFFFFFFFFFFFFFFFFFFFFFFFFFFF AND SUB PUSH2 0xDFD JUMPI PUSH1 0x40 MLOAD PUSH32 0x8C379A000000000000000000000000000000000000000000000000000000000 DUP2 MSTORE PUSH1 0x4 ADD PUSH2 0xDF4 SWAP1 PUSH2 0x3BCB JUMP JUMPDEST PUSH1 0x40 MLOAD DUP1 SWAP2 SUB SWAP1 REVERT JUMPDEST DUP1 PUSH20 0xFFFFFFFFFFFFFFFFFFFFFFFFFFFFFFFFFFFFFFFF AND PUSH2 0xE1C PUSH2 0x192B JUMP JUMPDEST PUSH20 0xFFFFFFFFFFFFFFFFFFFFFFFFFFFFFFFFFFFFFFFF AND EQ DUP1 PUSH2 0xE4B JUMPI POP PUSH2 0xE4A DUP2 PUSH2 0xE45 PUSH2 0x192B JUMP JUMPDEST PUSH2 0x1768 JUMP JUMPDEST JUMPDEST PUSH2 0xE8A JUMPI PUSH1 0x40 MLOAD PUSH32 0x8C379A000000000000000000000000000000000000000000000000000000000 DUP2 MSTORE PUSH1 0x4 ADD PUSH2 0xE81 SWAP1 PUSH2 0x3C5D JUMP JUMPDEST PUSH1 0x40 MLOAD DUP1 SWAP2 SUB SWAP1 REVERT JUMPDEST PUSH2 0xE94 DUP4 DUP4 PUSH2 0x1933 JUMP JUMPDEST POP POP POP JUMP JUMPDEST PUSH2 0xEAA PUSH2 0xEA4 PUSH2 0x192B JUMP JUMPDEST DUP3 PUSH2 0x19EC JUMP JUMPDEST PUSH2 0xEE9 JUMPI PUSH1 0x40 MLOAD PUSH32 0x8C379A000000000000000000000000000000000000000000000000000000000 DUP2 MSTORE PUSH1 0x4 ADD PUSH2 0xEE0 SWAP1 PUSH2 0x3CEF JUMP JUMPDEST PUSH1 0x40 MLOAD DUP1 SWAP2 SUB SWAP1 REVERT JUMPDEST PUSH2 0xEF4 DUP4 DUP4 DUP4 PUSH2 0x1A81 JUMP JUMPDEST POP POP POP JUMP JUMPDEST PUSH1 0x0 PUSH2 0xF05 PUSH1 0x8 PUSH2 0x1D7A JUMP JUMPDEST PUSH1 0x0 PUSH2 0xF11 PUSH1 0x8 PUSH2 0x1D90 JUMP JUMPDEST SWAP1 POP PUSH2 0xF1D DUP6 DUP3 PUSH2 0x1D9E JUMP JUMPDEST DUP3 PUSH1 0xB PUSH1 0x0 DUP4 DUP2 MSTORE PUSH1 0x20 ADD SWAP1 DUP2 MSTORE PUSH1 0x20 ADD PUSH1 0x0 KECCAK256 PUSH1 0x0 DUP3 ADD MLOAD DUP2 PUSH1 0x0 ADD SWAP1 DUP2 PUSH2 0xF46 SWAP2 SWAP1 PUSH2 0x3EBB JUMP JUMPDEST POP PUSH1 0x20 DUP3 ADD MLOAD DUP2 PUSH1 0x1 ADD SWAP1 DUP2 PUSH2 0xF5C SWAP2 SWAP1 PUSH2 0x3EBB JUMP JUMPDEST POP PUSH1 0x40 DUP3 ADD MLOAD DUP2 PUSH1 0x2 ADD PUSH1 0x0 PUSH2 0x100 EXP DUP2 SLOAD DUP2 PUSH2 0xFFFF MUL NOT AND SWAP1 DUP4 PUSH2 0xFFFF AND MUL OR SWAP1 SSTORE POP PUSH1 0x60 DUP3 ADD MLOAD DUP2 PUSH1 0x2 ADD PUSH1 0x2 PUSH2 0x100 EXP DUP2 SLOAD DUP2 PUSH1 0xFF MUL NOT AND SWAP1 DUP4 PUSH1 0xFF AND MUL OR SWAP1 SSTORE POP PUSH1 0x80 DUP3 ADD MLOAD DUP2 PUSH1 0x2 ADD PUSH1 0x3 PUSH2 0x100 EXP DUP2 SLOAD DUP2 PUSH1 0xFF MUL NOT AND SWAP1 DUP4 PUSH1 0xFF AND MUL OR SWAP1 SSTORE POP PUSH1 0xA0 DUP3 ADD MLOAD DUP2 PUSH1 0x2 ADD PUSH1 0x4 PUSH2 0x100 EXP DUP2 SLOAD DUP2 PUSH2 0xFFFF MUL NOT AND SWAP1 DUP4 PUSH2 0xFFFF AND MUL OR SWAP1 SSTORE POP PUSH1 0xC0 DUP3 ADD MLOAD DUP2 PUSH1 0x2 ADD PUSH1 0x6 PUSH2 0x100 EXP DUP2 SLOAD DUP2 PUSH1 0xFF MUL NOT AND SWAP1 DUP4 PUSH1 0xFF AND MUL OR SWAP1 SSTORE POP PUSH1 0xE0 DUP3 ADD MLOAD DUP2 PUSH1 0x2 ADD PUSH1 0x7 PUSH2 0x100 EXP DUP2 SLOAD DUP2 PUSH1 0xFF MUL NOT AND SWAP1 DUP4 PUSH1 0xFF AND MUL OR SWAP1 SSTORE POP PUSH2 0x100 DUP3 ADD MLOAD DUP2 PUSH1 0x3 ADD SWAP1 DUP2 PUSH2 0x103D SWAP2 SWAP1 PUSH2 0x3EBB JUMP JUMPDEST POP PUSH2 0x120 DUP3 ADD MLOAD DUP2 PUSH1 0x4 ADD SWAP1 DUP2 PUSH2 0x1054 SWAP2 SWAP1 PUSH2 0x3EBB JUMP JUMPDEST POP PUSH2 0x140 DUP3 ADD MLOAD DUP2 PUSH1 0x5 ADD PUSH1 0x0 PUSH2 0x100 EXP DUP2 SLOAD DUP2 PUSH2 0xFFFF MUL NOT AND SWAP1 DUP4 PUSH2 0xFFFF AND MUL OR SWAP1 SSTORE POP PUSH2 0x160 DUP3 ADD MLOAD DUP2 PUSH1 0x5 ADD PUSH1 0x2 PUSH2 0x100 EXP DUP2 SLOAD DUP2 PUSH2 0xFFFF MUL NOT AND SWAP1 DUP4 PUSH2 0xFFFF AND MUL OR SWAP1 SSTORE POP PUSH2 0x180 DUP3 ADD MLOAD DUP2 PUSH1 0x5 ADD PUSH1 0x4 PUSH2 0x100 EXP DUP2 SLOAD DUP2 PUSH2 0xFFFF MUL NOT AND SWAP1 DUP4 PUSH2 0xFFFF AND MUL OR SWAP1 SSTORE POP PUSH2 0x1A0 DUP3 ADD MLOAD DUP2 PUSH1 0x5 ADD PUSH1 0x6 PUSH2 0x100 EXP DUP2 SLOAD DUP2 PUSH2 0xFFFF MUL NOT AND SWAP1 DUP4 PUSH2 0xFFFF AND MUL OR SWAP1 SSTORE POP PUSH2 0x1C0 DUP3 ADD MLOAD DUP2 PUSH1 0x5 ADD PUSH1 0x8 PUSH2 0x100 EXP DUP2 SLOAD DUP2 PUSH1 0xFF MUL NOT AND SWAP1 DUP4 PUSH1 0xFF AND MUL OR SWAP1 SSTORE POP PUSH2 0x1E0 DUP3 ADD MLOAD DUP2 PUSH1 0x6 ADD SWAP1 DUP2 PUSH2 0x111D SWAP2 SWAP1 PUSH2 0x3EBB JUMP JUMPDEST POP PUSH2 0x200 DUP3 ADD MLOAD DUP2 PUSH1 0x7 ADD PUSH1 0x0 PUSH2 0x100 EXP DUP2 SLOAD DUP2 PUSH1 0xFF MUL NOT AND SWAP1 DUP4 PUSH1 0xFF AND MUL OR SWAP1 SSTORE POP PUSH2 0x220 DUP3 ADD MLOAD DUP2 PUSH1 0x7 ADD PUSH1 0x1 PUSH2 0x100 EXP DUP2 SLOAD DUP2 PUSH4 0xFFFFFFFF MUL NOT AND SWAP1 DUP4 PUSH4 0xFFFFFFFF AND MUL OR SWAP1 SSTORE POP PUSH2 0x240 DUP3 ADD MLOAD DUP2 PUSH1 0x7 ADD PUSH1 0x5 PUSH2 0x100 EXP DUP2 SLOAD DUP2 PUSH1 0xFF MUL NOT AND SWAP1 DUP4 ISZERO ISZERO MUL OR SWAP1 SSTORE POP PUSH2 0x260 DUP3 ADD MLOAD DUP2 PUSH1 0x7 ADD PUSH1 0x6 PUSH2 0x100 EXP DUP2 SLOAD DUP2 PUSH4 0xFFFFFFFF MUL NOT AND SWAP1 DUP4 PUSH4 0xFFFFFFFF AND MUL OR SWAP1 SSTORE POP PUSH2 0x280 DUP3 ADD MLOAD DUP2 PUSH1 0x7 ADD PUSH1 0xA PUSH2 0x100 EXP DUP2 SLOAD DUP2 PUSH1 0xFF MUL NOT AND SWAP1 DUP4 ISZERO ISZERO MUL OR SWAP1 SSTORE POP PUSH2 0x2A0 DUP3 ADD MLOAD DUP2 PUSH1 0x7 ADD PUSH1 0xB PUSH2 0x100 EXP DUP2 SLOAD DUP2 PUSH4 0xFFFFFFFF MUL NOT AND SWAP1 DUP4 PUSH4 0xFFFFFFFF AND MUL OR SWAP1 SSTORE POP PUSH2 0x2C0 DUP3 ADD MLOAD DUP2 PUSH1 0x7 ADD PUSH1 0xF PUSH2 0x100 EXP DUP2 SLOAD DUP2 PUSH1 0xFF MUL NOT AND SWAP1 DUP4 ISZERO ISZERO MUL OR SWAP1 SSTORE POP PUSH2 0x2E0 DUP3 ADD MLOAD DUP2 PUSH1 0x8 ADD SWAP1 DUP2 PUSH2 0x1231 SWAP2 SWAP1 PUSH2 0x3EBB JUMP JUMPDEST POP PUSH2 0x300 DUP3 ADD MLOAD DUP2 PUSH1 0x9 ADD PUSH1 0x0 PUSH2 0x100 EXP DUP2 SLOAD DUP2 PUSH1 0xFF MUL NOT AND SWAP1 DUP4 ISZERO ISZERO MUL OR SWAP1 SSTORE POP PUSH2 0x320 DUP3 ADD MLOAD DUP2 PUSH1 0x9 ADD PUSH1 0x1 PUSH2 0x100 EXP DUP2 SLOAD DUP2 PUSH1 0xFF MUL NOT AND SWAP1 DUP4 ISZERO ISZERO MUL OR SWAP1 SSTORE POP PUSH2 0x340 DUP3 ADD MLOAD DUP2 PUSH1 0x9 ADD PUSH1 0x2 PUSH2 0x100 EXP DUP2 SLOAD DUP2 PUSH1 0xFF MUL NOT AND SWAP1 DUP4 ISZERO ISZERO MUL OR SWAP1 SSTORE POP PUSH2 0x360 DUP3 ADD MLOAD DUP2 PUSH1 0x9 ADD PUSH1 0x3 PUSH2 0x100 EXP DUP2 SLOAD DUP2 PUSH1 0xFF MUL NOT AND SWAP1 DUP4 ISZERO ISZERO MUL OR SWAP1 SSTORE POP PUSH2 0x380 DUP3 ADD MLOAD DUP2 PUSH1 0x9 ADD PUSH1 0x4 PUSH2 0x100 EXP DUP2 SLOAD DUP2 PUSH1 0xFF MUL NOT AND SWAP1 DUP4 ISZERO ISZERO MUL OR SWAP1 SSTORE POP PUSH2 0x3A0 DUP3 ADD MLOAD DUP2 PUSH1 0xA ADD SSTORE PUSH2 0x3C0 DUP3 ADD MLOAD DUP2 PUSH1 0xB ADD SWAP1 DUP2 PUSH2 0x12F8 SWAP2 SWAP1 PUSH2 0x3EBB JUMP JUMPDEST POP PUSH2 0x3E0 DUP3 ADD MLOAD DUP2 PUSH1 0xC ADD SWAP1 DUP2 PUSH2 0x130F SWAP2 SWAP1 PUSH2 0x3EBB JUMP JUMPDEST POP SWAP1 POP POP PUSH32 0xF520568CE28F611790242E97E8A2E24B45DD6788D8B224AE7B205858D612B720 DUP6 DUP6 PUSH1 0x40 MLOAD PUSH2 0x1344 SWAP3 SWAP2 SWAP1 PUSH2 0x3F8D JUMP JUMPDEST PUSH1 0x40 MLOAD DUP1 SWAP2 SUB SWAP1 LOG1 PUSH32 0x7B4F6A37D173389066E37B530C8BBF1D2B7487C7745CFD286B33BED990F86422 CALLER DUP3 PUSH1 0x40 MLOAD PUSH2 0x137D SWAP3 SWAP2 SWAP1 PUSH2 0x3FB6 JUMP JUMPDEST PUSH1 0x40 MLOAD DUP1 SWAP2 SUB SWAP1 LOG1 DUP1 SWAP2 POP POP SWAP4 SWAP3 POP POP POP JUMP JUMPDEST PUSH2 0x13AB DUP4 DUP4 DUP4 PUSH1 0x40 MLOAD DUP1 PUSH1 0x20 ADD PUSH1 0x40 MSTORE DUP1 PUSH1 0x0 DUP2 MSTORE POP PUSH2 0x16F4 JUMP JUMPDEST POP POP POP JUMP JUMPDEST PUSH2 0x13B8 PUSH2 0x2A72 JUMP JUMPDEST SWAP2 SWAP1 POP JUMP JUMPDEST DUP1 PUSH1 0x9 PUSH1 0x0 DUP5 PUSH20 0xFFFFFFFFFFFFFFFFFFFFFFFFFFFFFFFFFFFFFFFF AND PUSH20 0xFFFFFFFFFFFFFFFFFFFFFFFFFFFFFFFFFFFFFFFF AND DUP2 MSTORE PUSH1 0x20 ADD SWAP1 DUP2 MSTORE PUSH1 0x20 ADD PUSH1 0x0 KECCAK256 DUP2 DUP2 PUSH2 0x1409 SWAP2 SWAP1 PUSH2 0x4D44 JUMP JUMPDEST SWAP1 POP POP PUSH32 0x18ECB209B3E35A9960A3F6C83360DCC37C1C015A37807F8EFBD9CE6E011A3277 DUP3 PUSH1 0x40 MLOAD PUSH2 0x143B SWAP2 SWAP1 PUSH2 0x318B JUMP JUMPDEST PUSH1 0x40 MLOAD DUP1 SWAP2 SUB SWAP1 LOG1 POP POP JUMP JUMPDEST PUSH1 0x0 DUP1 PUSH2 0x1453 DUP4 PUSH2 0x1DBC JUMP JUMPDEST SWAP1 POP PUSH1 0x0 PUSH20 0xFFFFFFFFFFFFFFFFFFFFFFFFFFFFFFFFFFFFFFFF AND DUP2 PUSH20 0xFFFFFFFFFFFFFFFFFFFFFFFFFFFFFFFFFFFFFFFF AND SUB PUSH2 0x14C4 JUMPI PUSH1 0x40 MLOAD PUSH32 0x8C379A000000000000000000000000000000000000000000000000000000000 DUP2 MSTORE PUSH1 0x4 ADD PUSH2 0x14BB SWAP1 PUSH2 0x4D9E JUMP JUMPDEST PUSH1 0x40 MLOAD DUP1 SWAP2 SUB SWAP1 REVERT JUMPDEST DUP1 SWAP2 POP POP SWAP2 SWAP1 POP JUMP JUMPDEST PUSH1 0x0 DUP1 PUSH20 0xFFFFFFFFFFFFFFFFFFFFFFFFFFFFFFFFFFFFFFFF AND DUP3 PUSH20 0xFFFFFFFFFFFFFFFFFFFFFFFFFFFFFFFFFFFFFFFF AND SUB PUSH2 0x153D JUMPI PUSH1 0x40 MLOAD PUSH32 0x8C379A000000000000000000000000000000000000000000000000000000000 DUP2 MSTORE PUSH1 0x4 ADD PUSH2 0x1534 SWAP1 PUSH2 0x4E30 JUMP JUMPDEST PUSH1 0x40 MLOAD DUP1 SWAP2 SUB SWAP1 REVERT JUMPDEST PUSH1 0x3 PUSH1 0x0 DUP4 PUSH20 0xFFFFFFFFFFFFFFFFFFFFFFFFFFFFFFFFFFFFFFFF AND PUSH20 0xFFFFFFFFFFFFFFFFFFFFFFFFFFFFFFFFFFFFFFFF AND DUP2 MSTORE PUSH1 0x20 ADD SWAP1 DUP2 MSTORE PUSH1 0x20 ADD PUSH1 0x0 KECCAK256 SLOAD SWAP1 POP SWAP2 SWAP1 POP JUMP JUMPDEST PUSH2 0x158C PUSH2 0x1DF9 JUMP JUMPDEST PUSH2 0x1596 PUSH1 0x0 PUSH2 0x1E77 JUMP JUMPDEST JUMP JUMPDEST DUP1 PUSH1 0x9 PUSH1 0x0 DUP5 PUSH20 0xFFFFFFFFFFFFFFFFFFFFFFFFFFFFFFFFFFFFFFFF AND PUSH20 0xFFFFFFFFFFFFFFFFFFFFFFFFFFFFFFFFFFFFFFFF AND DUP2 MSTORE PUSH1 0x20 ADD SWAP1 DUP2 MSTORE PUSH1 0x20 ADD PUSH1 0x0 KECCAK256 DUP2 DUP2 PUSH2 0x15E4 SWAP2 SWAP1 PUSH2 0x4D44 JUMP JUMPDEST SWAP1 POP POP PUSH32 0xB392260FCC2875210B67F751621606BC7C7B45DA5226D71B5D45335AAE92273C DUP3 PUSH1 0x40 MLOAD PUSH2 0x1616 SWAP2 SWAP1 PUSH2 0x318B JUMP JUMPDEST PUSH1 0x40 MLOAD DUP1 SWAP2 SUB SWAP1 LOG1 POP POP JUMP JUMPDEST PUSH1 0x0 PUSH1 0x7 PUSH1 0x0 SWAP1 SLOAD SWAP1 PUSH2 0x100 EXP SWAP1 DIV PUSH20 0xFFFFFFFFFFFFFFFFFFFFFFFFFFFFFFFFFFFFFFFF AND SWAP1 POP SWAP1 JUMP JUMPDEST PUSH1 0x60 PUSH1 0x1 DUP1 SLOAD PUSH2 0x165B SWAP1 PUSH2 0x3B28 JUMP JUMPDEST DUP1 PUSH1 0x1F ADD PUSH1 0x20 DUP1 SWAP2 DIV MUL PUSH1 0x20 ADD PUSH1 0x40 MLOAD SWAP1 DUP2 ADD PUSH1 0x40 MSTORE DUP1 SWAP3 SWAP2 SWAP1 DUP2 DUP2 MSTORE PUSH1 0x20 ADD DUP3 DUP1 SLOAD PUSH2 0x1687 SWAP1 PUSH2 0x3B28 JUMP JUMPDEST DUP1 ISZERO PUSH2 0x16D4 JUMPI DUP1 PUSH1 0x1F LT PUSH2 0x16A9 JUMPI PUSH2 0x100 DUP1 DUP4 SLOAD DIV MUL DUP4 MSTORE SWAP2 PUSH1 0x20 ADD SWAP2 PUSH2 0x16D4 JUMP JUMPDEST DUP3 ADD SWAP2 SWAP1 PUSH1 0x0 MSTORE PUSH1 0x20 PUSH1 0x0 KECCAK256 SWAP1 JUMPDEST DUP2 SLOAD DUP2 MSTORE SWAP1 PUSH1 0x1 ADD SWAP1 PUSH1 0x20 ADD DUP1 DUP4 GT PUSH2 0x16B7 JUMPI DUP3 SWAP1 SUB PUSH1 0x1F AND DUP3 ADD SWAP2 JUMPDEST POP POP POP POP POP SWAP1 POP SWAP1 JUMP JUMPDEST PUSH2 0x16F0 PUSH2 0x16E9 PUSH2 0x192B JUMP JUMPDEST DUP4 DUP4 PUSH2 0x1F3D JUMP JUMPDEST POP POP JUMP JUMPDEST PUSH2 0x1705 PUSH2 0x16FF PUSH2 0x192B JUMP JUMPDEST DUP4 PUSH2 0x19EC JUMP JUMPDEST PUSH2 0x1744 JUMPI PUSH1 0x40 MLOAD PUSH32 0x8C379A000000000000000000000000000000000000000000000000000000000 DUP2 MSTORE PUSH1 0x4 ADD PUSH2 0x173B SWAP1 PUSH2 0x3CEF JUMP JUMPDEST PUSH1 0x40 MLOAD DUP1 SWAP2 SUB SWAP1 REVERT JUMPDEST PUSH2 0x1750 DUP5 DUP5 DUP5 DUP5 PUSH2 0x20A9 JUMP JUMPDEST POP POP POP POP JUMP JUMPDEST PUSH1 0x60 PUSH2 0x1761 DUP3 PUSH2 0x2105 JUMP JUMPDEST SWAP1 POP SWAP2 SWAP1 POP JUMP JUMPDEST PUSH1 0x0 PUSH1 0x5 PUSH1 0x0 DUP5 PUSH20 0xFFFFFFFFFFFFFFFFFFFFFFFFFFFFFFFFFFFFFFFF AND PUSH20 0xFFFFFFFFFFFFFFFFFFFFFFFFFFFFFFFFFFFFFFFF AND DUP2 MSTORE PUSH1 0x20 ADD SWAP1 DUP2 MSTORE PUSH1 0x20 ADD PUSH1 0x0 KECCAK256 PUSH1 0x0 DUP4 PUSH20 0xFFFFFFFFFFFFFFFFFFFFFFFFFFFFFFFFFFFFFFFF AND PUSH20 0xFFFFFFFFFFFFFFFFFFFFFFFFFFFFFFFFFFFFFFFF AND DUP2 MSTORE PUSH1 0x20 ADD SWAP1 DUP2 MSTORE PUSH1 0x20 ADD PUSH1 0x0 KECCAK256 PUSH1 0x0 SWAP1 SLOAD SWAP1 PUSH2 0x100 EXP SWAP1 DIV PUSH1 0xFF AND SWAP1 POP SWAP3 SWAP2 POP POP JUMP JUMPDEST PUSH2 0x1804 PUSH2 0x1DF9 JUMP JUMPDEST PUSH1 0x0 PUSH20 0xFFFFFFFFFFFFFFFFFFFFFFFFFFFFFFFFFFFFFFFF AND DUP2 PUSH20 0xFFFFFFFFFFFFFFFFFFFFFFFFFFFFFFFFFFFFFFFF AND SUB PUSH2 0x1873 JUMPI PUSH1 0x40 MLOAD PUSH32 0x8C379A000000000000000000000000000000000000000000000000000000000 DUP2 MSTORE PUSH1 0x4 ADD PUSH2 0x186A SWAP1 PUSH2 0x4EC2 JUMP JUMPDEST PUSH1 0x40 MLOAD DUP1 SWAP2 SUB SWAP1 REVERT JUMPDEST PUSH2 0x187C DUP2 PUSH2 0x1E77 JUMP JUMPDEST POP JUMP JUMPDEST PUSH1 0x0 PUSH4 0x49064906 PUSH1 0xE0 SHL PUSH28 0xFFFFFFFFFFFFFFFFFFFFFFFFFFFFFFFFFFFFFFFFFFFFFFFFFFFFFFFF NOT AND DUP3 PUSH28 0xFFFFFFFFFFFFFFFFFFFFFFFFFFFFFFFFFFFFFFFFFFFFFFFFFFFFFFFF NOT AND EQ DUP1 PUSH2 0x18D9 JUMPI POP PUSH2 0x18D8 DUP3 PUSH2 0x2217 JUMP JUMPDEST JUMPDEST SWAP1 POP SWAP2 SWAP1 POP JUMP JUMPDEST PUSH2 0x18E9 DUP2 PUSH2 0x22F9 JUMP JUMPDEST PUSH2 0x1928 JUMPI PUSH1 0x40 MLOAD PUSH32 0x8C379A000000000000000000000000000000000000000000000000000000000 DUP2 MSTORE PUSH1 0x4 ADD PUSH2 0x191F SWAP1 PUSH2 0x4D9E JUMP JUMPDEST PUSH1 0x40 MLOAD DUP1 SWAP2 SUB SWAP1 REVERT JUMPDEST POP JUMP JUMPDEST PUSH1 0x0 CALLER SWAP1 POP SWAP1 JUMP JUMPDEST DUP2 PUSH1 0x4 PUSH1 0x0 DUP4 DUP2 MSTORE PUSH1 0x20 ADD SWAP1 DUP2 MSTORE PUSH1 0x20 ADD PUSH1 0x0 KECCAK256 PUSH1 0x0 PUSH2 0x100 EXP DUP2 SLOAD DUP2 PUSH20 0xFFFFFFFFFFFFFFFFFFFFFFFFFFFFFFFFFFFFFFFF MUL NOT AND SWAP1 DUP4 PUSH20 0xFFFFFFFFFFFFFFFFFFFFFFFFFFFFFFFFFFFFFFFF AND MUL OR SWAP1 SSTORE POP DUP1 DUP3 PUSH20 0xFFFFFFFFFFFFFFFFFFFFFFFFFFFFFFFFFFFFFFFF AND PUSH2 0x19A6 DUP4 PUSH2 0x1447 JUMP JUMPDEST PUSH20 0xFFFFFFFFFFFFFFFFFFFFFFFFFFFFFFFFFFFFFFFF AND PUSH32 0x8C5BE1E5EBEC7D5BD14F71427D1E84F3DD0314C0F7B2291E5B200AC8C7C3B925 PUSH1 0x40 MLOAD PUSH1 0x40 MLOAD DUP1 SWAP2 SUB SWAP1 LOG4 POP POP JUMP JUMPDEST PUSH1 0x0 DUP1 PUSH2 0x19F8 DUP4 PUSH2 0x1447 JUMP JUMPDEST SWAP1 POP DUP1 PUSH20 0xFFFFFFFFFFFFFFFFFFFFFFFFFFFFFFFFFFFFFFFF AND DUP5 PUSH20 0xFFFFFFFFFFFFFFFFFFFFFFFFFFFFFFFFFFFFFFFF AND EQ DUP1 PUSH2 0x1A3A JUMPI POP PUSH2 0x1A39 DUP2 DUP6 PUSH2 0x1768 JUMP JUMPDEST JUMPDEST DUP1 PUSH2 0x1A78 JUMPI POP DUP4 PUSH20 0xFFFFFFFFFFFFFFFFFFFFFFFFFFFFFFFFFFFFFFFF AND PUSH2 0x1A60 DUP5 PUSH2 0xD3C JUMP JUMPDEST PUSH20 0xFFFFFFFFFFFFFFFFFFFFFFFFFFFFFFFFFFFFFFFF AND EQ JUMPDEST SWAP2 POP POP SWAP3 SWAP2 POP POP JUMP JUMPDEST DUP3 PUSH20 0xFFFFFFFFFFFFFFFFFFFFFFFFFFFFFFFFFFFFFFFF AND PUSH2 0x1AA1 DUP3 PUSH2 0x1447 JUMP JUMPDEST PUSH20 0xFFFFFFFFFFFFFFFFFFFFFFFFFFFFFFFFFFFFFFFF AND EQ PUSH2 0x1AF7 JUMPI PUSH1 0x40 MLOAD PUSH32 0x8C379A000000000000000000000000000000000000000000000000000000000 DUP2 MSTORE PUSH1 0x4 ADD PUSH2 0x1AEE SWAP1 PUSH2 0x4F54 JUMP JUMPDEST PUSH1 0x40 MLOAD DUP1 SWAP2 SUB SWAP1 REVERT JUMPDEST PUSH1 0x0 PUSH20 0xFFFFFFFFFFFFFFFFFFFFFFFFFFFFFFFFFFFFFFFF AND DUP3 PUSH20 0xFFFFFFFFFFFFFFFFFFFFFFFFFFFFFFFFFFFFFFFF AND SUB PUSH2 0x1B66 JUMPI PUSH1 0x40 MLOAD PUSH32 0x8C379A000000000000000000000000000000000000000000000000000000000 DUP2 MSTORE PUSH1 0x4 ADD PUSH2 0x1B5D SWAP1 PUSH2 0x4FE6 JUMP JUMPDEST PUSH1 0x40 MLOAD DUP1 SWAP2 SUB SWAP1 REVERT JUMPDEST PUSH2 0x1B73 DUP4 DUP4 DUP4 PUSH1 0x1 PUSH2 0x233A JUMP JUMPDEST DUP3 PUSH20 0xFFFFFFFFFFFFFFFFFFFFFFFFFFFFFFFFFFFFFFFF AND PUSH2 0x1B93 DUP3 PUSH2 0x1447 JUMP JUMPDEST PUSH20 0xFFFFFFFFFFFFFFFFFFFFFFFFFFFFFFFFFFFFFFFF AND EQ PUSH2 0x1BE9 JUMPI PUSH1 0x40 MLOAD PUSH32 0x8C379A000000000000000000000000000000000000000000000000000000000 DUP2 MSTORE PUSH1 0x4 ADD PUSH2 0x1BE0 SWAP1 PUSH2 0x4F54 JUMP JUMPDEST PUSH1 0x40 MLOAD DUP1 SWAP2 SUB SWAP1 REVERT JUMPDEST PUSH1 0x4 PUSH1 0x0 DUP3 DUP2 MSTORE PUSH1 0x20 ADD SWAP1 DUP2 MSTORE PUSH1 0x20 ADD PUSH1 0x0 KECCAK256 PUSH1 0x0 PUSH2 0x100 EXP DUP2 SLOAD SWAP1 PUSH20 0xFFFFFFFFFFFFFFFFFFFFFFFFFFFFFFFFFFFFFFFF MUL NOT AND SWAP1 SSTORE PUSH1 0x1 PUSH1 0x3 PUSH1 0x0 DUP6 PUSH20 0xFFFFFFFFFFFFFFFFFFFFFFFFFFFFFFFFFFFFFFFF AND PUSH20 0xFFFFFFFFFFFFFFFFFFFFFFFFFFFFFFFFFFFFFFFF AND DUP2 MSTORE PUSH1 0x20 ADD SWAP1 DUP2 MSTORE PUSH1 0x20 ADD PUSH1 0x0 KECCAK256 PUSH1 0x0 DUP3 DUP3 SLOAD SUB SWAP3 POP POP DUP2 SWAP1 SSTORE POP PUSH1 0x1 PUSH1 0x3 PUSH1 0x0 DUP5 PUSH20 0xFFFFFFFFFFFFFFFFFFFFFFFFFFFFFFFFFFFFFFFF AND PUSH20 0xFFFFFFFFFFFFFFFFFFFFFFFFFFFFFFFFFFFFFFFF AND DUP2 MSTORE PUSH1 0x20 ADD SWAP1 DUP2 MSTORE PUSH1 0x20 ADD PUSH1 0x0 KECCAK256 PUSH1 0x0 DUP3 DUP3 SLOAD ADD SWAP3 POP POP DUP2 SWAP1 SSTORE POP DUP2 PUSH1 0x2 PUSH1 0x0 DUP4 DUP2 MSTORE PUSH1 0x20 ADD SWAP1 DUP2 MSTORE PUSH1 0x20 ADD PUSH1 0x0 KECCAK256 PUSH1 0x0 PUSH2 0x100 EXP DUP2 SLOAD DUP2 PUSH20 0xFFFFFFFFFFFFFFFFFFFFFFFFFFFFFFFFFFFFFFFF MUL NOT AND SWAP1 DUP4 PUSH20 0xFFFFFFFFFFFFFFFFFFFFFFFFFFFFFFFFFFFFFFFF AND MUL OR SWAP1 SSTORE POP DUP1 DUP3 PUSH20 0xFFFFFFFFFFFFFFFFFFFFFFFFFFFFFFFFFFFFFFFF AND DUP5 PUSH20 0xFFFFFFFFFFFFFFFFFFFFFFFFFFFFFFFFFFFFFFFF AND PUSH32 0xDDF252AD1BE2C89B69C2B068FC378DAA952BA7F163C4A11628F55A4DF523B3EF PUSH1 0x40 MLOAD PUSH1 0x40 MLOAD DUP1 SWAP2 SUB SWAP1 LOG4 PUSH2 0x1D75 DUP4 DUP4 DUP4 PUSH1 0x1 PUSH2 0x2340 JUMP JUMPDEST POP POP POP JUMP JUMPDEST PUSH1 0x1 DUP2 PUSH1 0x0 ADD PUSH1 0x0 DUP3 DUP3 SLOAD ADD SWAP3 POP POP DUP2 SWAP1 SSTORE POP POP JUMP JUMPDEST PUSH1 0x0 DUP2 PUSH1 0x0 ADD SLOAD SWAP1 POP SWAP2 SWAP1 POP JUMP JUMPDEST PUSH2 0x1DB8 DUP3 DUP3 PUSH1 0x40 MLOAD DUP1 PUSH1 0x20 ADD PUSH1 0x40 MSTORE DUP1 PUSH1 0x0 DUP2 MSTORE POP PUSH2 0x2346 JUMP JUMPDEST POP POP JUMP JUMPDEST PUSH1 0x0 PUSH1 0x2 PUSH1 0x0 DUP4 DUP2 MSTORE PUSH1 0x20 ADD SWAP1 DUP2 MSTORE PUSH1 0x20 ADD PUSH1 0x0 KECCAK256 PUSH1 0x0 SWAP1 SLOAD SWAP1 PUSH2 0x100 EXP SWAP1 DIV PUSH20 0xFFFFFFFFFFFFFFFFFFFFFFFFFFFFFFFFFFFFFFFF AND SWAP1 POP SWAP2 SWAP1 POP JUMP JUMPDEST PUSH2 0x1E01 PUSH2 0x192B JUMP JUMPDEST PUSH20 0xFFFFFFFFFFFFFFFFFFFFFFFFFFFFFFFFFFFFFFFF AND PUSH2 0x1E1F PUSH2 0x1622 JUMP JUMPDEST PUSH20 0xFFFFFFFFFFFFFFFFFFFFFFFFFFFFFFFFFFFFFFFF AND EQ PUSH2 0x1E75 JUMPI PUSH1 0x40 MLOAD PUSH32 0x8C379A000000000000000000000000000000000000000000000000000000000 DUP2 MSTORE PUSH1 0x4 ADD PUSH2 0x1E6C SWAP1 PUSH2 0x5052 JUMP JUMPDEST PUSH1 0x40 MLOAD DUP1 SWAP2 SUB SWAP1 REVERT JUMPDEST JUMP JUMPDEST PUSH1 0x0 PUSH1 0x7 PUSH1 0x0 SWAP1 SLOAD SWAP1 PUSH2 0x100 EXP SWAP1 DIV PUSH20 0xFFFFFFFFFFFFFFFFFFFFFFFFFFFFFFFFFFFFFFFF AND SWAP1 POP DUP2 PUSH1 0x7 PUSH1 0x0 PUSH2 0x100 EXP DUP2 SLOAD DUP2 PUSH20 0xFFFFFFFFFFFFFFFFFFFFFFFFFFFFFFFFFFFFFFFF MUL NOT AND SWAP1 DUP4 PUSH20 0xFFFFFFFFFFFFFFFFFFFFFFFFFFFFFFFFFFFFFFFF AND MUL OR SWAP1 SSTORE POP DUP2 PUSH20 0xFFFFFFFFFFFFFFFFFFFFFFFFFFFFFFFFFFFFFFFF AND DUP2 PUSH20 0xFFFFFFFFFFFFFFFFFFFFFFFFFFFFFFFFFFFFFFFF AND PUSH32 0x8BE0079C531659141344CD1FD0A4F28419497F9722A3DAAFE3B4186F6B6457E0 PUSH1 0x40 MLOAD PUSH1 0x40 MLOAD DUP1 SWAP2 SUB SWAP1 LOG3 POP POP JUMP JUMPDEST DUP2 PUSH20 0xFFFFFFFFFFFFFFFFFFFFFFFFFFFFFFFFFFFFFFFF AND DUP4 PUSH20 0xFFFFFFFFFFFFFFFFFFFFFFFFFFFFFFFFFFFFFFFF AND SUB PUSH2 0x1FAB JUMPI PUSH1 0x40 MLOAD PUSH32 0x8C379A000000000000000000000000000000000000000000000000000000000 DUP2 MSTORE PUSH1 0x4 ADD PUSH2 0x1FA2 SWAP1 PUSH2 0x50BE JUMP JUMPDEST PUSH1 0x40 MLOAD DUP1 SWAP2 SUB SWAP1 REVERT JUMPDEST DUP1 PUSH1 0x5 PUSH1 0x0 DUP6 PUSH20 0xFFFFFFFFFFFFFFFFFFFFFFFFFFFFFFFFFFFFFFFF AND PUSH20 0xFFFFFFFFFFFFFFFFFFFFFFFFFFFFFFFFFFFFFFFF AND DUP2 MSTORE PUSH1 0x20 ADD SWAP1 DUP2 MSTORE PUSH1 0x20 ADD PUSH1 0x0 KECCAK256 PUSH1 0x0 DUP5 PUSH20 0xFFFFFFFFFFFFFFFFFFFFFFFFFFFFFFFFFFFFFFFF AND PUSH20 0xFFFFFFFFFFFFFFFFFFFFFFFFFFFFFFFFFFFFFFFF AND DUP2 MSTORE PUSH1 0x20 ADD SWAP1 DUP2 MSTORE PUSH1 0x20 ADD PUSH1 0x0 KECCAK256 PUSH1 0x0 PUSH2 0x100 EXP DUP2 SLOAD DUP2 PUSH1 0xFF MUL NOT AND SWAP1 DUP4 ISZERO ISZERO MUL OR SWAP1 SSTORE POP DUP2 PUSH20 0xFFFFFFFFFFFFFFFFFFFFFFFFFFFFFFFFFFFFFFFF AND DUP4 PUSH20 0xFFFFFFFFFFFFFFFFFFFFFFFFFFFFFFFFFFFFFFFF AND PUSH32 0x17307EAB39AB6107E8899845AD3D59BD9653F200F220920489CA2B5937696C31 DUP4 PUSH1 0x40 MLOAD PUSH2 0x209C SWAP2 SWAP1 PUSH2 0x306A JUMP JUMPDEST PUSH1 0x40 MLOAD DUP1 SWAP2 SUB SWAP1 LOG3 POP POP POP JUMP JUMPDEST PUSH2 0x20B4 DUP5 DUP5 DUP5 PUSH2 0x1A81 JUMP JUMPDEST PUSH2 0x20C0 DUP5 DUP5 DUP5 DUP5 PUSH2 0x23A1 JUMP JUMPDEST PUSH2 0x20FF JUMPI PUSH1 0x40 MLOAD PUSH32 0x8C379A000000000000000000000000000000000000000000000000000000000 DUP2 MSTORE PUSH1 0x4 ADD PUSH2 0x20F6 SWAP1 PUSH2 0x5150 JUMP JUMPDEST PUSH1 0x40 MLOAD DUP1 SWAP2 SUB SWAP1 REVERT JUMPDEST POP POP POP POP JUMP JUMPDEST PUSH1 0x60 PUSH2 0x2110 DUP3 PUSH2 0x18E0 JUMP JUMPDEST PUSH1 0x0 PUSH1 0x6 PUSH1 0x0 DUP5 DUP2 MSTORE PUSH1 0x20 ADD SWAP1 DUP2 MSTORE PUSH1 0x20 ADD PUSH1 0x0 KECCAK256 DUP1 SLOAD PUSH2 0x2130 SWAP1 PUSH2 0x3B28 JUMP JUMPDEST DUP1 PUSH1 0x1F ADD PUSH1 0x20 DUP1 SWAP2 DIV MUL PUSH1 0x20 ADD PUSH1 0x40 MLOAD SWAP1 DUP2 ADD PUSH1 0x40 MSTORE DUP1 SWAP3 SWAP2 SWAP1 DUP2 DUP2 MSTORE PUSH1 0x20 ADD DUP3 DUP1 SLOAD PUSH2 0x215C SWAP1 PUSH2 0x3B28 JUMP JUMPDEST DUP1 ISZERO PUSH2 0x21A9 JUMPI DUP1 PUSH1 0x1F LT PUSH2 0x217E JUMPI PUSH2 0x100 DUP1 DUP4 SLOAD DIV MUL DUP4 MSTORE SWAP2 PUSH1 0x20 ADD SWAP2 PUSH2 0x21A9 JUMP JUMPDEST DUP3 ADD SWAP2 SWAP1 PUSH1 0x0 MSTORE PUSH1 0x20 PUSH1 0x0 KECCAK256 SWAP1 JUMPDEST DUP2 SLOAD DUP2 MSTORE SWAP1 PUSH1 0x1 ADD SWAP1 PUSH1 0x20 ADD DUP1 DUP4 GT PUSH2 0x218C JUMPI DUP3 SWAP1 SUB PUSH1 0x1F AND DUP3 ADD SWAP2 JUMPDEST POP POP POP POP POP SWAP1 POP PUSH1 0x0 PUSH2 0x21BA PUSH2 0x2528 JUMP JUMPDEST SWAP1 POP PUSH1 0x0 DUP2 MLOAD SUB PUSH2 0x21CF JUMPI DUP2 SWAP3 POP POP POP PUSH2 0x2212 JUMP JUMPDEST PUSH1 0x0 DUP3 MLOAD GT ISZERO PUSH2 0x2204 JUMPI DUP1 DUP3 PUSH1 0x40 MLOAD PUSH1 0x20 ADD PUSH2 0x21EC SWAP3 SWAP2 SWAP1 PUSH2 0x51AC JUMP JUMPDEST PUSH1 0x40 MLOAD PUSH1 0x20 DUP2 DUP4 SUB SUB DUP2 MSTORE SWAP1 PUSH1 0x40 MSTORE SWAP3 POP POP POP PUSH2 0x2212 JUMP JUMPDEST PUSH2 0x220D DUP5 PUSH2 0x253F JUMP JUMPDEST SWAP3 POP POP POP JUMPDEST SWAP2 SWAP1 POP JUMP JUMPDEST PUSH1 0x0 PUSH32 0x80AC58CD00000000000000000000000000000000000000000000000000000000 PUSH28 0xFFFFFFFFFFFFFFFFFFFFFFFFFFFFFFFFFFFFFFFFFFFFFFFFFFFFFFFF NOT AND DUP3 PUSH28 0xFFFFFFFFFFFFFFFFFFFFFFFFFFFFFFFFFFFFFFFFFFFFFFFFFFFFFFFF NOT AND EQ DUP1 PUSH2 0x22E2 JUMPI POP PUSH32 0x5B5E139F00000000000000000000000000000000000000000000000000000000 PUSH28 0xFFFFFFFFFFFFFFFFFFFFFFFFFFFFFFFFFFFFFFFFFFFFFFFFFFFFFFFF NOT AND DUP3 PUSH28 0xFFFFFFFFFFFFFFFFFFFFFFFFFFFFFFFFFFFFFFFFFFFFFFFFFFFFFFFF NOT AND EQ JUMPDEST DUP1 PUSH2 0x22F2 JUMPI POP PUSH2 0x22F1 DUP3 PUSH2 0x25A7 JUMP JUMPDEST JUMPDEST SWAP1 POP SWAP2 SWAP1 POP JUMP JUMPDEST PUSH1 0x0 DUP1 PUSH20 0xFFFFFFFFFFFFFFFFFFFFFFFFFFFFFFFFFFFFFFFF AND PUSH2 0x231B DUP4 PUSH2 0x1DBC JUMP JUMPDEST PUSH20 0xFFFFFFFFFFFFFFFFFFFFFFFFFFFFFFFFFFFFFFFF AND EQ ISZERO SWAP1 POP SWAP2 SWAP1 POP JUMP JUMPDEST POP POP POP POP JUMP JUMPDEST POP POP POP POP JUMP JUMPDEST PUSH2 0x2350 DUP4 DUP4 PUSH2 0x2611 JUMP JUMPDEST PUSH2 0x235D PUSH1 0x0 DUP5 DUP5 DUP5 PUSH2 0x23A1 JUMP JUMPDEST PUSH2 0x239C JUMPI PUSH1 0x40 MLOAD PUSH32 0x8C379A000000000000000000000000000000000000000000000000000000000 DUP2 MSTORE PUSH1 0x4 ADD PUSH2 0x2393 SWAP1 PUSH2 0x5150 JUMP JUMPDEST PUSH1 0x40 MLOAD DUP1 SWAP2 SUB SWAP1 REVERT JUMPDEST POP POP POP JUMP JUMPDEST PUSH1 0x0 PUSH2 0x23C2 DUP5 PUSH20 0xFFFFFFFFFFFFFFFFFFFFFFFFFFFFFFFFFFFFFFFF AND PUSH2 0x282E JUMP JUMPDEST ISZERO PUSH2 0x251B JUMPI DUP4 PUSH20 0xFFFFFFFFFFFFFFFFFFFFFFFFFFFFFFFFFFFFFFFF AND PUSH4 0x150B7A02 PUSH2 0x23EB PUSH2 0x192B JUMP JUMPDEST DUP8 DUP7 DUP7 PUSH1 0x40 MLOAD DUP6 PUSH4 0xFFFFFFFF AND PUSH1 0xE0 SHL DUP2 MSTORE PUSH1 0x4 ADD PUSH2 0x240D SWAP5 SWAP4 SWAP3 SWAP2 SWAP1 PUSH2 0x5225 JUMP JUMPDEST PUSH1 0x20 PUSH1 0x40 MLOAD DUP1 DUP4 SUB DUP2 PUSH1 0x0 DUP8 GAS CALL SWAP3 POP POP POP DUP1 ISZERO PUSH2 0x2449 JUMPI POP PUSH1 0x40 MLOAD RETURNDATASIZE PUSH1 0x1F NOT PUSH1 0x1F DUP3 ADD AND DUP3 ADD DUP1 PUSH1 0x40 MSTORE POP DUP2 ADD SWAP1 PUSH2 0x2446 SWAP2 SWAP1 PUSH2 0x5286 JUMP JUMPDEST PUSH1 0x1 JUMPDEST PUSH2 0x24CB JUMPI RETURNDATASIZE DUP1 PUSH1 0x0 DUP2 EQ PUSH2 0x2479 JUMPI PUSH1 0x40 MLOAD SWAP2 POP PUSH1 0x1F NOT PUSH1 0x3F RETURNDATASIZE ADD AND DUP3 ADD PUSH1 0x40 MSTORE RETURNDATASIZE DUP3 MSTORE RETURNDATASIZE PUSH1 0x0 PUSH1 0x20 DUP5 ADD RETURNDATACOPY PUSH2 0x247E JUMP JUMPDEST PUSH1 0x60 SWAP2 POP JUMPDEST POP PUSH1 0x0 DUP2 MLOAD SUB PUSH2 0x24C3 JUMPI PUSH1 0x40 MLOAD PUSH32 0x8C379A000000000000000000000000000000000000000000000000000000000 DUP2 MSTORE PUSH1 0x4 ADD PUSH2 0x24BA SWAP1 PUSH2 0x5150 JUMP JUMPDEST PUSH1 0x40 MLOAD DUP1 SWAP2 SUB SWAP1 REVERT JUMPDEST DUP1 MLOAD DUP2 PUSH1 0x20 ADD REVERT JUMPDEST PUSH4 0x150B7A02 PUSH1 0xE0 SHL PUSH28 0xFFFFFFFFFFFFFFFFFFFFFFFFFFFFFFFFFFFFFFFFFFFFFFFFFFFFFFFF NOT AND DUP2 PUSH28 0xFFFFFFFFFFFFFFFFFFFFFFFFFFFFFFFFFFFFFFFFFFFFFFFFFFFFFFFF NOT AND EQ SWAP2 POP POP PUSH2 0x2520 JUMP JUMPDEST PUSH1 0x1 SWAP1 POP JUMPDEST SWAP5 SWAP4 POP POP POP POP JUMP JUMPDEST PUSH1 0x60 PUSH1 0x40 MLOAD DUP1 PUSH1 0x20 ADD PUSH1 0x40 MSTORE DUP1 PUSH1 0x0 DUP2 MSTORE POP SWAP1 POP SWAP1 JUMP JUMPDEST PUSH1 0x60 PUSH2 0x254A DUP3 PUSH2 0x18E0 JUMP JUMPDEST PUSH1 0x0 PUSH2 0x2554 PUSH2 0x2528 JUMP JUMPDEST SWAP1 POP PUSH1 0x0 DUP2 MLOAD GT PUSH2 0x2574 JUMPI PUSH1 0x40 MLOAD DUP1 PUSH1 0x20 ADD PUSH1 0x40 MSTORE DUP1 PUSH1 0x0 DUP2 MSTORE POP PUSH2 0x259F JUMP JUMPDEST DUP1 PUSH2 0x257E DUP5 PUSH2 0x2851 JUMP JUMPDEST PUSH1 0x40 MLOAD PUSH1 0x20 ADD PUSH2 0x258F SWAP3 SWAP2 SWAP1 PUSH2 0x51AC JUMP JUMPDEST PUSH1 0x40 MLOAD PUSH1 0x20 DUP2 DUP4 SUB SUB DUP2 MSTORE SWAP1 PUSH1 0x40 MSTORE JUMPDEST SWAP2 POP POP SWAP2 SWAP1 POP JUMP JUMPDEST PUSH1 0x0 PUSH32 0x1FFC9A700000000000000000000000000000000000000000000000000000000 PUSH28 0xFFFFFFFFFFFFFFFFFFFFFFFFFFFFFFFFFFFFFFFFFFFFFFFFFFFFFFFF NOT AND DUP3 PUSH28 0xFFFFFFFFFFFFFFFFFFFFFFFFFFFFFFFFFFFFFFFFFFFFFFFFFFFFFFFF NOT AND EQ SWAP1 POP SWAP2 SWAP1 POP JUMP JUMPDEST PUSH1 0x0 PUSH20 0xFFFFFFFFFFFFFFFFFFFFFFFFFFFFFFFFFFFFFFFF AND DUP3 PUSH20 0xFFFFFFFFFFFFFFFFFFFFFFFFFFFFFFFFFFFFFFFF AND SUB PUSH2 0x2680 JUMPI PUSH1 0x40 MLOAD PUSH32 0x8C379A000000000000000000000000000000000000000000000000000000000 DUP2 MSTORE PUSH1 0x4 ADD PUSH2 0x2677 SWAP1 PUSH2 0x52FF JUMP JUMPDEST PUSH1 0x40 MLOAD DUP1 SWAP2 SUB SWAP1 REVERT JUMPDEST PUSH2 0x2689 DUP2 PUSH2 0x22F9 JUMP JUMPDEST ISZERO PUSH2 0x26C9 JUMPI PUSH1 0x40 MLOAD PUSH32 0x8C379A000000000000000000000000000000000000000000000000000000000 DUP2 MSTORE PUSH1 0x4 ADD PUSH2 0x26C0 SWAP1 PUSH2 0x536B JUMP JUMPDEST PUSH1 0x40 MLOAD DUP1 SWAP2 SUB SWAP1 REVERT JUMPDEST PUSH2 0x26D7 PUSH1 0x0 DUP4 DUP4 PUSH1 0x1 PUSH2 0x233A JUMP JUMPDEST PUSH2 0x26E0 DUP2 PUSH2 0x22F9 JUMP JUMPDEST ISZERO PUSH2 0x2720 JUMPI PUSH1 0x40 MLOAD PUSH32 0x8C379A000000000000000000000000000000000000000000000000000000000 DUP2 MSTORE PUSH1 0x4 ADD PUSH2 0x2717 SWAP1 PUSH2 0x536B JUMP JUMPDEST PUSH1 0x40 MLOAD DUP1 SWAP2 SUB SWAP1 REVERT JUMPDEST PUSH1 0x1 PUSH1 0x3 PUSH1 0x0 DUP5 PUSH20 0xFFFFFFFFFFFFFFFFFFFFFFFFFFFFFFFFFFFFFFFF AND PUSH20 0xFFFFFFFFFFFFFFFFFFFFFFFFFFFFFFFFFFFFFFFF AND DUP2 MSTORE PUSH1 0x20 ADD SWAP1 DUP2 MSTORE PUSH1 0x20 ADD PUSH1 0x0 KECCAK256 PUSH1 0x0 DUP3 DUP3 SLOAD ADD SWAP3 POP POP DUP2 SWAP1 SSTORE POP DUP2 PUSH1 0x2 PUSH1 0x0 DUP4 DUP2 MSTORE PUSH1 0x20 ADD SWAP1 DUP2 MSTORE PUSH1 0x20 ADD PUSH1 0x0 KECCAK256 PUSH1 0x0 PUSH2 0x100 EXP DUP2 SLOAD DUP2 PUSH20 0xFFFFFFFFFFFFFFFFFFFFFFFFFFFFFFFFFFFFFFFF MUL NOT AND SWAP1 DUP4 PUSH20 0xFFFFFFFFFFFFFFFFFFFFFFFFFFFFFFFFFFFFFFFF AND MUL OR SWAP1 SSTORE POP DUP1 DUP3 PUSH20 0xFFFFFFFFFFFFFFFFFFFFFFFFFFFFFFFFFFFFFFFF AND PUSH1 0x0 PUSH20 0xFFFFFFFFFFFFFFFFFFFFFFFFFFFFFFFFFFFFFFFF AND PUSH32 0xDDF252AD1BE2C89B69C2B068FC378DAA952BA7F163C4A11628F55A4DF523B3EF PUSH1 0x40 MLOAD PUSH1 0x40 MLOAD DUP1 SWAP2 SUB SWAP1 LOG4 PUSH2 0x282A PUSH1 0x0 DUP4 DUP4 PUSH1 0x1 PUSH2 0x2340 JUMP JUMPDEST POP POP JUMP JUMPDEST PUSH1 0x0 DUP1 DUP3 PUSH20 0xFFFFFFFFFFFFFFFFFFFFFFFFFFFFFFFFFFFFFFFF AND EXTCODESIZE GT SWAP1 POP SWAP2 SWAP1 POP JUMP JUMPDEST PUSH1 0x60 PUSH1 0x0 PUSH1 0x1 PUSH2 0x2860 DUP5 PUSH2 0x291F JUMP JUMPDEST ADD SWAP1 POP PUSH1 0x0 DUP2 PUSH8 0xFFFFFFFFFFFFFFFF DUP2 GT ISZERO PUSH2 0x287F JUMPI PUSH2 0x287E PUSH2 0x326A JUMP JUMPDEST JUMPDEST PUSH1 0x40 MLOAD SWAP1 DUP1 DUP3 MSTORE DUP1 PUSH1 0x1F ADD PUSH1 0x1F NOT AND PUSH1 0x20 ADD DUP3 ADD PUSH1 0x40 MSTORE DUP1 ISZERO PUSH2 0x28B1 JUMPI DUP2 PUSH1 0x20 ADD PUSH1 0x1 DUP3 MUL DUP1 CALLDATASIZE DUP4 CALLDATACOPY DUP1 DUP3 ADD SWAP2 POP POP SWAP1 POP JUMPDEST POP SWAP1 POP PUSH1 0x0 DUP3 PUSH1 0x20 ADD DUP3 ADD SWAP1 POP JUMPDEST PUSH1 0x1 ISZERO PUSH2 0x2914 JUMPI DUP1 DUP1 PUSH1 0x1 SWAP1 SUB SWAP2 POP POP PUSH32 0x3031323334353637383961626364656600000000000000000000000000000000 PUSH1 0xA DUP7 MOD BYTE DUP2 MSTORE8 PUSH1 0xA DUP6 DUP2 PUSH2 0x2908 JUMPI PUSH2 0x2907 PUSH2 0x538B JUMP JUMPDEST JUMPDEST DIV SWAP5 POP PUSH1 0x0 DUP6 SUB PUSH2 0x28BF JUMPI JUMPDEST DUP2 SWAP4 POP POP POP POP SWAP2 SWAP1 POP JUMP JUMPDEST PUSH1 0x0 DUP1 PUSH1 0x0 SWAP1 POP PUSH27 0x184F03E93FF9F4DAA797ED6E38ED64BF6A1F010000000000000000 DUP4 LT PUSH2 0x297D JUMPI PUSH27 0x184F03E93FF9F4DAA797ED6E38ED64BF6A1F010000000000000000 DUP4 DUP2 PUSH2 0x2973 JUMPI PUSH2 0x2972 PUSH2 0x538B JUMP JUMPDEST JUMPDEST DIV SWAP3 POP PUSH1 0x40 DUP2 ADD SWAP1 POP JUMPDEST PUSH14 0x4EE2D6D415B85ACEF8100000000 DUP4 LT PUSH2 0x29BA JUMPI PUSH14 0x4EE2D6D415B85ACEF8100000000 DUP4 DUP2 PUSH2 0x29B0 JUMPI PUSH2 0x29AF PUSH2 0x538B JUMP JUMPDEST JUMPDEST DIV SWAP3 POP PUSH1 0x20 DUP2 ADD SWAP1 POP JUMPDEST PUSH7 0x2386F26FC10000 DUP4 LT PUSH2 0x29E9 JUMPI PUSH7 0x2386F26FC10000 DUP4 DUP2 PUSH2 0x29DF JUMPI PUSH2 0x29DE PUSH2 0x538B JUMP JUMPDEST JUMPDEST DIV SWAP3 POP PUSH1 0x10 DUP2 ADD SWAP1 POP JUMPDEST PUSH4 0x5F5E100 DUP4 LT PUSH2 0x2A12 JUMPI PUSH4 0x5F5E100 DUP4 DUP2 PUSH2 0x2A08 JUMPI PUSH2 0x2A07 PUSH2 0x538B JUMP JUMPDEST JUMPDEST DIV SWAP3 POP PUSH1 0x8 DUP2 ADD SWAP1 POP JUMPDEST PUSH2 0x2710 DUP4 LT PUSH2 0x2A37 JUMPI PUSH2 0x2710 DUP4 DUP2 PUSH2 0x2A2D JUMPI PUSH2 0x2A2C PUSH2 0x538B JUMP JUMPDEST JUMPDEST DIV SWAP3 POP PUSH1 0x4 DUP2 ADD SWAP1 POP JUMPDEST PUSH1 0x64 DUP4 LT PUSH2 0x2A5A JUMPI PUSH1 0x64 DUP4 DUP2 PUSH2 0x2A50 JUMPI PUSH2 0x2A4F PUSH2 0x538B JUMP JUMPDEST JUMPDEST DIV SWAP3 POP PUSH1 0x2 DUP2 ADD SWAP1 POP JUMPDEST PUSH1 0xA DUP4 LT PUSH2 0x2A69 JUMPI PUSH1 0x1 DUP2 ADD SWAP1 POP JUMPDEST DUP1 SWAP2 POP POP SWAP2 SWAP1 POP JUMP JUMPDEST PUSH1 0x40 MLOAD DUP1 PUSH2 0x400 ADD PUSH1 0x40 MSTORE DUP1 PUSH1 0x60 DUP2 MSTORE PUSH1 0x20 ADD PUSH1 0x60 DUP2 MSTORE PUSH1 0x20 ADD PUSH1 0x0 PUSH2 0xFFFF AND DUP2 MSTORE PUSH1 0x20 ADD PUSH1 0x0 PUSH1 0xFF AND DUP2 MSTORE PUSH1 0x20 ADD PUSH1 0x0 PUSH1 0xFF AND DUP2 MSTORE PUSH1 0x20 ADD PUSH1 0x0 PUSH2 0xFFFF AND DUP2 MSTORE PUSH1 0x20 ADD PUSH1 0x0 PUSH1 0xFF AND DUP2 MSTORE PUSH1 0x20 ADD PUSH1 0x0 PUSH1 0xFF AND DUP2 MSTORE PUSH1 0x20 ADD PUSH1 0x60 DUP2 MSTORE PUSH1 0x20 ADD PUSH1 0x60 DUP2 MSTORE PUSH1 0x20 ADD PUSH1 0x0 PUSH2 0xFFFF AND DUP2 MSTORE PUSH1 0x20 ADD PUSH1 0x0 PUSH2 0xFFFF AND DUP2 MSTORE PUSH1 0x20 ADD PUSH1 0x0 PUSH2 0xFFFF AND DUP2 MSTORE PUSH1 0x20 ADD PUSH1 0x0 PUSH2 0xFFFF AND DUP2 MSTORE PUSH1 0x20 ADD PUSH1 0x0 PUSH1 0xFF AND DUP2 MSTORE PUSH1 0x20 ADD PUSH1 0x60 DUP2 MSTORE PUSH1 0x20 ADD PUSH1 0x0 PUSH1 0xFF AND DUP2 MSTORE PUSH1 0x20 ADD PUSH1 0x0 PUSH4 0xFFFFFFFF AND DUP2 MSTORE PUSH1 0x20 ADD PUSH1 0x0 ISZERO ISZERO DUP2 MSTORE PUSH1 0x20 ADD PUSH1 0x0 PUSH4 0xFFFFFFFF AND DUP2 MSTORE PUSH1 0x20 ADD PUSH1 0x0 ISZERO ISZERO DUP2 MSTORE PUSH1 0x20 ADD PUSH1 0x0 PUSH4 0xFFFFFFFF AND DUP2 MSTORE PUSH1 0x20 ADD PUSH1 0x0 ISZERO ISZERO DUP2 MSTORE PUSH1 0x20 ADD PUSH1 0x60 DUP2 MSTORE PUSH1 0x20 ADD PUSH1 0x0 ISZERO ISZERO DUP2 MSTORE PUSH1 0x20 ADD PUSH1 0x0 ISZERO ISZERO DUP2 MSTORE PUSH1 0x20 ADD PUSH1 0x0 ISZERO ISZERO DUP2 MSTORE PUSH1 0x20 ADD PUSH1 0x0 ISZERO ISZERO DUP2 MSTORE PUSH1 0x20 ADD PUSH1 0x0 ISZERO ISZERO DUP2 MSTORE PUSH1 0x20 ADD PUSH1 0x0 DUP2 MSTORE PUSH1 0x20 ADD PUSH1 0x60 DUP2 MSTORE PUSH1 0x20 ADD PUSH1 0x60 DUP2 MSTORE POP SWAP1 JUMP JUMPDEST PUSH1 0x0 DUP2 MLOAD SWAP1 POP SWAP2 SWAP1 POP JUMP JUMPDEST PUSH1 0x0 DUP3 DUP3 MSTORE PUSH1 0x20 DUP3 ADD SWAP1 POP SWAP3 SWAP2 POP POP JUMP JUMPDEST PUSH1 0x0 JUMPDEST DUP4 DUP2 LT ISZERO PUSH2 0x2BE5 JUMPI DUP1 DUP3 ADD MLOAD DUP2 DUP5 ADD MSTORE PUSH1 0x20 DUP2 ADD SWAP1 POP PUSH2 0x2BCA JUMP JUMPDEST PUSH1 0x0 DUP5 DUP5 ADD MSTORE POP POP POP POP JUMP JUMPDEST PUSH1 0x0 PUSH1 0x1F NOT PUSH1 0x1F DUP4 ADD AND SWAP1 POP SWAP2 SWAP1 POP JUMP JUMPDEST PUSH1 0x0 PUSH2 0x2C0D DUP3 PUSH2 0x2BAB JUMP JUMPDEST PUSH2 0x2C17 DUP2 DUP6 PUSH2 0x2BB6 JUMP JUMPDEST SWAP4 POP PUSH2 0x2C27 DUP2 DUP6 PUSH1 0x20 DUP7 ADD PUSH2 0x2BC7 JUMP JUMPDEST PUSH2 0x2C30 DUP2 PUSH2 0x2BF1 JUMP JUMPDEST DUP5 ADD SWAP2 POP POP SWAP3 SWAP2 POP POP JUMP JUMPDEST PUSH1 0x0 PUSH2 0xFFFF DUP3 AND SWAP1 POP SWAP2 SWAP1 POP JUMP JUMPDEST PUSH2 0x2C52 DUP2 PUSH2 0x2C3B JUMP JUMPDEST DUP3 MSTORE POP POP JUMP JUMPDEST PUSH1 0x0 PUSH1 0xFF DUP3 AND SWAP1 POP SWAP2 SWAP1 POP JUMP JUMPDEST PUSH2 0x2C6E DUP2 PUSH2 0x2C58 JUMP JUMPDEST DUP3 MSTORE POP POP JUMP JUMPDEST PUSH1 0x0 PUSH4 0xFFFFFFFF DUP3 AND SWAP1 POP SWAP2 SWAP1 POP JUMP JUMPDEST PUSH2 0x2C8D DUP2 PUSH2 0x2C74 JUMP JUMPDEST DUP3 MSTORE POP POP JUMP JUMPDEST PUSH1 0x0 DUP2 ISZERO ISZERO SWAP1 POP SWAP2 SWAP1 POP JUMP JUMPDEST PUSH2 0x2CA8 DUP2 PUSH2 0x2C93 JUMP JUMPDEST DUP3 MSTORE POP POP JUMP JUMPDEST PUSH1 0x0 DUP2 SWAP1 POP SWAP2 SWAP1 POP JUMP JUMPDEST PUSH2 0x2CC1 DUP2 PUSH2 0x2CAE JUMP JUMPDEST DUP3 MSTORE POP POP JUMP JUMPDEST PUSH1 0x0 PUSH2 0x400 DUP4 ADD PUSH1 0x0 DUP4 ADD MLOAD DUP5 DUP3 SUB PUSH1 0x0 DUP7 ADD MSTORE PUSH2 0x2CE5 DUP3 DUP3 PUSH2 0x2C02 JUMP JUMPDEST SWAP2 POP POP PUSH1 0x20 DUP4 ADD MLOAD DUP5 DUP3 SUB PUSH1 0x20 DUP7 ADD MSTORE PUSH2 0x2CFF DUP3 DUP3 PUSH2 0x2C02 JUMP JUMPDEST SWAP2 POP POP PUSH1 0x40 DUP4 ADD MLOAD PUSH2 0x2D14 PUSH1 0x40 DUP7 ADD DUP3 PUSH2 0x2C49 JUMP JUMPDEST POP PUSH1 0x60 DUP4 ADD MLOAD PUSH2 0x2D27 PUSH1 0x60 DUP7 ADD DUP3 PUSH2 0x2C65 JUMP JUMPDEST POP PUSH1 0x80 DUP4 ADD MLOAD PUSH2 0x2D3A PUSH1 0x80 DUP7 ADD DUP3 PUSH2 0x2C65 JUMP JUMPDEST POP PUSH1 0xA0 DUP4 ADD MLOAD PUSH2 0x2D4D PUSH1 0xA0 DUP7 ADD DUP3 PUSH2 0x2C49 JUMP JUMPDEST POP PUSH1 0xC0 DUP4 ADD MLOAD PUSH2 0x2D60 PUSH1 0xC0 DUP7 ADD DUP3 PUSH2 0x2C65 JUMP JUMPDEST POP PUSH1 0xE0 DUP4 ADD MLOAD PUSH2 0x2D73 PUSH1 0xE0 DUP7 ADD DUP3 PUSH2 0x2C65 JUMP JUMPDEST POP PUSH2 0x100 DUP4 ADD MLOAD DUP5 DUP3 SUB PUSH2 0x100 DUP7 ADD MSTORE PUSH2 0x2D8D DUP3 DUP3 PUSH2 0x2C02 JUMP JUMPDEST SWAP2 POP POP PUSH2 0x120 DUP4 ADD MLOAD DUP5 DUP3 SUB PUSH2 0x120 DUP7 ADD MSTORE PUSH2 0x2DA9 DUP3 DUP3 PUSH2 0x2C02 JUMP JUMPDEST SWAP2 POP POP PUSH2 0x140 DUP4 ADD MLOAD PUSH2 0x2DC0 PUSH2 0x140 DUP7 ADD DUP3 PUSH2 0x2C49 JUMP JUMPDEST POP PUSH2 0x160 DUP4 ADD MLOAD PUSH2 0x2DD5 PUSH2 0x160 DUP7 ADD DUP3 PUSH2 0x2C49 JUMP JUMPDEST POP PUSH2 0x180 DUP4 ADD MLOAD PUSH2 0x2DEA PUSH2 0x180 DUP7 ADD DUP3 PUSH2 0x2C49 JUMP JUMPDEST POP PUSH2 0x1A0 DUP4 ADD MLOAD PUSH2 0x2DFF PUSH2 0x1A0 DUP7 ADD DUP3 PUSH2 0x2C49 JUMP JUMPDEST POP PUSH2 0x1C0 DUP4 ADD MLOAD PUSH2 0x2E14 PUSH2 0x1C0 DUP7 ADD DUP3 PUSH2 0x2C65 JUMP JUMPDEST POP PUSH2 0x1E0 DUP4 ADD MLOAD DUP5 DUP3 SUB PUSH2 0x1E0 DUP7 ADD MSTORE PUSH2 0x2E2E DUP3 DUP3 PUSH2 0x2C02 JUMP JUMPDEST SWAP2 POP POP PUSH2 0x200 DUP4 ADD MLOAD PUSH2 0x2E45 PUSH2 0x200 DUP7 ADD DUP3 PUSH2 0x2C65 JUMP JUMPDEST POP PUSH2 0x220 DUP4 ADD MLOAD PUSH2 0x2E5A PUSH2 0x220 DUP7 ADD DUP3 PUSH2 0x2C84 JUMP JUMPDEST POP PUSH2 0x240 DUP4 ADD MLOAD PUSH2 0x2E6F PUSH2 0x240 DUP7 ADD DUP3 PUSH2 0x2C9F JUMP JUMPDEST POP PUSH2 0x260 DUP4 ADD MLOAD PUSH2 0x2E84 PUSH2 0x260 DUP7 ADD DUP3 PUSH2 0x2C84 JUMP JUMPDEST POP PUSH2 0x280 DUP4 ADD MLOAD PUSH2 0x2E99 PUSH2 0x280 DUP7 ADD DUP3 PUSH2 0x2C9F JUMP JUMPDEST POP PUSH2 0x2A0 DUP4 ADD MLOAD PUSH2 0x2EAE PUSH2 0x2A0 DUP7 ADD DUP3 PUSH2 0x2C84 JUMP JUMPDEST POP PUSH2 0x2C0 DUP4 ADD MLOAD PUSH2 0x2EC3 PUSH2 0x2C0 DUP7 ADD DUP3 PUSH2 0x2C9F JUMP JUMPDEST POP PUSH2 0x2E0 DUP4 ADD MLOAD DUP5 DUP3 SUB PUSH2 0x2E0 DUP7 ADD MSTORE PUSH2 0x2EDD DUP3 DUP3 PUSH2 0x2C02 JUMP JUMPDEST SWAP2 POP POP PUSH2 0x300 DUP4 ADD MLOAD PUSH2 0x2EF4 PUSH2 0x300 DUP7 ADD DUP3 PUSH2 0x2C9F JUMP JUMPDEST POP PUSH2 0x320 DUP4 ADD MLOAD PUSH2 0x2F09 PUSH2 0x320 DUP7 ADD DUP3 PUSH2 0x2C9F JUMP JUMPDEST POP PUSH2 0x340 DUP4 ADD MLOAD PUSH2 0x2F1E PUSH2 0x340 DUP7 ADD DUP3 PUSH2 0x2C9F JUMP JUMPDEST POP PUSH2 0x360 DUP4 ADD MLOAD PUSH2 0x2F33 PUSH2 0x360 DUP7 ADD DUP3 PUSH2 0x2C9F JUMP JUMPDEST POP PUSH2 0x380 DUP4 ADD MLOAD PUSH2 0x2F48 PUSH2 0x380 DUP7 ADD DUP3 PUSH2 0x2C9F JUMP JUMPDEST POP PUSH2 0x3A0 DUP4 ADD MLOAD PUSH2 0x2F5D PUSH2 0x3A0 DUP7 ADD DUP3 PUSH2 0x2CB8 JUMP JUMPDEST POP PUSH2 0x3C0 DUP4 ADD MLOAD DUP5 DUP3 SUB PUSH2 0x3C0 DUP7 ADD MSTORE PUSH2 0x2F77 DUP3 DUP3 PUSH2 0x2C02 JUMP JUMPDEST SWAP2 POP POP PUSH2 0x3E0 DUP4 ADD MLOAD DUP5 DUP3 SUB PUSH2 0x3E0 DUP7 ADD MSTORE PUSH2 0x2F93 DUP3 DUP3 PUSH2 0x2C02 JUMP JUMPDEST SWAP2 POP POP DUP1 SWAP2 POP POP SWAP3 SWAP2 POP POP JUMP JUMPDEST PUSH1 0x0 PUSH1 0x20 DUP3 ADD SWAP1 POP DUP2 DUP2 SUB PUSH1 0x0 DUP4 ADD MSTORE PUSH2 0x2FBA DUP2 DUP5 PUSH2 0x2CC7 JUMP JUMPDEST SWAP1 POP SWAP3 SWAP2 POP POP JUMP JUMPDEST PUSH1 0x0 PUSH1 0x40 MLOAD SWAP1 POP SWAP1 JUMP JUMPDEST PUSH1 0x0 DUP1 REVERT JUMPDEST PUSH1 0x0 DUP1 REVERT JUMPDEST PUSH1 0x0 PUSH32 0xFFFFFFFF00000000000000000000000000000000000000000000000000000000 DUP3 AND SWAP1 POP SWAP2 SWAP1 POP JUMP JUMPDEST PUSH2 0x300B DUP2 PUSH2 0x2FD6 JUMP JUMPDEST DUP2 EQ PUSH2 0x3016 JUMPI PUSH1 0x0 DUP1 REVERT JUMPDEST POP JUMP JUMPDEST PUSH1 0x0 DUP2 CALLDATALOAD SWAP1 POP PUSH2 0x3028 DUP2 PUSH2 0x3002 JUMP JUMPDEST SWAP3 SWAP2 POP POP JUMP JUMPDEST PUSH1 0x0 PUSH1 0x20 DUP3 DUP5 SUB SLT ISZERO PUSH2 0x3044 JUMPI PUSH2 0x3043 PUSH2 0x2FCC JUMP JUMPDEST JUMPDEST PUSH1 0x0 PUSH2 0x3052 DUP5 DUP3 DUP6 ADD PUSH2 0x3019 JUMP JUMPDEST SWAP2 POP POP SWAP3 SWAP2 POP POP JUMP JUMPDEST PUSH2 0x3064 DUP2 PUSH2 0x2C93 JUMP JUMPDEST DUP3 MSTORE POP POP JUMP JUMPDEST PUSH1 0x0 PUSH1 0x20 DUP3 ADD SWAP1 POP PUSH2 0x307F PUSH1 0x0 DUP4 ADD DUP5 PUSH2 0x305B JUMP JUMPDEST SWAP3 SWAP2 POP POP JUMP JUMPDEST PUSH1 0x0 DUP3 DUP3 MSTORE PUSH1 0x20 DUP3 ADD SWAP1 POP SWAP3 SWAP2 POP POP JUMP JUMPDEST PUSH1 0x0 PUSH2 0x30A1 DUP3 PUSH2 0x2BAB JUMP JUMPDEST PUSH2 0x30AB DUP2 DUP6 PUSH2 0x3085 JUMP JUMPDEST SWAP4 POP PUSH2 0x30BB DUP2 DUP6 PUSH1 0x20 DUP7 ADD PUSH2 0x2BC7 JUMP JUMPDEST PUSH2 0x30C4 DUP2 PUSH2 0x2BF1 JUMP JUMPDEST DUP5 ADD SWAP2 POP POP SWAP3 SWAP2 POP POP JUMP JUMPDEST PUSH1 0x0 PUSH1 0x20 DUP3 ADD SWAP1 POP DUP2 DUP2 SUB PUSH1 0x0 DUP4 ADD MSTORE PUSH2 0x30E9 DUP2 DUP5 PUSH2 0x3096 JUMP JUMPDEST SWAP1 POP SWAP3 SWAP2 POP POP JUMP JUMPDEST PUSH2 0x30FA DUP2 PUSH2 0x2CAE JUMP JUMPDEST DUP2 EQ PUSH2 0x3105 JUMPI PUSH1 0x0 DUP1 REVERT JUMPDEST POP JUMP JUMPDEST PUSH1 0x0 DUP2 CALLDATALOAD SWAP1 POP PUSH2 0x3117 DUP2 PUSH2 0x30F1 JUMP JUMPDEST SWAP3 SWAP2 POP POP JUMP JUMPDEST PUSH1 0x0 PUSH1 0x20 DUP3 DUP5 SUB SLT ISZERO PUSH2 0x3133 JUMPI PUSH2 0x3132 PUSH2 0x2FCC JUMP JUMPDEST JUMPDEST PUSH1 0x0 PUSH2 0x3141 DUP5 DUP3 DUP6 ADD PUSH2 0x3108 JUMP JUMPDEST SWAP2 POP POP SWAP3 SWAP2 POP POP JUMP JUMPDEST PUSH1 0x0 PUSH20 0xFFFFFFFFFFFFFFFFFFFFFFFFFFFFFFFFFFFFFFFF DUP3 AND SWAP1 POP SWAP2 SWAP1 POP JUMP JUMPDEST PUSH1 0x0 PUSH2 0x3175 DUP3 PUSH2 0x314A JUMP JUMPDEST SWAP1 POP SWAP2 SWAP1 POP JUMP JUMPDEST PUSH2 0x3185 DUP2 PUSH2 0x316A JUMP JUMPDEST DUP3 MSTORE POP POP JUMP JUMPDEST PUSH1 0x0 PUSH1 0x20 DUP3 ADD SWAP1 POP PUSH2 0x31A0 PUSH1 0x0 DUP4 ADD DUP5 PUSH2 0x317C JUMP JUMPDEST SWAP3 SWAP2 POP POP JUMP JUMPDEST PUSH2 0x31AF DUP2 PUSH2 0x316A JUMP JUMPDEST DUP2 EQ PUSH2 0x31BA JUMPI PUSH1 0x0 DUP1 REVERT JUMPDEST POP JUMP JUMPDEST PUSH1 0x0 DUP2 CALLDATALOAD SWAP1 POP PUSH2 0x31CC DUP2 PUSH2 0x31A6 JUMP JUMPDEST SWAP3 SWAP2 POP POP JUMP JUMPDEST PUSH1 0x0 DUP1 PUSH1 0x40 DUP4 DUP6 SUB SLT ISZERO PUSH2 0x31E9 JUMPI PUSH2 0x31E8 PUSH2 0x2FCC JUMP JUMPDEST JUMPDEST PUSH1 0x0 PUSH2 0x31F7 DUP6 DUP3 DUP7 ADD PUSH2 0x31BD JUMP JUMPDEST SWAP3 POP POP PUSH1 0x20 PUSH2 0x3208 DUP6 DUP3 DUP7 ADD PUSH2 0x3108 JUMP JUMPDEST SWAP2 POP POP SWAP3 POP SWAP3 SWAP1 POP JUMP JUMPDEST PUSH1 0x0 DUP1 PUSH1 0x0 PUSH1 0x60 DUP5 DUP7 SUB SLT ISZERO PUSH2 0x322B JUMPI PUSH2 0x322A PUSH2 0x2FCC JUMP JUMPDEST JUMPDEST PUSH1 0x0 PUSH2 0x3239 DUP7 DUP3 DUP8 ADD PUSH2 0x31BD JUMP JUMPDEST SWAP4 POP POP PUSH1 0x20 PUSH2 0x324A DUP7 DUP3 DUP8 ADD PUSH2 0x31BD JUMP JUMPDEST SWAP3 POP POP PUSH1 0x40 PUSH2 0x325B DUP7 DUP3 DUP8 ADD PUSH2 0x3108 JUMP JUMPDEST SWAP2 POP POP SWAP3 POP SWAP3 POP SWAP3 JUMP JUMPDEST PUSH1 0x0 DUP1 REVERT JUMPDEST PUSH32 0x4E487B7100000000000000000000000000000000000000000000000000000000 PUSH1 0x0 MSTORE PUSH1 0x41 PUSH1 0x4 MSTORE PUSH1 0x24 PUSH1 0x0 REVERT JUMPDEST PUSH2 0x32A2 DUP3 PUSH2 0x2BF1 JUMP JUMPDEST DUP2 ADD DUP2 DUP2 LT PUSH8 0xFFFFFFFFFFFFFFFF DUP3 GT OR ISZERO PUSH2 0x32C1 JUMPI PUSH2 0x32C0 PUSH2 0x326A JUMP JUMPDEST JUMPDEST DUP1 PUSH1 0x40 MSTORE POP POP POP JUMP JUMPDEST PUSH1 0x0 PUSH2 0x32D4 PUSH2 0x2FC2 JUMP JUMPDEST SWAP1 POP PUSH2 0x32E0 DUP3 DUP3 PUSH2 0x3299 JUMP JUMPDEST SWAP2 SWAP1 POP JUMP JUMPDEST PUSH1 0x0 DUP1 REVERT JUMPDEST PUSH1 0x0 DUP1 REVERT JUMPDEST PUSH1 0x0 DUP1 REVERT JUMPDEST PUSH1 0x0 PUSH8 0xFFFFFFFFFFFFFFFF DUP3 GT ISZERO PUSH2 0x330F JUMPI PUSH2 0x330E PUSH2 0x326A JUMP JUMPDEST JUMPDEST PUSH2 0x3318 DUP3 PUSH2 0x2BF1 JUMP JUMPDEST SWAP1 POP PUSH1 0x20 DUP2 ADD SWAP1 POP SWAP2 SWAP1 POP JUMP JUMPDEST DUP3 DUP2 DUP4 CALLDATACOPY PUSH1 0x0 DUP4 DUP4 ADD MSTORE POP POP POP JUMP JUMPDEST PUSH1 0x0 PUSH2 0x3347 PUSH2 0x3342 DUP5 PUSH2 0x32F4 JUMP JUMPDEST PUSH2 0x32CA JUMP JUMPDEST SWAP1 POP DUP3 DUP2 MSTORE PUSH1 0x20 DUP2 ADD DUP5 DUP5 DUP5 ADD GT ISZERO PUSH2 0x3363 JUMPI PUSH2 0x3362 PUSH2 0x32EF JUMP JUMPDEST JUMPDEST PUSH2 0x336E DUP5 DUP3 DUP6 PUSH2 0x3325 JUMP JUMPDEST POP SWAP4 SWAP3 POP POP POP JUMP JUMPDEST PUSH1 0x0 DUP3 PUSH1 0x1F DUP4 ADD SLT PUSH2 0x338B JUMPI PUSH2 0x338A PUSH2 0x32EA JUMP JUMPDEST JUMPDEST DUP2 CALLDATALOAD PUSH2 0x339B DUP5 DUP3 PUSH1 0x20 DUP7 ADD PUSH2 0x3334 JUMP JUMPDEST SWAP2 POP POP SWAP3 SWAP2 POP POP JUMP JUMPDEST PUSH2 0x33AD DUP2 PUSH2 0x2C3B JUMP JUMPDEST DUP2 EQ PUSH2 0x33B8 JUMPI PUSH1 0x0 DUP1 REVERT JUMPDEST POP JUMP JUMPDEST PUSH1 0x0 DUP2 CALLDATALOAD SWAP1 POP PUSH2 0x33CA DUP2 PUSH2 0x33A4 JUMP JUMPDEST SWAP3 SWAP2 POP POP JUMP JUMPDEST PUSH2 0x33D9 DUP2 PUSH2 0x2C58 JUMP JUMPDEST DUP2 EQ PUSH2 0x33E4 JUMPI PUSH1 0x0 DUP1 REVERT JUMPDEST POP JUMP JUMPDEST PUSH1 0x0 DUP2 CALLDATALOAD SWAP1 POP PUSH2 0x33F6 DUP2 PUSH2 0x33D0 JUMP JUMPDEST SWAP3 SWAP2 POP POP JUMP JUMPDEST PUSH2 0x3405 DUP2 PUSH2 0x2C74 JUMP JUMPDEST DUP2 EQ PUSH2 0x3410 JUMPI PUSH1 0x0 DUP1 REVERT JUMPDEST POP JUMP JUMPDEST PUSH1 0x0 DUP2 CALLDATALOAD SWAP1 POP PUSH2 0x3422 DUP2 PUSH2 0x33FC JUMP JUMPDEST SWAP3 SWAP2 POP POP JUMP JUMPDEST PUSH2 0x3431 DUP2 PUSH2 0x2C93 JUMP JUMPDEST DUP2 EQ PUSH2 0x343C JUMPI PUSH1 0x0 DUP1 REVERT JUMPDEST POP JUMP JUMPDEST PUSH1 0x0 DUP2 CALLDATALOAD SWAP1 POP PUSH2 0x344E DUP2 PUSH2 0x3428 JUMP JUMPDEST SWAP3 SWAP2 POP POP JUMP JUMPDEST PUSH1 0x0 PUSH2 0x400 DUP3 DUP5 SUB SLT ISZERO PUSH2 0x346B JUMPI PUSH2 0x346A PUSH2 0x3265 JUMP JUMPDEST JUMPDEST PUSH2 0x3476 PUSH2 0x400 PUSH2 0x32CA JUMP JUMPDEST SWAP1 POP PUSH1 0x0 DUP3 ADD CALLDATALOAD PUSH8 0xFFFFFFFFFFFFFFFF DUP2 GT ISZERO PUSH2 0x3496 JUMPI PUSH2 0x3495 PUSH2 0x32E5 JUMP JUMPDEST JUMPDEST PUSH2 0x34A2 DUP5 DUP3 DUP6 ADD PUSH2 0x3376 JUMP JUMPDEST PUSH1 0x0 DUP4 ADD MSTORE POP PUSH1 0x20 DUP3 ADD CALLDATALOAD PUSH8 0xFFFFFFFFFFFFFFFF DUP2 GT ISZERO PUSH2 0x34C6 JUMPI PUSH2 0x34C5 PUSH2 0x32E5 JUMP JUMPDEST JUMPDEST PUSH2 0x34D2 DUP5 DUP3 DUP6 ADD PUSH2 0x3376 JUMP JUMPDEST PUSH1 0x20 DUP4 ADD MSTORE POP PUSH1 0x40 PUSH2 0x34E6 DUP5 DUP3 DUP6 ADD PUSH2 0x33BB JUMP JUMPDEST PUSH1 0x40 DUP4 ADD MSTORE POP PUSH1 0x60 PUSH2 0x34FA DUP5 DUP3 DUP6 ADD PUSH2 0x33E7 JUMP JUMPDEST PUSH1 0x60 DUP4 ADD MSTORE POP PUSH1 0x80 PUSH2 0x350E DUP5 DUP3 DUP6 ADD PUSH2 0x33E7 JUMP JUMPDEST PUSH1 0x80 DUP4 ADD MSTORE POP PUSH1 0xA0 PUSH2 0x3522 DUP5 DUP3 DUP6 ADD PUSH2 0x33BB JUMP JUMPDEST PUSH1 0xA0 DUP4 ADD MSTORE POP PUSH1 0xC0 PUSH2 0x3536 DUP5 DUP3 DUP6 ADD PUSH2 0x33E7 JUMP JUMPDEST PUSH1 0xC0 DUP4 ADD MSTORE POP PUSH1 0xE0 PUSH2 0x354A DUP5 DUP3 DUP6 ADD PUSH2 0x33E7 JUMP JUMPDEST PUSH1 0xE0 DUP4 ADD MSTORE POP PUSH2 0x100 DUP3 ADD CALLDATALOAD PUSH8 0xFFFFFFFFFFFFFFFF DUP2 GT ISZERO PUSH2 0x356F JUMPI PUSH2 0x356E PUSH2 0x32E5 JUMP JUMPDEST JUMPDEST PUSH2 0x357B DUP5 DUP3 DUP6 ADD PUSH2 0x3376 JUMP JUMPDEST PUSH2 0x100 DUP4 ADD MSTORE POP PUSH2 0x120 DUP3 ADD CALLDATALOAD PUSH8 0xFFFFFFFFFFFFFFFF DUP2 GT ISZERO PUSH2 0x35A1 JUMPI PUSH2 0x35A0 PUSH2 0x32E5 JUMP JUMPDEST JUMPDEST PUSH2 0x35AD DUP5 DUP3 DUP6 ADD PUSH2 0x3376 JUMP JUMPDEST PUSH2 0x120 DUP4 ADD MSTORE POP PUSH2 0x140 PUSH2 0x35C3 DUP5 DUP3 DUP6 ADD PUSH2 0x33BB JUMP JUMPDEST PUSH2 0x140 DUP4 ADD MSTORE POP PUSH2 0x160 PUSH2 0x35D9 DUP5 DUP3 DUP6 ADD PUSH2 0x33BB JUMP JUMPDEST PUSH2 0x160 DUP4 ADD MSTORE POP PUSH2 0x180 PUSH2 0x35EF DUP5 DUP3 DUP6 ADD PUSH2 0x33BB JUMP JUMPDEST PUSH2 0x180 DUP4 ADD MSTORE POP PUSH2 0x1A0 PUSH2 0x3605 DUP5 DUP3 DUP6 ADD PUSH2 0x33BB JUMP JUMPDEST PUSH2 0x1A0 DUP4 ADD MSTORE POP PUSH2 0x1C0 PUSH2 0x361B DUP5 DUP3 DUP6 ADD PUSH2 0x33E7 JUMP JUMPDEST PUSH2 0x1C0 DUP4 ADD MSTORE POP PUSH2 0x1E0 DUP3 ADD CALLDATALOAD PUSH8 0xFFFFFFFFFFFFFFFF DUP2 GT ISZERO PUSH2 0x3641 JUMPI PUSH2 0x3640 PUSH2 0x32E5 JUMP JUMPDEST JUMPDEST PUSH2 0x364D DUP5 DUP3 DUP6 ADD PUSH2 0x3376 JUMP JUMPDEST PUSH2 0x1E0 DUP4 ADD MSTORE POP PUSH2 0x200 PUSH2 0x3663 DUP5 DUP3 DUP6 ADD PUSH2 0x33E7 JUMP JUMPDEST PUSH2 0x200 DUP4 ADD MSTORE POP PUSH2 0x220 PUSH2 0x3679 DUP5 DUP3 DUP6 ADD PUSH2 0x3413 JUMP JUMPDEST PUSH2 0x220 DUP4 ADD MSTORE POP PUSH2 0x240 PUSH2 0x368F DUP5 DUP3 DUP6 ADD PUSH2 0x343F JUMP JUMPDEST PUSH2 0x240 DUP4 ADD MSTORE POP PUSH2 0x260 PUSH2 0x36A5 DUP5 DUP3 DUP6 ADD PUSH2 0x3413 JUMP JUMPDEST PUSH2 0x260 DUP4 ADD MSTORE POP PUSH2 0x280 PUSH2 0x36BB DUP5 DUP3 DUP6 ADD PUSH2 0x343F JUMP JUMPDEST PUSH2 0x280 DUP4 ADD MSTORE POP PUSH2 0x2A0 PUSH2 0x36D1 DUP5 DUP3 DUP6 ADD PUSH2 0x3413 JUMP JUMPDEST PUSH2 0x2A0 DUP4 ADD MSTORE POP PUSH2 0x2C0 PUSH2 0x36E7 DUP5 DUP3 DUP6 ADD PUSH2 0x343F JUMP JUMPDEST PUSH2 0x2C0 DUP4 ADD MSTORE POP PUSH2 0x2E0 DUP3 ADD CALLDATALOAD PUSH8 0xFFFFFFFFFFFFFFFF DUP2 GT ISZERO PUSH2 0x370D JUMPI PUSH2 0x370C PUSH2 0x32E5 JUMP JUMPDEST JUMPDEST PUSH2 0x3719 DUP5 DUP3 DUP6 ADD PUSH2 0x3376 JUMP JUMPDEST PUSH2 0x2E0 DUP4 ADD MSTORE POP PUSH2 0x300 PUSH2 0x372F DUP5 DUP3 DUP6 ADD PUSH2 0x343F JUMP JUMPDEST PUSH2 0x300 DUP4 ADD MSTORE POP PUSH2 0x320 PUSH2 0x3745 DUP5 DUP3 DUP6 ADD PUSH2 0x343F JUMP JUMPDEST PUSH2 0x320 DUP4 ADD MSTORE POP PUSH2 0x340 PUSH2 0x375B DUP5 DUP3 DUP6 ADD PUSH2 0x343F JUMP JUMPDEST PUSH2 0x340 DUP4 ADD MSTORE POP PUSH2 0x360 PUSH2 0x3771 DUP5 DUP3 DUP6 ADD PUSH2 0x343F JUMP JUMPDEST PUSH2 0x360 DUP4 ADD MSTORE POP PUSH2 0x380 PUSH2 0x3787 DUP5 DUP3 DUP6 ADD PUSH2 0x343F JUMP JUMPDEST PUSH2 0x380 DUP4 ADD MSTORE POP PUSH2 0x3A0 PUSH2 0x379D DUP5 DUP3 DUP6 ADD PUSH2 0x3108 JUMP JUMPDEST PUSH2 0x3A0 DUP4 ADD MSTORE POP PUSH2 0x3C0 DUP3 ADD CALLDATALOAD PUSH8 0xFFFFFFFFFFFFFFFF DUP2 GT ISZERO PUSH2 0x37C3 JUMPI PUSH2 0x37C2 PUSH2 0x32E5 JUMP JUMPDEST JUMPDEST PUSH2 0x37CF DUP5 DUP3 DUP6 ADD PUSH2 0x3376 JUMP JUMPDEST PUSH2 0x3C0 DUP4 ADD MSTORE POP PUSH2 0x3E0 DUP3 ADD CALLDATALOAD PUSH8 0xFFFFFFFFFFFFFFFF DUP2 GT ISZERO PUSH2 0x37F5 JUMPI PUSH2 0x37F4 PUSH2 0x32E5 JUMP JUMPDEST JUMPDEST PUSH2 0x3801 DUP5 DUP3 DUP6 ADD PUSH2 0x3376 JUMP JUMPDEST PUSH2 0x3E0 DUP4 ADD MSTORE POP SWAP3 SWAP2 POP POP JUMP JUMPDEST PUSH1 0x0 DUP1 PUSH1 0x0 PUSH1 0x60 DUP5 DUP7 SUB SLT ISZERO PUSH2 0x3827 JUMPI PUSH2 0x3826 PUSH2 0x2FCC JUMP JUMPDEST JUMPDEST PUSH1 0x0 PUSH2 0x3835 DUP7 DUP3 DUP8 ADD PUSH2 0x31BD JUMP JUMPDEST SWAP4 POP POP PUSH1 0x20 PUSH2 0x3846 DUP7 DUP3 DUP8 ADD PUSH2 0x31BD JUMP JUMPDEST SWAP3 POP POP PUSH1 0x40 DUP5 ADD CALLDATALOAD PUSH8 0xFFFFFFFFFFFFFFFF DUP2 GT ISZERO PUSH2 0x3867 JUMPI PUSH2 0x3866 PUSH2 0x2FD1 JUMP JUMPDEST JUMPDEST PUSH2 0x3873 DUP7 DUP3 DUP8 ADD PUSH2 0x3454 JUMP JUMPDEST SWAP2 POP POP SWAP3 POP SWAP3 POP SWAP3 JUMP JUMPDEST PUSH2 0x3886 DUP2 PUSH2 0x2CAE JUMP JUMPDEST DUP3 MSTORE POP POP JUMP JUMPDEST PUSH1 0x0 PUSH1 0x20 DUP3 ADD SWAP1 POP PUSH2 0x38A1 PUSH1 0x0 DUP4 ADD DUP5 PUSH2 0x387D JUMP JUMPDEST SWAP3 SWAP2 POP POP JUMP JUMPDEST PUSH1 0x0 DUP1 REVERT JUMPDEST PUSH1 0x0 PUSH2 0x400 DUP3 DUP5 SUB SLT ISZERO PUSH2 0x38C3 JUMPI PUSH2 0x38C2 PUSH2 0x38A7 JUMP JUMPDEST JUMPDEST DUP2 SWAP1 POP SWAP3 SWAP2 POP POP JUMP JUMPDEST PUSH1 0x0 DUP1 PUSH1 0x40 DUP4 DUP6 SUB SLT ISZERO PUSH2 0x38E3 JUMPI PUSH2 0x38E2 PUSH2 0x2FCC JUMP JUMPDEST JUMPDEST PUSH1 0x0 PUSH2 0x38F1 DUP6 DUP3 DUP7 ADD PUSH2 0x31BD JUMP JUMPDEST SWAP3 POP POP PUSH1 0x20 DUP4 ADD CALLDATALOAD PUSH8 0xFFFFFFFFFFFFFFFF DUP2 GT ISZERO PUSH2 0x3912 JUMPI PUSH2 0x3911 PUSH2 0x2FD1 JUMP JUMPDEST JUMPDEST PUSH2 0x391E DUP6 DUP3 DUP7 ADD PUSH2 0x38AC JUMP JUMPDEST SWAP2 POP POP SWAP3 POP SWAP3 SWAP1 POP JUMP JUMPDEST PUSH1 0x0 PUSH1 0x20 DUP3 DUP5 SUB SLT ISZERO PUSH2 0x393E JUMPI PUSH2 0x393D PUSH2 0x2FCC JUMP JUMPDEST JUMPDEST PUSH1 0x0 PUSH2 0x394C DUP5 DUP3 DUP6 ADD PUSH2 0x31BD JUMP JUMPDEST SWAP2 POP POP SWAP3 SWAP2 POP POP JUMP JUMPDEST PUSH1 0x0 DUP1 PUSH1 0x40 DUP4 DUP6 SUB SLT ISZERO PUSH2 0x396C JUMPI PUSH2 0x396B PUSH2 0x2FCC JUMP JUMPDEST JUMPDEST PUSH1 0x0 PUSH2 0x397A DUP6 DUP3 DUP7 ADD PUSH2 0x31BD JUMP JUMPDEST SWAP3 POP POP PUSH1 0x20 PUSH2 0x398B DUP6 DUP3 DUP7 ADD PUSH2 0x343F JUMP JUMPDEST SWAP2 POP POP SWAP3 POP SWAP3 SWAP1 POP JUMP JUMPDEST PUSH1 0x0 PUSH8 0xFFFFFFFFFFFFFFFF DUP3 GT ISZERO PUSH2 0x39B0 JUMPI PUSH2 0x39AF PUSH2 0x326A JUMP JUMPDEST JUMPDEST PUSH2 0x39B9 DUP3 PUSH2 0x2BF1 JUMP JUMPDEST SWAP1 POP PUSH1 0x20 DUP2 ADD SWAP1 POP SWAP2 SWAP1 POP JUMP JUMPDEST PUSH1 0x0 PUSH2 0x39D9 PUSH2 0x39D4 DUP5 PUSH2 0x3995 JUMP JUMPDEST PUSH2 0x32CA JUMP JUMPDEST SWAP1 POP DUP3 DUP2 MSTORE PUSH1 0x20 DUP2 ADD DUP5 DUP5 DUP5 ADD GT ISZERO PUSH2 0x39F5 JUMPI PUSH2 0x39F4 PUSH2 0x32EF JUMP JUMPDEST JUMPDEST PUSH2 0x3A00 DUP5 DUP3 DUP6 PUSH2 0x3325 JUMP JUMPDEST POP SWAP4 SWAP3 POP POP POP JUMP JUMPDEST PUSH1 0x0 DUP3 PUSH1 0x1F DUP4 ADD SLT PUSH2 0x3A1D JUMPI PUSH2 0x3A1C PUSH2 0x32EA JUMP JUMPDEST JUMPDEST DUP2 CALLDATALOAD PUSH2 0x3A2D DUP5 DUP3 PUSH1 0x20 DUP7 ADD PUSH2 0x39C6 JUMP JUMPDEST SWAP2 POP POP SWAP3 SWAP2 POP POP JUMP JUMPDEST PUSH1 0x0 DUP1 PUSH1 0x0 DUP1 PUSH1 0x80 DUP6 DUP8 SUB SLT ISZERO PUSH2 0x3A50 JUMPI PUSH2 0x3A4F PUSH2 0x2FCC JUMP JUMPDEST JUMPDEST PUSH1 0x0 PUSH2 0x3A5E DUP8 DUP3 DUP9 ADD PUSH2 0x31BD JUMP JUMPDEST SWAP5 POP POP PUSH1 0x20 PUSH2 0x3A6F DUP8 DUP3 DUP9 ADD PUSH2 0x31BD JUMP JUMPDEST SWAP4 POP POP PUSH1 0x40 PUSH2 0x3A80 DUP8 DUP3 DUP9 ADD PUSH2 0x3108 JUMP JUMPDEST SWAP3 POP POP PUSH1 0x60 DUP6 ADD CALLDATALOAD PUSH8 0xFFFFFFFFFFFFFFFF DUP2 GT ISZERO PUSH2 0x3AA1 JUMPI PUSH2 0x3AA0 PUSH2 0x2FD1 JUMP JUMPDEST JUMPDEST PUSH2 0x3AAD DUP8 DUP3 DUP9 ADD PUSH2 0x3A08 JUMP JUMPDEST SWAP2 POP POP SWAP3 SWAP6 SWAP2 SWAP5 POP SWAP3 POP JUMP JUMPDEST PUSH1 0x0 DUP1 PUSH1 0x40 DUP4 DUP6 SUB SLT ISZERO PUSH2 0x3AD0 JUMPI PUSH2 0x3ACF PUSH2 0x2FCC JUMP JUMPDEST JUMPDEST PUSH1 0x0 PUSH2 0x3ADE DUP6 DUP3 DUP7 ADD PUSH2 0x31BD JUMP JUMPDEST SWAP3 POP POP PUSH1 0x20 PUSH2 0x3AEF DUP6 DUP3 DUP7 ADD PUSH2 0x31BD JUMP JUMPDEST SWAP2 POP POP SWAP3 POP SWAP3 SWAP1 POP JUMP JUMPDEST PUSH32 0x4E487B7100000000000000000000000000000000000000000000000000000000 PUSH1 0x0 MSTORE PUSH1 0x22 PUSH1 0x4 MSTORE PUSH1 0x24 PUSH1 0x0 REVERT JUMPDEST PUSH1 0x0 PUSH1 0x2 DUP3 DIV SWAP1 POP PUSH1 0x1 DUP3 AND DUP1 PUSH2 0x3B40 JUMPI PUSH1 0x7F DUP3 AND SWAP2 POP JUMPDEST PUSH1 0x20 DUP3 LT DUP2 SUB PUSH2 0x3B53 JUMPI PUSH2 0x3B52 PUSH2 0x3AF9 JUMP JUMPDEST JUMPDEST POP SWAP2 SWAP1 POP JUMP JUMPDEST PUSH32 0x4552433732313A20617070726F76616C20746F2063757272656E74206F776E65 PUSH1 0x0 DUP3 ADD MSTORE PUSH32 0x7200000000000000000000000000000000000000000000000000000000000000 PUSH1 0x20 DUP3 ADD MSTORE POP JUMP JUMPDEST PUSH1 0x0 PUSH2 0x3BB5 PUSH1 0x21 DUP4 PUSH2 0x3085 JUMP JUMPDEST SWAP2 POP PUSH2 0x3BC0 DUP3 PUSH2 0x3B59 JUMP JUMPDEST PUSH1 0x40 DUP3 ADD SWAP1 POP SWAP2 SWAP1 POP JUMP JUMPDEST PUSH1 0x0 PUSH1 0x20 DUP3 ADD SWAP1 POP DUP2 DUP2 SUB PUSH1 0x0 DUP4 ADD MSTORE PUSH2 0x3BE4 DUP2 PUSH2 0x3BA8 JUMP JUMPDEST SWAP1 POP SWAP2 SWAP1 POP JUMP JUMPDEST PUSH32 0x4552433732313A20617070726F76652063616C6C6572206973206E6F7420746F PUSH1 0x0 DUP3 ADD MSTORE PUSH32 0x6B656E206F776E6572206F7220617070726F76656420666F7220616C6C000000 PUSH1 0x20 DUP3 ADD MSTORE POP JUMP JUMPDEST PUSH1 0x0 PUSH2 0x3C47 PUSH1 0x3D DUP4 PUSH2 0x3085 JUMP JUMPDEST SWAP2 POP PUSH2 0x3C52 DUP3 PUSH2 0x3BEB JUMP JUMPDEST PUSH1 0x40 DUP3 ADD SWAP1 POP SWAP2 SWAP1 POP JUMP JUMPDEST PUSH1 0x0 PUSH1 0x20 DUP3 ADD SWAP1 POP DUP2 DUP2 SUB PUSH1 0x0 DUP4 ADD MSTORE PUSH2 0x3C76 DUP2 PUSH2 0x3C3A JUMP JUMPDEST SWAP1 POP SWAP2 SWAP1 POP JUMP JUMPDEST PUSH32 0x4552433732313A2063616C6C6572206973206E6F7420746F6B656E206F776E65 PUSH1 0x0 DUP3 ADD MSTORE PUSH32 0x72206F7220617070726F76656400000000000000000000000000000000000000 PUSH1 0x20 DUP3 ADD MSTORE POP JUMP JUMPDEST PUSH1 0x0 PUSH2 0x3CD9 PUSH1 0x2D DUP4 PUSH2 0x3085 JUMP JUMPDEST SWAP2 POP PUSH2 0x3CE4 DUP3 PUSH2 0x3C7D JUMP JUMPDEST PUSH1 0x40 DUP3 ADD SWAP1 POP SWAP2 SWAP1 POP JUMP JUMPDEST PUSH1 0x0 PUSH1 0x20 DUP3 ADD SWAP1 POP DUP2 DUP2 SUB PUSH1 0x0 DUP4 ADD MSTORE PUSH2 0x3D08 DUP2 PUSH2 0x3CCC JUMP JUMPDEST SWAP1 POP SWAP2 SWAP1 POP JUMP JUMPDEST PUSH1 0x0 DUP2 SWAP1 POP DUP2 PUSH1 0x0 MSTORE PUSH1 0x20 PUSH1 0x0 KECCAK256 SWAP1 POP SWAP2 SWAP1 POP JUMP JUMPDEST PUSH1 0x0 PUSH1 0x20 PUSH1 0x1F DUP4 ADD DIV SWAP1 POP SWAP2 SWAP1 POP JUMP JUMPDEST PUSH1 0x0 DUP3 DUP3 SHL SWAP1 POP SWAP3 SWAP2 POP POP JUMP JUMPDEST PUSH1 0x0 PUSH1 0x8 DUP4 MUL PUSH2 0x3D71 PUSH32 0xFFFFFFFFFFFFFFFFFFFFFFFFFFFFFFFFFFFFFFFFFFFFFFFFFFFFFFFFFFFFFFFF DUP3 PUSH2 0x3D34 JUMP JUMPDEST PUSH2 0x3D7B DUP7 DUP4 PUSH2 0x3D34 JUMP JUMPDEST SWAP6 POP DUP1 NOT DUP5 AND SWAP4 POP DUP1 DUP7 AND DUP5 OR SWAP3 POP POP POP SWAP4 SWAP3 POP POP POP JUMP JUMPDEST PUSH1 0x0 DUP2 SWAP1 POP SWAP2 SWAP1 POP JUMP JUMPDEST PUSH1 0x0 PUSH2 0x3DB8 PUSH2 0x3DB3 PUSH2 0x3DAE DUP5 PUSH2 0x2CAE JUMP JUMPDEST PUSH2 0x3D93 JUMP JUMPDEST PUSH2 0x2CAE JUMP JUMPDEST SWAP1 POP SWAP2 SWAP1 POP JUMP JUMPDEST PUSH1 0x0 DUP2 SWAP1 POP SWAP2 SWAP1 POP JUMP JUMPDEST PUSH2 0x3DD2 DUP4 PUSH2 0x3D9D JUMP JUMPDEST PUSH2 0x3DE6 PUSH2 0x3DDE DUP3 PUSH2 0x3DBF JUMP JUMPDEST DUP5 DUP5 SLOAD PUSH2 0x3D41 JUMP JUMPDEST DUP3 SSTORE POP POP POP POP JUMP JUMPDEST PUSH1 0x0 SWAP1 JUMP JUMPDEST PUSH2 0x3DFB PUSH2 0x3DEE JUMP JUMPDEST PUSH2 0x3E06 DUP2 DUP5 DUP5 PUSH2 0x3DC9 JUMP JUMPDEST POP POP POP JUMP JUMPDEST JUMPDEST DUP2 DUP2 LT ISZERO PUSH2 0x3E2A JUMPI PUSH2 0x3E1F PUSH1 0x0 DUP3 PUSH2 0x3DF3 JUMP JUMPDEST PUSH1 0x1 DUP2 ADD SWAP1 POP PUSH2 0x3E0C JUMP JUMPDEST POP POP JUMP JUMPDEST PUSH1 0x1F DUP3 GT ISZERO PUSH2 0x3E6F JUMPI PUSH2 0x3E40 DUP2 PUSH2 0x3D0F JUMP JUMPDEST PUSH2 0x3E49 DUP5 PUSH2 0x3D24 JUMP JUMPDEST DUP2 ADD PUSH1 0x20 DUP6 LT ISZERO PUSH2 0x3E58 JUMPI DUP2 SWAP1 POP JUMPDEST PUSH2 0x3E6C PUSH2 0x3E64 DUP6 PUSH2 0x3D24 JUMP JUMPDEST DUP4 ADD DUP3 PUSH2 0x3E0B JUMP JUMPDEST POP POP JUMPDEST POP POP POP JUMP JUMPDEST PUSH1 0x0 DUP3 DUP3 SHR SWAP1 POP SWAP3 SWAP2 POP POP JUMP JUMPDEST PUSH1 0x0 PUSH2 0x3E92 PUSH1 0x0 NOT DUP5 PUSH1 0x8 MUL PUSH2 0x3E74 JUMP JUMPDEST NOT DUP1 DUP4 AND SWAP2 POP POP SWAP3 SWAP2 POP POP JUMP JUMPDEST PUSH1 0x0 PUSH2 0x3EAB DUP4 DUP4 PUSH2 0x3E81 JUMP JUMPDEST SWAP2 POP DUP3 PUSH1 0x2 MUL DUP3 OR SWAP1 POP SWAP3 SWAP2 POP POP JUMP JUMPDEST PUSH2 0x3EC4 DUP3 PUSH2 0x2BAB JUMP JUMPDEST PUSH8 0xFFFFFFFFFFFFFFFF DUP2 GT ISZERO PUSH2 0x3EDD JUMPI PUSH2 0x3EDC PUSH2 0x326A JUMP JUMPDEST JUMPDEST PUSH2 0x3EE7 DUP3 SLOAD PUSH2 0x3B28 JUMP JUMPDEST PUSH2 0x3EF2 DUP3 DUP3 DUP6 PUSH2 0x3E2E JUMP JUMPDEST PUSH1 0x0 PUSH1 0x20 SWAP1 POP PUSH1 0x1F DUP4 GT PUSH1 0x1 DUP2 EQ PUSH2 0x3F25 JUMPI PUSH1 0x0 DUP5 ISZERO PUSH2 0x3F13 JUMPI DUP3 DUP8 ADD MLOAD SWAP1 POP JUMPDEST PUSH2 0x3F1D DUP6 DUP3 PUSH2 0x3E9F JUMP JUMPDEST DUP7 SSTORE POP PUSH2 0x3F85 JUMP JUMPDEST PUSH1 0x1F NOT DUP5 AND PUSH2 0x3F33 DUP7 PUSH2 0x3D0F JUMP JUMPDEST PUSH1 0x0 JUMPDEST DUP3 DUP2 LT ISZERO PUSH2 0x3F5B JUMPI DUP5 DUP10 ADD MLOAD DUP3 SSTORE PUSH1 0x1 DUP3 ADD SWAP2 POP PUSH1 0x20 DUP6 ADD SWAP5 POP PUSH1 0x20 DUP2 ADD SWAP1 POP PUSH2 0x3F36 JUMP JUMPDEST DUP7 DUP4 LT ISZERO PUSH2 0x3F78 JUMPI DUP5 DUP10 ADD MLOAD PUSH2 0x3F74 PUSH1 0x1F DUP10 AND DUP3 PUSH2 0x3E81 JUMP JUMPDEST DUP4 SSTORE POP JUMPDEST PUSH1 0x1 PUSH1 0x2 DUP9 MUL ADD DUP9 SSTORE POP POP POP JUMPDEST POP POP POP POP POP POP JUMP JUMPDEST PUSH1 0x0 PUSH1 0x40 DUP3 ADD SWAP1 POP PUSH2 0x3FA2 PUSH1 0x0 DUP4 ADD DUP6 PUSH2 0x317C JUMP JUMPDEST PUSH2 0x3FAF PUSH1 0x20 DUP4 ADD DUP5 PUSH2 0x317C JUMP JUMPDEST SWAP4 SWAP3 POP POP POP JUMP JUMPDEST PUSH1 0x0 PUSH1 0x40 DUP3 ADD SWAP1 POP PUSH2 0x3FCB PUSH1 0x0 DUP4 ADD DUP6 PUSH2 0x317C JUMP JUMPDEST PUSH2 0x3FD8 PUSH1 0x20 DUP4 ADD DUP5 PUSH2 0x387D JUMP JUMPDEST SWAP4 SWAP3 POP POP POP JUMP JUMPDEST PUSH1 0x0 DUP1 REVERT JUMPDEST PUSH1 0x0 DUP1 REVERT JUMPDEST PUSH1 0x0 DUP1 REVERT JUMPDEST PUSH1 0x0 DUP1 DUP4 CALLDATALOAD PUSH1 0x1 PUSH1 0x20 SUB DUP5 CALLDATASIZE SUB SUB DUP2 SLT PUSH2 0x400B JUMPI PUSH2 0x400A PUSH2 0x3FDF JUMP JUMPDEST JUMPDEST DUP1 DUP5 ADD SWAP3 POP DUP3 CALLDATALOAD SWAP2 POP PUSH8 0xFFFFFFFFFFFFFFFF DUP3 GT ISZERO PUSH2 0x402D JUMPI PUSH2 0x402C PUSH2 0x3FE4 JUMP JUMPDEST JUMPDEST PUSH1 0x20 DUP4 ADD SWAP3 POP PUSH1 0x1 DUP3 MUL CALLDATASIZE SUB DUP4 SGT ISZERO PUSH2 0x4049 JUMPI PUSH2 0x4048 PUSH2 0x3FE9 JUMP JUMPDEST JUMPDEST POP SWAP3 POP SWAP3 SWAP1 POP JUMP JUMPDEST PUSH1 0x0 DUP3 SWAP1 POP SWAP3 SWAP2 POP POP JUMP JUMPDEST PUSH2 0x4066 DUP4 DUP4 PUSH2 0x4051 JUMP JUMPDEST PUSH8 0xFFFFFFFFFFFFFFFF DUP2 GT ISZERO PUSH2 0x407F JUMPI PUSH2 0x407E PUSH2 0x326A JUMP JUMPDEST JUMPDEST PUSH2 0x4089 DUP3 SLOAD PUSH2 0x3B28 JUMP JUMPDEST PUSH2 0x4094 DUP3 DUP3 DUP6 PUSH2 0x3E2E JUMP JUMPDEST PUSH1 0x0 PUSH1 0x1F DUP4 GT PUSH1 0x1 DUP2 EQ PUSH2 0x40C3 JUMPI PUSH1 0x0 DUP5 ISZERO PUSH2 0x40B1 JUMPI DUP3 DUP8 ADD CALLDATALOAD SWAP1 POP JUMPDEST PUSH2 0x40BB DUP6 DUP3 PUSH2 0x3E9F JUMP JUMPDEST DUP7 SSTORE POP PUSH2 0x4123 JUMP JUMPDEST PUSH1 0x1F NOT DUP5 AND PUSH2 0x40D1 DUP7 PUSH2 0x3D0F JUMP JUMPDEST PUSH1 0x0 JUMPDEST DUP3 DUP2 LT ISZERO PUSH2 0x40F9 JUMPI DUP5 DUP10 ADD CALLDATALOAD DUP3 SSTORE PUSH1 0x1 DUP3 ADD SWAP2 POP PUSH1 0x20 DUP6 ADD SWAP5 POP PUSH1 0x20 DUP2 ADD SWAP1 POP PUSH2 0x40D4 JUMP JUMPDEST DUP7 DUP4 LT ISZERO PUSH2 0x4116 JUMPI DUP5 DUP10 ADD CALLDATALOAD PUSH2 0x4112 PUSH1 0x1F DUP10 AND DUP3 PUSH2 0x3E81 JUMP JUMPDEST DUP4 SSTORE POP JUMPDEST PUSH1 0x1 PUSH1 0x2 DUP9 MUL ADD DUP9 SSTORE POP POP POP JUMPDEST POP POP POP POP POP POP POP JUMP JUMPDEST PUSH2 0x4137 DUP4 DUP4 DUP4 PUSH2 0x405C JUMP JUMPDEST POP POP POP JUMP JUMPDEST PUSH1 0x0 DUP2 CALLDATALOAD PUSH2 0x4149 DUP2 PUSH2 0x33A4 JUMP JUMPDEST DUP1 SWAP2 POP POP SWAP2 SWAP1 POP JUMP JUMPDEST PUSH1 0x0 DUP2 PUSH1 0x0 SHL SWAP1 POP SWAP2 SWAP1 POP JUMP JUMPDEST PUSH1 0x0 PUSH2 0xFFFF PUSH2 0x416D DUP5 PUSH2 0x4152 JUMP JUMPDEST SWAP4 POP DUP1 NOT DUP4 AND SWAP3 POP DUP1 DUP5 AND DUP4 OR SWAP2 POP POP SWAP3 SWAP2 POP POP JUMP JUMPDEST PUSH1 0x0 PUSH2 0x419E PUSH2 0x4199 PUSH2 0x4194 DUP5 PUSH2 0x2C3B JUMP JUMPDEST PUSH2 0x3D93 JUMP JUMPDEST PUSH2 0x2C3B JUMP JUMPDEST SWAP1 POP SWAP2 SWAP1 POP JUMP JUMPDEST PUSH1 0x0 DUP2 SWAP1 POP SWAP2 SWAP1 POP JUMP JUMPDEST PUSH2 0x41B8 DUP3 PUSH2 0x4183 JUMP JUMPDEST PUSH2 0x41CB PUSH2 0x41C4 DUP3 PUSH2 0x41A5 JUMP JUMPDEST DUP4 SLOAD PUSH2 0x415F JUMP JUMPDEST DUP3 SSTORE POP POP POP JUMP JUMPDEST PUSH1 0x0 DUP2 CALLDATALOAD PUSH2 0x41DF DUP2 PUSH2 0x33D0 JUMP JUMPDEST DUP1 SWAP2 POP POP SWAP2 SWAP1 POP JUMP JUMPDEST PUSH1 0x0 DUP2 PUSH1 0x10 SHL SWAP1 POP SWAP2 SWAP1 POP JUMP JUMPDEST PUSH1 0x0 PUSH3 0xFF0000 PUSH2 0x4204 DUP5 PUSH2 0x41E8 JUMP JUMPDEST SWAP4 POP DUP1 NOT DUP4 AND SWAP3 POP DUP1 DUP5 AND DUP4 OR SWAP2 POP POP SWAP3 SWAP2 POP POP JUMP JUMPDEST PUSH1 0x0 PUSH2 0x4235 PUSH2 0x4230 PUSH2 0x422B DUP5 PUSH2 0x2C58 JUMP JUMPDEST PUSH2 0x3D93 JUMP JUMPDEST PUSH2 0x2C58 JUMP JUMPDEST SWAP1 POP SWAP2 SWAP1 POP JUMP JUMPDEST PUSH1 0x0 DUP2 SWAP1 POP SWAP2 SWAP1 POP JUMP JUMPDEST PUSH2 0x424F DUP3 PUSH2 0x421A JUMP JUMPDEST PUSH2 0x4262 PUSH2 0x425B DUP3 PUSH2 0x423C JUMP JUMPDEST DUP4 SLOAD PUSH2 0x41F5 JUMP JUMPDEST DUP3 SSTORE POP POP POP JUMP JUMPDEST PUSH1 0x0 DUP2 PUSH1 0x18 SHL SWAP1 POP SWAP2 SWAP1 POP JUMP JUMPDEST PUSH1 0x0 PUSH4 0xFF000000 PUSH2 0x4286 DUP5 PUSH2 0x4269 JUMP JUMPDEST SWAP4 POP DUP1 NOT DUP4 AND SWAP3 POP DUP1 DUP5 AND DUP4 OR SWAP2 POP POP SWAP3 SWAP2 POP POP JUMP JUMPDEST PUSH2 0x42A5 DUP3 PUSH2 0x421A JUMP JUMPDEST PUSH2 0x42B8 PUSH2 0x42B1 DUP3 PUSH2 0x423C JUMP JUMPDEST DUP4 SLOAD PUSH2 0x4276 JUMP JUMPDEST DUP3 SSTORE POP POP POP JUMP JUMPDEST PUSH1 0x0 DUP2 PUSH1 0x20 SHL SWAP1 POP SWAP2 SWAP1 POP JUMP JUMPDEST PUSH1 0x0 PUSH6 0xFFFF00000000 PUSH2 0x42DE DUP5 PUSH2 0x42BF JUMP JUMPDEST SWAP4 POP DUP1 NOT DUP4 AND SWAP3 POP DUP1 DUP5 AND DUP4 OR SWAP2 POP POP SWAP3 SWAP2 POP POP JUMP JUMPDEST PUSH2 0x42FD DUP3 PUSH2 0x4183 JUMP JUMPDEST PUSH2 0x4310 PUSH2 0x4309 DUP3 PUSH2 0x41A5 JUMP JUMPDEST DUP4 SLOAD PUSH2 0x42CC JUMP JUMPDEST DUP3 SSTORE POP POP POP JUMP JUMPDEST PUSH1 0x0 DUP2 PUSH1 0x30 SHL SWAP1 POP SWAP2 SWAP1 POP JUMP JUMPDEST PUSH1 0x0 PUSH7 0xFF000000000000 PUSH2 0x4337 DUP5 PUSH2 0x4317 JUMP JUMPDEST SWAP4 POP DUP1 NOT DUP4 AND SWAP3 POP DUP1 DUP5 AND DUP4 OR SWAP2 POP POP SWAP3 SWAP2 POP POP JUMP JUMPDEST PUSH2 0x4356 DUP3 PUSH2 0x421A JUMP JUMPDEST PUSH2 0x4369 PUSH2 0x4362 DUP3 PUSH2 0x423C JUMP JUMPDEST DUP4 SLOAD PUSH2 0x4324 JUMP JUMPDEST DUP3 SSTORE POP POP POP JUMP JUMPDEST PUSH1 0x0 DUP2 PUSH1 0x38 SHL SWAP1 POP SWAP2 SWAP1 POP JUMP JUMPDEST PUSH1 0x0 PUSH8 0xFF00000000000000 PUSH2 0x4391 DUP5 PUSH2 0x4370 JUMP JUMPDEST SWAP4 POP DUP1 NOT DUP4 AND SWAP3 POP DUP1 DUP5 AND DUP4 OR SWAP2 POP POP SWAP3 SWAP2 POP POP JUMP JUMPDEST PUSH2 0x43B0 DUP3 PUSH2 0x421A JUMP JUMPDEST PUSH2 0x43C3 PUSH2 0x43BC DUP3 PUSH2 0x423C JUMP JUMPDEST DUP4 SLOAD PUSH2 0x437D JUMP JUMPDEST DUP3 SSTORE POP POP POP JUMP JUMPDEST PUSH1 0x0 PUSH4 0xFFFF0000 PUSH2 0x43DA DUP5 PUSH2 0x41E8 JUMP JUMPDEST SWAP4 POP DUP1 NOT DUP4 AND SWAP3 POP DUP1 DUP5 AND DUP4 OR SWAP2 POP POP SWAP3 SWAP2 POP POP JUMP JUMPDEST PUSH2 0x43F9 DUP3 PUSH2 0x4183 JUMP JUMPDEST PUSH2 0x440C PUSH2 0x4405 DUP3 PUSH2 0x41A5 JUMP JUMPDEST DUP4 SLOAD PUSH2 0x43CA JUMP JUMPDEST DUP3 SSTORE POP POP POP JUMP JUMPDEST PUSH1 0x0 PUSH8 0xFFFF000000000000 PUSH2 0x4427 DUP5 PUSH2 0x4317 JUMP JUMPDEST SWAP4 POP DUP1 NOT DUP4 AND SWAP3 POP DUP1 DUP5 AND DUP4 OR SWAP2 POP POP SWAP3 SWAP2 POP POP JUMP JUMPDEST PUSH2 0x4446 DUP3 PUSH2 0x4183 JUMP JUMPDEST PUSH2 0x4459 PUSH2 0x4452 DUP3 PUSH2 0x41A5 JUMP JUMPDEST DUP4 SLOAD PUSH2 0x4413 JUMP JUMPDEST DUP3 SSTORE POP POP POP JUMP JUMPDEST PUSH1 0x0 DUP2 PUSH1 0x40 SHL SWAP1 POP SWAP2 SWAP1 POP JUMP JUMPDEST PUSH1 0x0 PUSH9 0xFF0000000000000000 PUSH2 0x4482 DUP5 PUSH2 0x4460 JUMP JUMPDEST SWAP4 POP DUP1 NOT DUP4 AND SWAP3 POP DUP1 DUP5 AND DUP4 OR SWAP2 POP POP SWAP3 SWAP2 POP POP JUMP JUMPDEST PUSH2 0x44A1 DUP3 PUSH2 0x421A JUMP JUMPDEST PUSH2 0x44B4 PUSH2 0x44AD DUP3 PUSH2 0x423C JUMP JUMPDEST DUP4 SLOAD PUSH2 0x446D JUMP JUMPDEST DUP3 SSTORE POP POP POP JUMP JUMPDEST PUSH1 0x0 PUSH1 0xFF PUSH2 0x44C8 DUP5 PUSH2 0x4152 JUMP JUMPDEST SWAP4 POP DUP1 NOT DUP4 AND SWAP3 POP DUP1 DUP5 AND DUP4 OR SWAP2 POP POP SWAP3 SWAP2 POP POP JUMP JUMPDEST PUSH2 0x44E7 DUP3 PUSH2 0x421A JUMP JUMPDEST PUSH2 0x44FA PUSH2 0x44F3 DUP3 PUSH2 0x423C JUMP JUMPDEST DUP4 SLOAD PUSH2 0x44BB JUMP JUMPDEST DUP3 SSTORE POP POP POP JUMP JUMPDEST PUSH1 0x0 DUP2 CALLDATALOAD PUSH2 0x450E DUP2 PUSH2 0x33FC JUMP JUMPDEST DUP1 SWAP2 POP POP SWAP2 SWAP1 POP JUMP JUMPDEST PUSH1 0x0 DUP2 PUSH1 0x8 SHL SWAP1 POP SWAP2 SWAP1 POP JUMP JUMPDEST PUSH1 0x0 PUSH5 0xFFFFFFFF00 PUSH2 0x4535 DUP5 PUSH2 0x4517 JUMP JUMPDEST SWAP4 POP DUP1 NOT DUP4 AND SWAP3 POP DUP1 DUP5 AND DUP4 OR SWAP2 POP POP SWAP3 SWAP2 POP POP JUMP JUMPDEST PUSH1 0x0 PUSH2 0x4566 PUSH2 0x4561 PUSH2 0x455C DUP5 PUSH2 0x2C74 JUMP JUMPDEST PUSH2 0x3D93 JUMP JUMPDEST PUSH2 0x2C74 JUMP JUMPDEST SWAP1 POP SWAP2 SWAP1 POP JUMP JUMPDEST PUSH1 0x0 DUP2 SWAP1 POP SWAP2 SWAP1 POP JUMP JUMPDEST PUSH2 0x4580 DUP3 PUSH2 0x454B JUMP JUMPDEST PUSH2 0x4593 PUSH2 0x458C DUP3 PUSH2 0x456D JUMP JUMPDEST DUP4 SLOAD PUSH2 0x4524 JUMP JUMPDEST DUP3 SSTORE POP POP POP JUMP JUMPDEST PUSH1 0x0 DUP2 CALLDATALOAD PUSH2 0x45A7 DUP2 PUSH2 0x3428 JUMP JUMPDEST DUP1 SWAP2 POP POP SWAP2 SWAP1 POP JUMP JUMPDEST PUSH1 0x0 DUP2 PUSH1 0x28 SHL SWAP1 POP SWAP2 SWAP1 POP JUMP JUMPDEST PUSH1 0x0 PUSH6 0xFF0000000000 PUSH2 0x45CF DUP5 PUSH2 0x45B0 JUMP JUMPDEST SWAP4 POP DUP1 NOT DUP4 AND SWAP3 POP DUP1 DUP5 AND DUP4 OR SWAP2 POP POP SWAP3 SWAP2 POP POP JUMP JUMPDEST PUSH1 0x0 PUSH2 0x45F0 DUP3 PUSH2 0x2C93 JUMP JUMPDEST SWAP1 POP SWAP2 SWAP1 POP JUMP JUMPDEST PUSH1 0x0 DUP2 SWAP1 POP SWAP2 SWAP1 POP JUMP JUMPDEST PUSH2 0x460A DUP3 PUSH2 0x45E5 JUMP JUMPDEST PUSH2 0x461D PUSH2 0x4616 DUP3 PUSH2 0x45F7 JUMP JUMPDEST DUP4 SLOAD PUSH2 0x45BD JUMP JUMPDEST DUP3 SSTORE POP POP POP JUMP JUMPDEST PUSH1 0x0 PUSH10 0xFFFFFFFF000000000000 PUSH2 0x463A DUP5 PUSH2 0x4317 JUMP JUMPDEST SWAP4 POP DUP1 NOT DUP4 AND SWAP3 POP DUP1 DUP5 AND DUP4 OR SWAP2 POP POP SWAP3 SWAP2 POP POP JUMP JUMPDEST PUSH2 0x4659 DUP3 PUSH2 0x454B JUMP JUMPDEST PUSH2 0x466C PUSH2 0x4665 DUP3 PUSH2 0x456D JUMP JUMPDEST DUP4 SLOAD PUSH2 0x4624 JUMP JUMPDEST DUP3 SSTORE POP POP POP JUMP JUMPDEST PUSH1 0x0 DUP2 PUSH1 0x50 SHL SWAP1 POP SWAP2 SWAP1 POP JUMP JUMPDEST PUSH1 0x0 PUSH11 0xFF00000000000000000000 PUSH2 0x4697 DUP5 PUSH2 0x4673 JUMP JUMPDEST SWAP4 POP DUP1 NOT DUP4 AND SWAP3 POP DUP1 DUP5 AND DUP4 OR SWAP2 POP POP SWAP3 SWAP2 POP POP JUMP JUMPDEST PUSH2 0x46B6 DUP3 PUSH2 0x45E5 JUMP JUMPDEST PUSH2 0x46C9 PUSH2 0x46C2 DUP3 PUSH2 0x45F7 JUMP JUMPDEST DUP4 SLOAD PUSH2 0x4680 JUMP JUMPDEST DUP3 SSTORE POP POP POP JUMP JUMPDEST PUSH1 0x0 DUP2 PUSH1 0x58 SHL SWAP1 POP SWAP2 SWAP1 POP JUMP JUMPDEST PUSH1 0x0 PUSH15 0xFFFFFFFF0000000000000000000000 PUSH2 0x46F8 DUP5 PUSH2 0x46D0 JUMP JUMPDEST SWAP4 POP DUP1 NOT DUP4 AND SWAP3 POP DUP1 DUP5 AND DUP4 OR SWAP2 POP POP SWAP3 SWAP2 POP POP JUMP JUMPDEST PUSH2 0x4717 DUP3 PUSH2 0x454B JUMP JUMPDEST PUSH2 0x472A PUSH2 0x4723 DUP3 PUSH2 0x456D JUMP JUMPDEST DUP4 SLOAD PUSH2 0x46DD JUMP JUMPDEST DUP3 SSTORE POP POP POP JUMP JUMPDEST PUSH1 0x0 DUP2 PUSH1 0x78 SHL SWAP1 POP SWAP2 SWAP1 POP JUMP JUMPDEST PUSH1 0x0 PUSH16 0xFF000000000000000000000000000000 PUSH2 0x475A DUP5 PUSH2 0x4731 JUMP JUMPDEST SWAP4 POP DUP1 NOT DUP4 AND SWAP3 POP DUP1 DUP5 AND DUP4 OR SWAP2 POP POP SWAP3 SWAP2 POP POP JUMP JUMPDEST PUSH2 0x4779 DUP3 PUSH2 0x45E5 JUMP JUMPDEST PUSH2 0x478C PUSH2 0x4785 DUP3 PUSH2 0x45F7 JUMP JUMPDEST DUP4 SLOAD PUSH2 0x473E JUMP JUMPDEST DUP3 SSTORE POP POP POP JUMP JUMPDEST PUSH2 0x479C DUP3 PUSH2 0x45E5 JUMP JUMPDEST PUSH2 0x47AF PUSH2 0x47A8 DUP3 PUSH2 0x45F7 JUMP JUMPDEST DUP4 SLOAD PUSH2 0x44BB JUMP JUMPDEST DUP3 SSTORE POP POP POP JUMP JUMPDEST PUSH1 0x0 PUSH2 0xFF00 PUSH2 0x47C4 DUP5 PUSH2 0x4517 JUMP JUMPDEST SWAP4 POP DUP1 NOT DUP4 AND SWAP3 POP DUP1 DUP5 AND DUP4 OR SWAP2 POP POP SWAP3 SWAP2 POP POP JUMP JUMPDEST PUSH2 0x47E3 DUP3 PUSH2 0x45E5 JUMP JUMPDEST PUSH2 0x47F6 PUSH2 0x47EF DUP3 PUSH2 0x45F7 JUMP JUMPDEST DUP4 SLOAD PUSH2 0x47B6 JUMP JUMPDEST DUP3 SSTORE POP POP POP JUMP JUMPDEST PUSH2 0x4806 DUP3 PUSH2 0x45E5 JUMP JUMPDEST PUSH2 0x4819 PUSH2 0x4812 DUP3 PUSH2 0x45F7 JUMP JUMPDEST DUP4 SLOAD PUSH2 0x41F5 JUMP JUMPDEST DUP3 SSTORE POP POP POP JUMP JUMPDEST PUSH2 0x4829 DUP3 PUSH2 0x45E5 JUMP JUMPDEST PUSH2 0x483C PUSH2 0x4835 DUP3 PUSH2 0x45F7 JUMP JUMPDEST DUP4 SLOAD PUSH2 0x4276 JUMP JUMPDEST DUP3 SSTORE POP POP POP JUMP JUMPDEST PUSH1 0x0 PUSH5 0xFF00000000 PUSH2 0x4854 DUP5 PUSH2 0x42BF JUMP JUMPDEST SWAP4 POP DUP1 NOT DUP4 AND SWAP3 POP DUP1 DUP5 AND DUP4 OR SWAP2 POP POP SWAP3 SWAP2 POP POP JUMP JUMPDEST PUSH2 0x4873 DUP3 PUSH2 0x45E5 JUMP JUMPDEST PUSH2 0x4886 PUSH2 0x487F DUP3 PUSH2 0x45F7 JUMP JUMPDEST DUP4 SLOAD PUSH2 0x4843 JUMP JUMPDEST DUP3 SSTORE POP POP POP JUMP JUMPDEST PUSH1 0x0 DUP2 CALLDATALOAD PUSH2 0x489A DUP2 PUSH2 0x30F1 JUMP JUMPDEST DUP1 SWAP2 POP POP SWAP2 SWAP1 POP JUMP JUMPDEST PUSH1 0x0 PUSH32 0xFFFFFFFFFFFFFFFFFFFFFFFFFFFFFFFFFFFFFFFFFFFFFFFFFFFFFFFFFFFFFFFF PUSH2 0x48CF DUP5 PUSH2 0x4152 JUMP JUMPDEST SWAP4 POP DUP1 NOT DUP4 AND SWAP3 POP DUP1 DUP5 AND DUP4 OR SWAP2 POP POP SWAP3 SWAP2 POP POP JUMP JUMPDEST PUSH2 0x48EE DUP3 PUSH2 0x3D9D JUMP JUMPDEST PUSH2 0x4901 PUSH2 0x48FA DUP3 PUSH2 0x3DBF JUMP JUMPDEST DUP4 SLOAD PUSH2 0x48A3 JUMP JUMPDEST DUP3 SSTORE POP POP POP JUMP JUMPDEST PUSH1 0x0 DUP2 ADD PUSH1 0x0 DUP4 ADD PUSH2 0x491A DUP2 DUP6 PUSH2 0x3FEE JUMP JUMPDEST PUSH2 0x4925 DUP2 DUP4 DUP7 PUSH2 0x412C JUMP JUMPDEST POP POP POP POP PUSH1 0x1 DUP2 ADD PUSH1 0x20 DUP4 ADD PUSH2 0x493B DUP2 DUP6 PUSH2 0x3FEE JUMP JUMPDEST PUSH2 0x4946 DUP2 DUP4 DUP7 PUSH2 0x412C JUMP JUMPDEST POP POP POP POP PUSH1 0x2 DUP2 ADD PUSH1 0x40 DUP4 ADD DUP1 PUSH2 0x495C DUP2 PUSH2 0x413C JUMP JUMPDEST SWAP1 POP PUSH2 0x4968 DUP2 DUP5 PUSH2 0x41AF JUMP JUMPDEST POP POP POP PUSH1 0x2 DUP2 ADD PUSH1 0x60 DUP4 ADD DUP1 PUSH2 0x497D DUP2 PUSH2 0x41D2 JUMP JUMPDEST SWAP1 POP PUSH2 0x4989 DUP2 DUP5 PUSH2 0x4246 JUMP JUMPDEST POP POP POP PUSH1 0x2 DUP2 ADD PUSH1 0x80 DUP4 ADD DUP1 PUSH2 0x499E DUP2 PUSH2 0x41D2 JUMP JUMPDEST SWAP1 POP PUSH2 0x49AA DUP2 DUP5 PUSH2 0x429C JUMP JUMPDEST POP POP POP PUSH1 0x2 DUP2 ADD PUSH1 0xA0 DUP4 ADD DUP1 PUSH2 0x49BF DUP2 PUSH2 0x413C JUMP JUMPDEST SWAP1 POP PUSH2 0x49CB DUP2 DUP5 PUSH2 0x42F4 JUMP JUMPDEST POP POP POP PUSH1 0x2 DUP2 ADD PUSH1 0xC0 DUP4 ADD DUP1 PUSH2 0x49E0 DUP2 PUSH2 0x41D2 JUMP JUMPDEST SWAP1 POP PUSH2 0x49EC DUP2 DUP5 PUSH2 0x434D JUMP JUMPDEST POP POP POP PUSH1 0x2 DUP2 ADD PUSH1 0xE0 DUP4 ADD DUP1 PUSH2 0x4A01 DUP2 PUSH2 0x41D2 JUMP JUMPDEST SWAP1 POP PUSH2 0x4A0D DUP2 DUP5 PUSH2 0x43A7 JUMP JUMPDEST POP POP POP PUSH1 0x3 DUP2 ADD PUSH2 0x100 DUP4 ADD PUSH2 0x4A23 DUP2 DUP6 PUSH2 0x3FEE JUMP JUMPDEST PUSH2 0x4A2E DUP2 DUP4 DUP7 PUSH2 0x412C JUMP JUMPDEST POP POP POP POP PUSH1 0x4 DUP2 ADD PUSH2 0x120 DUP4 ADD PUSH2 0x4A45 DUP2 DUP6 PUSH2 0x3FEE JUMP JUMPDEST PUSH2 0x4A50 DUP2 DUP4 DUP7 PUSH2 0x412C JUMP JUMPDEST POP POP POP POP PUSH1 0x5 DUP2 ADD PUSH2 0x140 DUP4 ADD DUP1 PUSH2 0x4A67 DUP2 PUSH2 0x413C JUMP JUMPDEST SWAP1 POP PUSH2 0x4A73 DUP2 DUP5 PUSH2 0x41AF JUMP JUMPDEST POP POP POP PUSH1 0x5 DUP2 ADD PUSH2 0x160 DUP4 ADD DUP1 PUSH2 0x4A89 DUP2 PUSH2 0x413C JUMP JUMPDEST SWAP1 POP PUSH2 0x4A95 DUP2 DUP5 PUSH2 0x43F0 JUMP JUMPDEST POP POP POP PUSH1 0x5 DUP2 ADD PUSH2 0x180 DUP4 ADD DUP1 PUSH2 0x4AAB DUP2 PUSH2 0x413C JUMP JUMPDEST SWAP1 POP PUSH2 0x4AB7 DUP2 DUP5 PUSH2 0x42F4 JUMP JUMPDEST POP POP POP PUSH1 0x5 DUP2 ADD PUSH2 0x1A0 DUP4 ADD DUP1 PUSH2 0x4ACD DUP2 PUSH2 0x413C JUMP JUMPDEST SWAP1 POP PUSH2 0x4AD9 DUP2 DUP5 PUSH2 0x443D JUMP JUMPDEST POP POP POP PUSH1 0x5 DUP2 ADD PUSH2 0x1C0 DUP4 ADD DUP1 PUSH2 0x4AEF DUP2 PUSH2 0x41D2 JUMP JUMPDEST SWAP1 POP PUSH2 0x4AFB DUP2 DUP5 PUSH2 0x4498 JUMP JUMPDEST POP POP POP PUSH1 0x6 DUP2 ADD PUSH2 0x1E0 DUP4 ADD PUSH2 0x4B11 DUP2 DUP6 PUSH2 0x3FEE JUMP JUMPDEST PUSH2 0x4B1C DUP2 DUP4 DUP7 PUSH2 0x412C JUMP JUMPDEST POP POP POP POP PUSH1 0x7 DUP2 ADD PUSH2 0x200 DUP4 ADD DUP1 PUSH2 0x4B33 DUP2 PUSH2 0x41D2 JUMP JUMPDEST SWAP1 POP PUSH2 0x4B3F DUP2 DUP5 PUSH2 0x44DE JUMP JUMPDEST POP POP POP PUSH1 0x7 DUP2 ADD PUSH2 0x220 DUP4 ADD DUP1 PUSH2 0x4B55 DUP2 PUSH2 0x4501 JUMP JUMPDEST SWAP1 POP PUSH2 0x4B61 DUP2 DUP5 PUSH2 0x4577 JUMP JUMPDEST POP POP POP PUSH1 0x7 DUP2 ADD PUSH2 0x240 DUP4 ADD DUP1 PUSH2 0x4B77 DUP2 PUSH2 0x459A JUMP JUMPDEST SWAP1 POP PUSH2 0x4B83 DUP2 DUP5 PUSH2 0x4601 JUMP JUMPDEST POP POP POP PUSH1 0x7 DUP2 ADD PUSH2 0x260 DUP4 ADD DUP1 PUSH2 0x4B99 DUP2 PUSH2 0x4501 JUMP JUMPDEST SWAP1 POP PUSH2 0x4BA5 DUP2 DUP5 PUSH2 0x4650 JUMP JUMPDEST POP POP POP PUSH1 0x7 DUP2 ADD PUSH2 0x280 DUP4 ADD DUP1 PUSH2 0x4BBB DUP2 PUSH2 0x459A JUMP JUMPDEST SWAP1 POP PUSH2 0x4BC7 DUP2 DUP5 PUSH2 0x46AD JUMP JUMPDEST POP POP POP PUSH1 0x7 DUP2 ADD PUSH2 0x2A0 DUP4 ADD DUP1 PUSH2 0x4BDD DUP2 PUSH2 0x4501 JUMP JUMPDEST SWAP1 POP PUSH2 0x4BE9 DUP2 DUP5 PUSH2 0x470E JUMP JUMPDEST POP POP POP PUSH1 0x7 DUP2 ADD PUSH2 0x2C0 DUP4 ADD DUP1 PUSH2 0x4BFF DUP2 PUSH2 0x459A JUMP JUMPDEST SWAP1 POP PUSH2 0x4C0B DUP2 DUP5 PUSH2 0x4770 JUMP JUMPDEST POP POP POP PUSH1 0x8 DUP2 ADD PUSH2 0x2E0 DUP4 ADD PUSH2 0x4C21 DUP2 DUP6 PUSH2 0x3FEE JUMP JUMPDEST PUSH2 0x4C2C DUP2 DUP4 DUP7 PUSH2 0x412C JUMP JUMPDEST POP POP POP POP PUSH1 0x9 DUP2 ADD PUSH2 0x300 DUP4 ADD DUP1 PUSH2 0x4C43 DUP2 PUSH2 0x459A JUMP JUMPDEST SWAP1 POP PUSH2 0x4C4F DUP2 DUP5 PUSH2 0x4793 JUMP JUMPDEST POP POP POP PUSH1 0x9 DUP2 ADD PUSH2 0x320 DUP4 ADD DUP1 PUSH2 0x4C65 DUP2 PUSH2 0x459A JUMP JUMPDEST SWAP1 POP PUSH2 0x4C71 DUP2 DUP5 PUSH2 0x47DA JUMP JUMPDEST POP POP POP PUSH1 0x9 DUP2 ADD PUSH2 0x340 DUP4 ADD DUP1 PUSH2 0x4C87 DUP2 PUSH2 0x459A JUMP JUMPDEST SWAP1 POP PUSH2 0x4C93 DUP2 DUP5 PUSH2 0x47FD JUMP JUMPDEST POP POP POP PUSH1 0x9 DUP2 ADD PUSH2 0x360 DUP4 ADD DUP1 PUSH2 0x4CA9 DUP2 PUSH2 0x459A JUMP JUMPDEST SWAP1 POP PUSH2 0x4CB5 DUP2 DUP5 PUSH2 0x4820 JUMP JUMPDEST POP POP POP PUSH1 0x9 DUP2 ADD PUSH2 0x380 DUP4 ADD DUP1 PUSH2 0x4CCB DUP2 PUSH2 0x459A JUMP JUMPDEST SWAP1 POP PUSH2 0x4CD7 DUP2 DUP5 PUSH2 0x486A JUMP JUMPDEST POP POP POP PUSH1 0xA DUP2 ADD PUSH2 0x3A0 DUP4 ADD DUP1 PUSH2 0x4CED DUP2 PUSH2 0x488D JUMP JUMPDEST SWAP1 POP PUSH2 0x4CF9 DUP2 DUP5 PUSH2 0x48E5 JUMP JUMPDEST POP POP POP PUSH1 0xB DUP2 ADD PUSH2 0x3C0 DUP4 ADD PUSH2 0x4D0F DUP2 DUP6 PUSH2 0x3FEE JUMP JUMPDEST PUSH2 0x4D1A DUP2 DUP4 DUP7 PUSH2 0x412C JUMP JUMPDEST POP POP POP POP PUSH1 0xC DUP2 ADD PUSH2 0x3E0 DUP4 ADD PUSH2 0x4D31 DUP2 DUP6 PUSH2 0x3FEE JUMP JUMPDEST PUSH2 0x4D3C DUP2 DUP4 DUP7 PUSH2 0x412C JUMP JUMPDEST POP POP POP POP POP POP JUMP JUMPDEST PUSH2 0x4D4E DUP3 DUP3 PUSH2 0x4908 JUMP JUMPDEST POP POP JUMP JUMPDEST PUSH32 0x4552433732313A20696E76616C696420746F6B656E2049440000000000000000 PUSH1 0x0 DUP3 ADD MSTORE POP JUMP JUMPDEST PUSH1 0x0 PUSH2 0x4D88 PUSH1 0x18 DUP4 PUSH2 0x3085 JUMP JUMPDEST SWAP2 POP PUSH2 0x4D93 DUP3 PUSH2 0x4D52 JUMP JUMPDEST PUSH1 0x20 DUP3 ADD SWAP1 POP SWAP2 SWAP1 POP JUMP JUMPDEST PUSH1 0x0 PUSH1 0x20 DUP3 ADD SWAP1 POP DUP2 DUP2 SUB PUSH1 0x0 DUP4 ADD MSTORE PUSH2 0x4DB7 DUP2 PUSH2 0x4D7B JUMP JUMPDEST SWAP1 POP SWAP2 SWAP1 POP JUMP JUMPDEST PUSH32 0x4552433732313A2061646472657373207A65726F206973206E6F742061207661 PUSH1 0x0 DUP3 ADD MSTORE PUSH32 0x6C6964206F776E65720000000000000000000000000000000000000000000000 PUSH1 0x20 DUP3 ADD MSTORE POP JUMP JUMPDEST PUSH1 0x0 PUSH2 0x4E1A PUSH1 0x29 DUP4 PUSH2 0x3085 JUMP JUMPDEST SWAP2 POP PUSH2 0x4E25 DUP3 PUSH2 0x4DBE JUMP JUMPDEST PUSH1 0x40 DUP3 ADD SWAP1 POP SWAP2 SWAP1 POP JUMP JUMPDEST PUSH1 0x0 PUSH1 0x20 DUP3 ADD SWAP1 POP DUP2 DUP2 SUB PUSH1 0x0 DUP4 ADD MSTORE PUSH2 0x4E49 DUP2 PUSH2 0x4E0D JUMP JUMPDEST SWAP1 POP SWAP2 SWAP1 POP JUMP JUMPDEST PUSH32 0x4F776E61626C653A206E6577206F776E657220697320746865207A65726F2061 PUSH1 0x0 DUP3 ADD MSTORE PUSH32 0x6464726573730000000000000000000000000000000000000000000000000000 PUSH1 0x20 DUP3 ADD MSTORE POP JUMP JUMPDEST PUSH1 0x0 PUSH2 0x4EAC PUSH1 0x26 DUP4 PUSH2 0x3085 JUMP JUMPDEST SWAP2 POP PUSH2 0x4EB7 DUP3 PUSH2 0x4E50 JUMP JUMPDEST PUSH1 0x40 DUP3 ADD SWAP1 POP SWAP2 SWAP1 POP JUMP JUMPDEST PUSH1 0x0 PUSH1 0x20 DUP3 ADD SWAP1 POP DUP2 DUP2 SUB PUSH1 0x0 DUP4 ADD MSTORE PUSH2 0x4EDB DUP2 PUSH2 0x4E9F JUMP JUMPDEST SWAP1 POP SWAP2 SWAP1 POP JUMP JUMPDEST PUSH32 0x4552433732313A207472616E736665722066726F6D20696E636F727265637420 PUSH1 0x0 DUP3 ADD MSTORE PUSH32 0x6F776E6572000000000000000000000000000000000000000000000000000000 PUSH1 0x20 DUP3 ADD MSTORE POP JUMP JUMPDEST PUSH1 0x0 PUSH2 0x4F3E PUSH1 0x25 DUP4 PUSH2 0x3085 JUMP JUMPDEST SWAP2 POP PUSH2 0x4F49 DUP3 PUSH2 0x4EE2 JUMP JUMPDEST PUSH1 0x40 DUP3 ADD SWAP1 POP SWAP2 SWAP1 POP JUMP JUMPDEST PUSH1 0x0 PUSH1 0x20 DUP3 ADD SWAP1 POP DUP2 DUP2 SUB PUSH1 0x0 DUP4 ADD MSTORE PUSH2 0x4F6D DUP2 PUSH2 0x4F31 JUMP JUMPDEST SWAP1 POP SWAP2 SWAP1 POP JUMP JUMPDEST PUSH32 0x4552433732313A207472616E7366657220746F20746865207A65726F20616464 PUSH1 0x0 DUP3 ADD MSTORE PUSH32 0x7265737300000000000000000000000000000000000000000000000000000000 PUSH1 0x20 DUP3 ADD MSTORE POP JUMP JUMPDEST PUSH1 0x0 PUSH2 0x4FD0 PUSH1 0x24 DUP4 PUSH2 0x3085 JUMP JUMPDEST SWAP2 POP PUSH2 0x4FDB DUP3 PUSH2 0x4F74 JUMP JUMPDEST PUSH1 0x40 DUP3 ADD SWAP1 POP SWAP2 SWAP1 POP JUMP JUMPDEST PUSH1 0x0 PUSH1 0x20 DUP3 ADD SWAP1 POP DUP2 DUP2 SUB PUSH1 0x0 DUP4 ADD MSTORE PUSH2 0x4FFF DUP2 PUSH2 0x4FC3 JUMP JUMPDEST SWAP1 POP SWAP2 SWAP1 POP JUMP JUMPDEST PUSH32 0x4F776E61626C653A2063616C6C6572206973206E6F7420746865206F776E6572 PUSH1 0x0 DUP3 ADD MSTORE POP JUMP JUMPDEST PUSH1 0x0 PUSH2 0x503C PUSH1 0x20 DUP4 PUSH2 0x3085 JUMP JUMPDEST SWAP2 POP PUSH2 0x5047 DUP3 PUSH2 0x5006 JUMP JUMPDEST PUSH1 0x20 DUP3 ADD SWAP1 POP SWAP2 SWAP1 POP JUMP JUMPDEST PUSH1 0x0 PUSH1 0x20 DUP3 ADD SWAP1 POP DUP2 DUP2 SUB PUSH1 0x0 DUP4 ADD MSTORE PUSH2 0x506B DUP2 PUSH2 0x502F JUMP JUMPDEST SWAP1 POP SWAP2 SWAP1 POP JUMP JUMPDEST PUSH32 0x4552433732313A20617070726F766520746F2063616C6C657200000000000000 PUSH1 0x0 DUP3 ADD MSTORE POP JUMP JUMPDEST PUSH1 0x0 PUSH2 0x50A8 PUSH1 0x19 DUP4 PUSH2 0x3085 JUMP JUMPDEST SWAP2 POP PUSH2 0x50B3 DUP3 PUSH2 0x5072 JUMP JUMPDEST PUSH1 0x20 DUP3 ADD SWAP1 POP SWAP2 SWAP1 POP JUMP JUMPDEST PUSH1 0x0 PUSH1 0x20 DUP3 ADD SWAP1 POP DUP2 DUP2 SUB PUSH1 0x0 DUP4 ADD MSTORE PUSH2 0x50D7 DUP2 PUSH2 0x509B JUMP JUMPDEST SWAP1 POP SWAP2 SWAP1 POP JUMP JUMPDEST PUSH32 0x4552433732313A207472616E7366657220746F206E6F6E204552433732315265 PUSH1 0x0 DUP3 ADD MSTORE PUSH32 0x63656976657220696D706C656D656E7465720000000000000000000000000000 PUSH1 0x20 DUP3 ADD MSTORE POP JUMP JUMPDEST PUSH1 0x0 PUSH2 0x513A PUSH1 0x32 DUP4 PUSH2 0x3085 JUMP JUMPDEST SWAP2 POP PUSH2 0x5145 DUP3 PUSH2 0x50DE JUMP JUMPDEST PUSH1 0x40 DUP3 ADD SWAP1 POP SWAP2 SWAP1 POP JUMP JUMPDEST PUSH1 0x0 PUSH1 0x20 DUP3 ADD SWAP1 POP DUP2 DUP2 SUB PUSH1 0x0 DUP4 ADD MSTORE PUSH2 0x5169 DUP2 PUSH2 0x512D JUMP JUMPDEST SWAP1 POP SWAP2 SWAP1 POP JUMP JUMPDEST PUSH1 0x0 DUP2 SWAP1 POP SWAP3 SWAP2 POP POP JUMP JUMPDEST PUSH1 0x0 PUSH2 0x5186 DUP3 PUSH2 0x2BAB JUMP JUMPDEST PUSH2 0x5190 DUP2 DUP6 PUSH2 0x5170 JUMP JUMPDEST SWAP4 POP PUSH2 0x51A0 DUP2 DUP6 PUSH1 0x20 DUP7 ADD PUSH2 0x2BC7 JUMP JUMPDEST DUP1 DUP5 ADD SWAP2 POP POP SWAP3 SWAP2 POP POP JUMP JUMPDEST PUSH1 0x0 PUSH2 0x51B8 DUP3 DUP6 PUSH2 0x517B JUMP JUMPDEST SWAP2 POP PUSH2 0x51C4 DUP3 DUP5 PUSH2 0x517B JUMP JUMPDEST SWAP2 POP DUP2 SWAP1 POP SWAP4 SWAP3 POP POP POP JUMP JUMPDEST PUSH1 0x0 DUP2 MLOAD SWAP1 POP SWAP2 SWAP1 POP JUMP JUMPDEST PUSH1 0x0 DUP3 DUP3 MSTORE PUSH1 0x20 DUP3 ADD SWAP1 POP SWAP3 SWAP2 POP POP JUMP JUMPDEST PUSH1 0x0 PUSH2 0x51F7 DUP3 PUSH2 0x51D0 JUMP JUMPDEST PUSH2 0x5201 DUP2 DUP6 PUSH2 0x51DB JUMP JUMPDEST SWAP4 POP PUSH2 0x5211 DUP2 DUP6 PUSH1 0x20 DUP7 ADD PUSH2 0x2BC7 JUMP JUMPDEST PUSH2 0x521A DUP2 PUSH2 0x2BF1 JUMP JUMPDEST DUP5 ADD SWAP2 POP POP SWAP3 SWAP2 POP POP JUMP JUMPDEST PUSH1 0x0 PUSH1 0x80 DUP3 ADD SWAP1 POP PUSH2 0x523A PUSH1 0x0 DUP4 ADD DUP8 PUSH2 0x317C JUMP JUMPDEST PUSH2 0x5247 PUSH1 0x20 DUP4 ADD DUP7 PUSH2 0x317C JUMP JUMPDEST PUSH2 0x5254 PUSH1 0x40 DUP4 ADD DUP6 PUSH2 0x387D JUMP JUMPDEST DUP2 DUP2 SUB PUSH1 0x60 DUP4 ADD MSTORE PUSH2 0x5266 DUP2 DUP5 PUSH2 0x51EC JUMP JUMPDEST SWAP1 POP SWAP6 SWAP5 POP POP POP POP POP JUMP JUMPDEST PUSH1 0x0 DUP2 MLOAD SWAP1 POP PUSH2 0x5280 DUP2 PUSH2 0x3002 JUMP JUMPDEST SWAP3 SWAP2 POP POP JUMP JUMPDEST PUSH1 0x0 PUSH1 0x20 DUP3 DUP5 SUB SLT ISZERO PUSH2 0x529C JUMPI PUSH2 0x529B PUSH2 0x2FCC JUMP JUMPDEST JUMPDEST PUSH1 0x0 PUSH2 0x52AA DUP5 DUP3 DUP6 ADD PUSH2 0x5271 JUMP JUMPDEST SWAP2 POP POP SWAP3 SWAP2 POP POP JUMP JUMPDEST PUSH32 0x4552433732313A206D696E7420746F20746865207A65726F2061646472657373 PUSH1 0x0 DUP3 ADD MSTORE POP JUMP JUMPDEST PUSH1 0x0 PUSH2 0x52E9 PUSH1 0x20 DUP4 PUSH2 0x3085 JUMP JUMPDEST SWAP2 POP PUSH2 0x52F4 DUP3 PUSH2 0x52B3 JUMP JUMPDEST PUSH1 0x20 DUP3 ADD SWAP1 POP SWAP2 SWAP1 POP JUMP JUMPDEST PUSH1 0x0 PUSH1 0x20 DUP3 ADD SWAP1 POP DUP2 DUP2 SUB PUSH1 0x0 DUP4 ADD MSTORE PUSH2 0x5318 DUP2 PUSH2 0x52DC JUMP JUMPDEST SWAP1 POP SWAP2 SWAP1 POP JUMP JUMPDEST PUSH32 0x4552433732313A20746F6B656E20616C7265616479206D696E74656400000000 PUSH1 0x0 DUP3 ADD MSTORE POP JUMP JUMPDEST PUSH1 0x0 PUSH2 0x5355 PUSH1 0x1C DUP4 PUSH2 0x3085 JUMP JUMPDEST SWAP2 POP PUSH2 0x5360 DUP3 PUSH2 0x531F JUMP JUMPDEST PUSH1 0x20 DUP3 ADD SWAP1 POP SWAP2 SWAP1 POP JUMP JUMPDEST PUSH1 0x0 PUSH1 0x20 DUP3 ADD SWAP1 POP DUP2 DUP2 SUB PUSH1 0x0 DUP4 ADD MSTORE PUSH2 0x5384 DUP2 PUSH2 0x5348 JUMP JUMPDEST SWAP1 POP SWAP2 SWAP1 POP JUMP JUMPDEST PUSH32 0x4E487B7100000000000000000000000000000000000000000000000000000000 PUSH1 0x0 MSTORE PUSH1 0x12 PUSH1 0x4 MSTORE PUSH1 0x24 PUSH1 0x0 REVERT INVALID LOG2 PUSH5 0x6970667358 0x22 SLT KECCAK256 0x5E ADD PUSH17 0x8437D99BB42DE0C065974C8C5F3DC38773 PUSH21 0x143112AAF1892E3368148464736F6C634300081200 CALLER "
		},
		"gasEstimates": {
			"creation": {
				"codeDepositCost": "4297600",
				"executionCost": "infinite",
				"totalCost": "infinite"
			},
			"external": {
				"approve(address,uint256)": "infinite",
				"balanceOf(address)": "2921",
				"checkAgreement()": "infinite",
				"getAgreement(uint256)": "infinite",
				"getApproved(uint256)": "5322",
				"isApprovedForAll(address,address)": "infinite",
				"mintNFT(address,address,(string,string,uint16,uint8,uint8,uint16,uint8,uint8,string,string,uint16,uint16,uint16,uint16,uint8,string,uint8,uint32,bool,uint32,bool,uint32,bool,string,bool,bool,bool,bool,bool,uint256,string,string))": "infinite",
				"name()": "infinite",
				"owner()": "2633",
				"ownerOf(uint256)": "3022",
				"renounceOwnership()": "30465",
				"safeTransferFrom(address,address,uint256)": "infinite",
				"safeTransferFrom(address,address,uint256,bytes)": "infinite",
				"sendToEmployee(address,(string,string,uint16,uint8,uint8,uint16,uint8,uint8,string,string,uint16,uint16,uint16,uint16,uint8,string,uint8,uint32,bool,uint32,bool,uint32,bool,string,bool,bool,bool,bool,bool,uint256,string,string))": "infinite",
				"sendToEmployer(address,(string,string,uint16,uint8,uint8,uint16,uint8,uint8,string,string,uint16,uint16,uint16,uint16,uint8,string,uint8,uint32,bool,uint32,bool,uint32,bool,string,bool,bool,bool,bool,bool,uint256,string,string))": "infinite",
				"setApprovalForAll(address,bool)": "infinite",
				"supportsInterface(bytes4)": "1049",
				"symbol()": "infinite",
				"tokenURI(uint256)": "infinite",
				"transferFrom(address,address,uint256)": "infinite",
				"transferOwnership(address)": "30876"
			},
			"internal": {
				"_burn(uint256)": "infinite"
			}
		},
		"methodIdentifiers": {
			"approve(address,uint256)": "095ea7b3",
			"balanceOf(address)": "70a08231",
			"checkAgreement()": "0102a47b",
			"getAgreement(uint256)": "4f9f6fe6",
			"getApproved(uint256)": "081812fc",
			"isApprovedForAll(address,address)": "e985e9c5",
			"mintNFT(address,address,(string,string,uint16,uint8,uint8,uint16,uint8,uint8,string,string,uint16,uint16,uint16,uint16,uint8,string,uint8,uint32,bool,uint32,bool,uint32,bool,string,bool,bool,bool,bool,bool,uint256,string,string))": "29880143",
			"name()": "06fdde03",
			"owner()": "8da5cb5b",
			"ownerOf(uint256)": "6352211e",
			"renounceOwnership()": "715018a6",
			"safeTransferFrom(address,address,uint256)": "42842e0e",
			"safeTransferFrom(address,address,uint256,bytes)": "b88d4fde",
			"sendToEmployee(address,(string,string,uint16,uint8,uint8,uint16,uint8,uint8,string,string,uint16,uint16,uint16,uint16,uint8,string,uint8,uint32,bool,uint32,bool,uint32,bool,string,bool,bool,bool,bool,bool,uint256,string,string))": "732c3bc4",
			"sendToEmployer(address,(string,string,uint16,uint8,uint8,uint16,uint8,uint8,string,string,uint16,uint16,uint16,uint16,uint8,string,uint8,uint32,bool,uint32,bool,uint32,bool,string,bool,bool,bool,bool,bool,uint256,string,string))": "5f60f8c6",
			"setApprovalForAll(address,bool)": "a22cb465",
			"supportsInterface(bytes4)": "01ffc9a7",
			"symbol()": "95d89b41",
			"tokenURI(uint256)": "c87b56dd",
			"transferFrom(address,address,uint256)": "23b872dd",
			"transferOwnership(address)": "f2fde38b"
		}
	},
	"abi": [
		{
			"inputs": [],
			"stateMutability": "nonpayable",
			"type": "constructor"
		},
		{
			"anonymous": false,
			"inputs": [
				{
					"indexed": true,
					"internalType": "address",
					"name": "owner",
					"type": "address"
				},
				{
					"indexed": true,
					"internalType": "address",
					"name": "approved",
					"type": "address"
				},
				{
					"indexed": true,
					"internalType": "uint256",
					"name": "tokenId",
					"type": "uint256"
				}
			],
			"name": "Approval",
			"type": "event"
		},
		{
			"anonymous": false,
			"inputs": [
				{
					"indexed": true,
					"internalType": "address",
					"name": "owner",
					"type": "address"
				},
				{
					"indexed": true,
					"internalType": "address",
					"name": "operator",
					"type": "address"
				},
				{
					"indexed": false,
					"internalType": "bool",
					"name": "approved",
					"type": "bool"
				}
			],
			"name": "ApprovalForAll",
			"type": "event"
		},
		{
			"anonymous": false,
			"inputs": [
				{
					"indexed": false,
					"internalType": "uint256",
					"name": "_fromTokenId",
					"type": "uint256"
				},
				{
					"indexed": false,
					"internalType": "uint256",
					"name": "_toTokenId",
					"type": "uint256"
				}
			],
			"name": "BatchMetadataUpdate",
			"type": "event"
		},
		{
			"anonymous": false,
			"inputs": [
				{
					"indexed": false,
					"internalType": "uint256",
					"name": "_tokenId",
					"type": "uint256"
				}
			],
			"name": "MetadataUpdate",
			"type": "event"
		},
		{
			"anonymous": false,
			"inputs": [
				{
					"indexed": true,
					"internalType": "address",
					"name": "previousOwner",
					"type": "address"
				},
				{
					"indexed": true,
					"internalType": "address",
					"name": "newOwner",
					"type": "address"
				}
			],
			"name": "OwnershipTransferred",
			"type": "event"
		},
		{
			"anonymous": false,
			"inputs": [
				{
					"indexed": true,
					"internalType": "address",
					"name": "from",
					"type": "address"
				},
				{
					"indexed": true,
					"internalType": "address",
					"name": "to",
					"type": "address"
				},
				{
					"indexed": true,
					"internalType": "uint256",
					"name": "tokenId",
					"type": "uint256"
				}
			],
			"name": "Transfer",
			"type": "event"
		},
		{
			"anonymous": false,
			"inputs": [
				{
					"indexed": false,
					"internalType": "address",
					"name": "_employer",
					"type": "address"
				},
				{
					"indexed": false,
					"internalType": "uint256",
					"name": "_tokenID",
					"type": "uint256"
				}
			],
			"name": "endContractEvent",
			"type": "event"
		},
		{
			"anonymous": false,
			"inputs": [
				{
					"indexed": false,
					"internalType": "address",
					"name": "_employer",
					"type": "address"
				},
				{
					"indexed": false,
					"internalType": "address",
					"name": "_employee",
					"type": "address"
				}
			],
			"name": "plusEmployee",
			"type": "event"
		},
		{
			"anonymous": false,
			"inputs": [
				{
					"indexed": false,
					"internalType": "address",
					"name": "_employee",
					"type": "address"
				}
			],
			"name": "transferEmployeeEvent",
			"type": "event"
		},
		{
			"anonymous": false,
			"inputs": [
				{
					"indexed": false,
					"internalType": "address",
					"name": "_employer",
					"type": "address"
				}
			],
			"name": "transferEmployerEvent",
			"type": "event"
		},
		{
			"inputs": [
				{
					"internalType": "address",
					"name": "to",
					"type": "address"
				},
				{
					"internalType": "uint256",
					"name": "tokenId",
					"type": "uint256"
				}
			],
			"name": "approve",
			"outputs": [],
			"stateMutability": "nonpayable",
			"type": "function"
		},
		{
			"inputs": [
				{
					"internalType": "address",
					"name": "owner",
					"type": "address"
				}
			],
			"name": "balanceOf",
			"outputs": [
				{
					"internalType": "uint256",
					"name": "",
					"type": "uint256"
				}
			],
			"stateMutability": "view",
			"type": "function"
		},
		{
			"inputs": [],
			"name": "checkAgreement",
			"outputs": [
				{
					"components": [
						{
							"internalType": "string",
							"name": "employer",
							"type": "string"
						},
						{
							"internalType": "string",
							"name": "employee",
							"type": "string"
						},
						{
							"internalType": "uint16",
							"name": "start_year",
							"type": "uint16"
						},
						{
							"internalType": "uint8",
							"name": "start_month",
							"type": "uint8"
						},
						{
							"internalType": "uint8",
							"name": "start_day",
							"type": "uint8"
						},
						{
							"internalType": "uint16",
							"name": "end_year",
							"type": "uint16"
						},
						{
							"internalType": "uint8",
							"name": "end_month",
							"type": "uint8"
						},
						{
							"internalType": "uint8",
							"name": "end_day",
							"type": "uint8"
						},
						{
							"internalType": "string",
							"name": "location",
							"type": "string"
						},
						{
							"internalType": "string",
							"name": "job",
							"type": "string"
						},
						{
							"internalType": "uint16",
							"name": "start_time",
							"type": "uint16"
						},
						{
							"internalType": "uint16",
							"name": "end_time",
							"type": "uint16"
						},
						{
							"internalType": "uint16",
							"name": "start_restTime",
							"type": "uint16"
						},
						{
							"internalType": "uint16",
							"name": "end_restTime",
							"type": "uint16"
						},
						{
							"internalType": "uint8",
							"name": "work_day",
							"type": "uint8"
						},
						{
							"internalType": "string",
							"name": "holiday",
							"type": "string"
						},
						{
							"internalType": "uint8",
							"name": "salary",
							"type": "uint8"
						},
						{
							"internalType": "uint32",
							"name": "payment",
							"type": "uint32"
						},
						{
							"internalType": "bool",
							"name": "hasBonus",
							"type": "bool"
						},
						{
							"internalType": "uint32",
							"name": "bonus",
							"type": "uint32"
						},
						{
							"internalType": "bool",
							"name": "hasOther",
							"type": "bool"
						},
						{
							"internalType": "uint32",
							"name": "other_salary",
							"type": "uint32"
						},
						{
							"internalType": "bool",
							"name": "payCheck",
							"type": "bool"
						},
						{
							"internalType": "string",
							"name": "payday",
							"type": "string"
						},
						{
							"internalType": "bool",
							"name": "account",
							"type": "bool"
						},
						{
							"internalType": "bool",
							"name": "insurance1",
							"type": "bool"
						},
						{
							"internalType": "bool",
							"name": "insurance2",
							"type": "bool"
						},
						{
							"internalType": "bool",
							"name": "insurance3",
							"type": "bool"
						},
						{
							"internalType": "bool",
							"name": "insurance4",
							"type": "bool"
						},
						{
							"internalType": "uint256",
							"name": "create_time",
							"type": "uint256"
						},
						{
							"internalType": "string",
							"name": "employerSign",
							"type": "string"
						},
						{
							"internalType": "string",
							"name": "employeeSign",
							"type": "string"
						}
					],
					"internalType": "struct EmploymentContract.AgreementSol",
					"name": "",
					"type": "tuple"
				}
			],
			"stateMutability": "view",
			"type": "function"
		},
		{
			"inputs": [
				{
					"internalType": "uint256",
					"name": "_tokenID",
					"type": "uint256"
				}
			],
			"name": "getAgreement",
			"outputs": [
				{
					"components": [
						{
							"internalType": "string",
							"name": "employer",
							"type": "string"
						},
						{
							"internalType": "string",
							"name": "employee",
							"type": "string"
						},
						{
							"internalType": "uint16",
							"name": "start_year",
							"type": "uint16"
						},
						{
							"internalType": "uint8",
							"name": "start_month",
							"type": "uint8"
						},
						{
							"internalType": "uint8",
							"name": "start_day",
							"type": "uint8"
						},
						{
							"internalType": "uint16",
							"name": "end_year",
							"type": "uint16"
						},
						{
							"internalType": "uint8",
							"name": "end_month",
							"type": "uint8"
						},
						{
							"internalType": "uint8",
							"name": "end_day",
							"type": "uint8"
						},
						{
							"internalType": "string",
							"name": "location",
							"type": "string"
						},
						{
							"internalType": "string",
							"name": "job",
							"type": "string"
						},
						{
							"internalType": "uint16",
							"name": "start_time",
							"type": "uint16"
						},
						{
							"internalType": "uint16",
							"name": "end_time",
							"type": "uint16"
						},
						{
							"internalType": "uint16",
							"name": "start_restTime",
							"type": "uint16"
						},
						{
							"internalType": "uint16",
							"name": "end_restTime",
							"type": "uint16"
						},
						{
							"internalType": "uint8",
							"name": "work_day",
							"type": "uint8"
						},
						{
							"internalType": "string",
							"name": "holiday",
							"type": "string"
						},
						{
							"internalType": "uint8",
							"name": "salary",
							"type": "uint8"
						},
						{
							"internalType": "uint32",
							"name": "payment",
							"type": "uint32"
						},
						{
							"internalType": "bool",
							"name": "hasBonus",
							"type": "bool"
						},
						{
							"internalType": "uint32",
							"name": "bonus",
							"type": "uint32"
						},
						{
							"internalType": "bool",
							"name": "hasOther",
							"type": "bool"
						},
						{
							"internalType": "uint32",
							"name": "other_salary",
							"type": "uint32"
						},
						{
							"internalType": "bool",
							"name": "payCheck",
							"type": "bool"
						},
						{
							"internalType": "string",
							"name": "payday",
							"type": "string"
						},
						{
							"internalType": "bool",
							"name": "account",
							"type": "bool"
						},
						{
							"internalType": "bool",
							"name": "insurance1",
							"type": "bool"
						},
						{
							"internalType": "bool",
							"name": "insurance2",
							"type": "bool"
						},
						{
							"internalType": "bool",
							"name": "insurance3",
							"type": "bool"
						},
						{
							"internalType": "bool",
							"name": "insurance4",
							"type": "bool"
						},
						{
							"internalType": "uint256",
							"name": "create_time",
							"type": "uint256"
						},
						{
							"internalType": "string",
							"name": "employerSign",
							"type": "string"
						},
						{
							"internalType": "string",
							"name": "employeeSign",
							"type": "string"
						}
					],
					"internalType": "struct EmploymentContract.AgreementSol",
					"name": "",
					"type": "tuple"
				}
			],
			"stateMutability": "view",
			"type": "function"
		},
		{
			"inputs": [
				{
					"internalType": "uint256",
					"name": "tokenId",
					"type": "uint256"
				}
			],
			"name": "getApproved",
			"outputs": [
				{
					"internalType": "address",
					"name": "",
					"type": "address"
				}
			],
			"stateMutability": "view",
			"type": "function"
		},
		{
			"inputs": [
				{
					"internalType": "address",
					"name": "owner",
					"type": "address"
				},
				{
					"internalType": "address",
					"name": "operator",
					"type": "address"
				}
			],
			"name": "isApprovedForAll",
			"outputs": [
				{
					"internalType": "bool",
					"name": "",
					"type": "bool"
				}
			],
			"stateMutability": "view",
			"type": "function"
		},
		{
			"inputs": [
				{
					"internalType": "address",
					"name": "_employer",
					"type": "address"
				},
				{
					"internalType": "address",
					"name": "_employee",
					"type": "address"
				},
				{
					"components": [
						{
							"internalType": "string",
							"name": "employer",
							"type": "string"
						},
						{
							"internalType": "string",
							"name": "employee",
							"type": "string"
						},
						{
							"internalType": "uint16",
							"name": "start_year",
							"type": "uint16"
						},
						{
							"internalType": "uint8",
							"name": "start_month",
							"type": "uint8"
						},
						{
							"internalType": "uint8",
							"name": "start_day",
							"type": "uint8"
						},
						{
							"internalType": "uint16",
							"name": "end_year",
							"type": "uint16"
						},
						{
							"internalType": "uint8",
							"name": "end_month",
							"type": "uint8"
						},
						{
							"internalType": "uint8",
							"name": "end_day",
							"type": "uint8"
						},
						{
							"internalType": "string",
							"name": "location",
							"type": "string"
						},
						{
							"internalType": "string",
							"name": "job",
							"type": "string"
						},
						{
							"internalType": "uint16",
							"name": "start_time",
							"type": "uint16"
						},
						{
							"internalType": "uint16",
							"name": "end_time",
							"type": "uint16"
						},
						{
							"internalType": "uint16",
							"name": "start_restTime",
							"type": "uint16"
						},
						{
							"internalType": "uint16",
							"name": "end_restTime",
							"type": "uint16"
						},
						{
							"internalType": "uint8",
							"name": "work_day",
							"type": "uint8"
						},
						{
							"internalType": "string",
							"name": "holiday",
							"type": "string"
						},
						{
							"internalType": "uint8",
							"name": "salary",
							"type": "uint8"
						},
						{
							"internalType": "uint32",
							"name": "payment",
							"type": "uint32"
						},
						{
							"internalType": "bool",
							"name": "hasBonus",
							"type": "bool"
						},
						{
							"internalType": "uint32",
							"name": "bonus",
							"type": "uint32"
						},
						{
							"internalType": "bool",
							"name": "hasOther",
							"type": "bool"
						},
						{
							"internalType": "uint32",
							"name": "other_salary",
							"type": "uint32"
						},
						{
							"internalType": "bool",
							"name": "payCheck",
							"type": "bool"
						},
						{
							"internalType": "string",
							"name": "payday",
							"type": "string"
						},
						{
							"internalType": "bool",
							"name": "account",
							"type": "bool"
						},
						{
							"internalType": "bool",
							"name": "insurance1",
							"type": "bool"
						},
						{
							"internalType": "bool",
							"name": "insurance2",
							"type": "bool"
						},
						{
							"internalType": "bool",
							"name": "insurance3",
							"type": "bool"
						},
						{
							"internalType": "bool",
							"name": "insurance4",
							"type": "bool"
						},
						{
							"internalType": "uint256",
							"name": "create_time",
							"type": "uint256"
						},
						{
							"internalType": "string",
							"name": "employerSign",
							"type": "string"
						},
						{
							"internalType": "string",
							"name": "employeeSign",
							"type": "string"
						}
					],
					"internalType": "struct EmploymentContract.AgreementSol",
					"name": "_contract",
					"type": "tuple"
				}
			],
			"name": "mintNFT",
			"outputs": [
				{
					"internalType": "uint256",
					"name": "",
					"type": "uint256"
				}
			],
			"stateMutability": "nonpayable",
			"type": "function"
		},
		{
			"inputs": [],
			"name": "name",
			"outputs": [
				{
					"internalType": "string",
					"name": "",
					"type": "string"
				}
			],
			"stateMutability": "view",
			"type": "function"
		},
		{
			"inputs": [],
			"name": "owner",
			"outputs": [
				{
					"internalType": "address",
					"name": "",
					"type": "address"
				}
			],
			"stateMutability": "view",
			"type": "function"
		},
		{
			"inputs": [
				{
					"internalType": "uint256",
					"name": "tokenId",
					"type": "uint256"
				}
			],
			"name": "ownerOf",
			"outputs": [
				{
					"internalType": "address",
					"name": "",
					"type": "address"
				}
			],
			"stateMutability": "view",
			"type": "function"
		},
		{
			"inputs": [],
			"name": "renounceOwnership",
			"outputs": [],
			"stateMutability": "nonpayable",
			"type": "function"
		},
		{
			"inputs": [
				{
					"internalType": "address",
					"name": "from",
					"type": "address"
				},
				{
					"internalType": "address",
					"name": "to",
					"type": "address"
				},
				{
					"internalType": "uint256",
					"name": "tokenId",
					"type": "uint256"
				}
			],
			"name": "safeTransferFrom",
			"outputs": [],
			"stateMutability": "nonpayable",
			"type": "function"
		},
		{
			"inputs": [
				{
					"internalType": "address",
					"name": "from",
					"type": "address"
				},
				{
					"internalType": "address",
					"name": "to",
					"type": "address"
				},
				{
					"internalType": "uint256",
					"name": "tokenId",
					"type": "uint256"
				},
				{
					"internalType": "bytes",
					"name": "data",
					"type": "bytes"
				}
			],
			"name": "safeTransferFrom",
			"outputs": [],
			"stateMutability": "nonpayable",
			"type": "function"
		},
		{
			"inputs": [
				{
					"internalType": "address",
					"name": "_to",
					"type": "address"
				},
				{
					"components": [
						{
							"internalType": "string",
							"name": "employer",
							"type": "string"
						},
						{
							"internalType": "string",
							"name": "employee",
							"type": "string"
						},
						{
							"internalType": "uint16",
							"name": "start_year",
							"type": "uint16"
						},
						{
							"internalType": "uint8",
							"name": "start_month",
							"type": "uint8"
						},
						{
							"internalType": "uint8",
							"name": "start_day",
							"type": "uint8"
						},
						{
							"internalType": "uint16",
							"name": "end_year",
							"type": "uint16"
						},
						{
							"internalType": "uint8",
							"name": "end_month",
							"type": "uint8"
						},
						{
							"internalType": "uint8",
							"name": "end_day",
							"type": "uint8"
						},
						{
							"internalType": "string",
							"name": "location",
							"type": "string"
						},
						{
							"internalType": "string",
							"name": "job",
							"type": "string"
						},
						{
							"internalType": "uint16",
							"name": "start_time",
							"type": "uint16"
						},
						{
							"internalType": "uint16",
							"name": "end_time",
							"type": "uint16"
						},
						{
							"internalType": "uint16",
							"name": "start_restTime",
							"type": "uint16"
						},
						{
							"internalType": "uint16",
							"name": "end_restTime",
							"type": "uint16"
						},
						{
							"internalType": "uint8",
							"name": "work_day",
							"type": "uint8"
						},
						{
							"internalType": "string",
							"name": "holiday",
							"type": "string"
						},
						{
							"internalType": "uint8",
							"name": "salary",
							"type": "uint8"
						},
						{
							"internalType": "uint32",
							"name": "payment",
							"type": "uint32"
						},
						{
							"internalType": "bool",
							"name": "hasBonus",
							"type": "bool"
						},
						{
							"internalType": "uint32",
							"name": "bonus",
							"type": "uint32"
						},
						{
							"internalType": "bool",
							"name": "hasOther",
							"type": "bool"
						},
						{
							"internalType": "uint32",
							"name": "other_salary",
							"type": "uint32"
						},
						{
							"internalType": "bool",
							"name": "payCheck",
							"type": "bool"
						},
						{
							"internalType": "string",
							"name": "payday",
							"type": "string"
						},
						{
							"internalType": "bool",
							"name": "account",
							"type": "bool"
						},
						{
							"internalType": "bool",
							"name": "insurance1",
							"type": "bool"
						},
						{
							"internalType": "bool",
							"name": "insurance2",
							"type": "bool"
						},
						{
							"internalType": "bool",
							"name": "insurance3",
							"type": "bool"
						},
						{
							"internalType": "bool",
							"name": "insurance4",
							"type": "bool"
						},
						{
							"internalType": "uint256",
							"name": "create_time",
							"type": "uint256"
						},
						{
							"internalType": "string",
							"name": "employerSign",
							"type": "string"
						},
						{
							"internalType": "string",
							"name": "employeeSign",
							"type": "string"
						}
					],
					"internalType": "struct EmploymentContract.AgreementSol",
					"name": "_data",
					"type": "tuple"
				}
			],
			"name": "sendToEmployee",
			"outputs": [],
			"stateMutability": "nonpayable",
			"type": "function"
		},
		{
			"inputs": [
				{
					"internalType": "address",
					"name": "_to",
					"type": "address"
				},
				{
					"components": [
						{
							"internalType": "string",
							"name": "employer",
							"type": "string"
						},
						{
							"internalType": "string",
							"name": "employee",
							"type": "string"
						},
						{
							"internalType": "uint16",
							"name": "start_year",
							"type": "uint16"
						},
						{
							"internalType": "uint8",
							"name": "start_month",
							"type": "uint8"
						},
						{
							"internalType": "uint8",
							"name": "start_day",
							"type": "uint8"
						},
						{
							"internalType": "uint16",
							"name": "end_year",
							"type": "uint16"
						},
						{
							"internalType": "uint8",
							"name": "end_month",
							"type": "uint8"
						},
						{
							"internalType": "uint8",
							"name": "end_day",
							"type": "uint8"
						},
						{
							"internalType": "string",
							"name": "location",
							"type": "string"
						},
						{
							"internalType": "string",
							"name": "job",
							"type": "string"
						},
						{
							"internalType": "uint16",
							"name": "start_time",
							"type": "uint16"
						},
						{
							"internalType": "uint16",
							"name": "end_time",
							"type": "uint16"
						},
						{
							"internalType": "uint16",
							"name": "start_restTime",
							"type": "uint16"
						},
						{
							"internalType": "uint16",
							"name": "end_restTime",
							"type": "uint16"
						},
						{
							"internalType": "uint8",
							"name": "work_day",
							"type": "uint8"
						},
						{
							"internalType": "string",
							"name": "holiday",
							"type": "string"
						},
						{
							"internalType": "uint8",
							"name": "salary",
							"type": "uint8"
						},
						{
							"internalType": "uint32",
							"name": "payment",
							"type": "uint32"
						},
						{
							"internalType": "bool",
							"name": "hasBonus",
							"type": "bool"
						},
						{
							"internalType": "uint32",
							"name": "bonus",
							"type": "uint32"
						},
						{
							"internalType": "bool",
							"name": "hasOther",
							"type": "bool"
						},
						{
							"internalType": "uint32",
							"name": "other_salary",
							"type": "uint32"
						},
						{
							"internalType": "bool",
							"name": "payCheck",
							"type": "bool"
						},
						{
							"internalType": "string",
							"name": "payday",
							"type": "string"
						},
						{
							"internalType": "bool",
							"name": "account",
							"type": "bool"
						},
						{
							"internalType": "bool",
							"name": "insurance1",
							"type": "bool"
						},
						{
							"internalType": "bool",
							"name": "insurance2",
							"type": "bool"
						},
						{
							"internalType": "bool",
							"name": "insurance3",
							"type": "bool"
						},
						{
							"internalType": "bool",
							"name": "insurance4",
							"type": "bool"
						},
						{
							"internalType": "uint256",
							"name": "create_time",
							"type": "uint256"
						},
						{
							"internalType": "string",
							"name": "employerSign",
							"type": "string"
						},
						{
							"internalType": "string",
							"name": "employeeSign",
							"type": "string"
						}
					],
					"internalType": "struct EmploymentContract.AgreementSol",
					"name": "_data",
					"type": "tuple"
				}
			],
			"name": "sendToEmployer",
			"outputs": [],
			"stateMutability": "nonpayable",
			"type": "function"
		},
		{
			"inputs": [
				{
					"internalType": "address",
					"name": "operator",
					"type": "address"
				},
				{
					"internalType": "bool",
					"name": "approved",
					"type": "bool"
				}
			],
			"name": "setApprovalForAll",
			"outputs": [],
			"stateMutability": "nonpayable",
			"type": "function"
		},
		{
			"inputs": [
				{
					"internalType": "bytes4",
					"name": "interfaceId",
					"type": "bytes4"
				}
			],
			"name": "supportsInterface",
			"outputs": [
				{
					"internalType": "bool",
					"name": "",
					"type": "bool"
				}
			],
			"stateMutability": "view",
			"type": "function"
		},
		{
			"inputs": [],
			"name": "symbol",
			"outputs": [
				{
					"internalType": "string",
					"name": "",
					"type": "string"
				}
			],
			"stateMutability": "view",
			"type": "function"
		},
		{
			"inputs": [
				{
					"internalType": "uint256",
					"name": "tokenId",
					"type": "uint256"
				}
			],
			"name": "tokenURI",
			"outputs": [
				{
					"internalType": "string",
					"name": "",
					"type": "string"
				}
			],
			"stateMutability": "view",
			"type": "function"
		},
		{
			"inputs": [
				{
					"internalType": "address",
					"name": "from",
					"type": "address"
				},
				{
					"internalType": "address",
					"name": "to",
					"type": "address"
				},
				{
					"internalType": "uint256",
					"name": "tokenId",
					"type": "uint256"
				}
			],
			"name": "transferFrom",
			"outputs": [],
			"stateMutability": "nonpayable",
			"type": "function"
		},
		{
			"inputs": [
				{
					"internalType": "address",
					"name": "newOwner",
					"type": "address"
				}
			],
			"name": "transferOwnership",
			"outputs": [],
			"stateMutability": "nonpayable",
			"type": "function"
		}
	]
}